00COTAHIST.2021BOVESPA 20210323                                                                                                                                                                                                                      
012021032302A1AP34      010ADVANCE AUTODRN ED       R$  000000000613500000000063200000000006135000000000627100000000061920000000004795000000000650000014000000000000014018000000000087916505000000000000009999123100000010000000000000BRA1APBDR001106
012021032302A1BB34      010ABB LTD     DRN          R$  000000000433200000000043600000000004298000000000432000000000042980000000000000000000000440000013000000000000000090000000000000388888000000000000009999123100000010000000000000BRA1BBBDR009100
012021032302A1CR34      010AMCOR PLC   DRN          R$  000000000627900000000062790000000006279000000000627900000000062790000000000000000000000000000001000000000000000001000000000000006279000000000000009999123100000010000000000000BRA1CRBDR003102
012021032302A1EG34      010AEGON NV    DRN          R$  000000000251200000000025120000000002466000000000249500000000024820000000002476000000000250000015000000000000000107000000000000266980000000000000009999123100000010000000000000BRA1EGBDR002100
012021032302A1ES34      010AES CORP    DRN          R$  000000001441100000000144110000000014050000000001417000000000141500000000000000000000000000000006000000000000000027000000000000382597000000000000009999123100000010000000000000BRA1ESBDR007105
012021032302A1GI34      010AGILENT TECHDRN          R$  000000003420000000000342000000000034200000000003420000000000342000000000000000000000003500000001000000000000000002000000000000068400000000000000009999123100000010000000000000BRA1GIBDR003104
012021032302A1IV34      010APARTMENT INDRN          R$  000000000311400000000031860000000003101000000000316100000000031520000000003095000000000315000023000000000000000104000000000000328827000000000000009999123100000010000000000000BRA1IVBDR002106
012021032302A1KA34      010AKAMAI TECHNDRN          R$  000000000461500000000046210000000004590000000000462000000000045900000000004400000000000500000005000000000000066977000000000309500339000000000000009999123100000010000000000000BRA1KABDR002101
012021032302A1LB34      010ALBEMARLE CODRN          R$  000000008190000000000819000000000081270000000008155000000000812700000000000000000000009029900003000000000000000003000000000000244650000000000000009999123100000010000000000000BRA1LBBDR008105
012021032302A1LG34      010ALIGN TECHNODRN          R$  000000007200000000000720000000000072000000000007200000000000720000000000000000000000000000000001000000000000000001000000000000072000000000000000009999123100000010000000000000BRA1LGBDR007100
012021032302A1LL34      010ALLIANCE DATDRN          R$  000000001473000000000147300000000014680000000001470200000000147300000000013700000000001473000004000000000000000092000000000001352660000000000000009999123100000010000000000000BRA1LLBDR007105
012021032302A1LN34      010ALNYLAM PHARDRN          R$  000000000392500000000039250000000003792000000000385400000000037920000000003410000000000000000003000000000000000003000000000000011563000000000000009999123100000010000000000000BRA1LNBDR003100
012021032302A1MD34      010ADVANCED MICDRN          R$  000000004425100000000442510000000043000000000004365800000000430000000000043000000000004480000016000000000000000315000000000013752443000000000000009999123100000010000000000000BRA1MDBDR002100
012021032302A1MT34      010APPLIED MATEDRN          R$  000000006540100000000654010000000063951000000006435700000000639510000000054815000000000000000003000000000000000209000000000013450759000000000000009999123100000010000000000000BRA1MTBDR008105
012021032302A1MX34      010AMERICAMOVILDRN          R$  000000000351000000000038040000000003510000000000370500000000037560000000003510000000000404800006000000000000000008000000000000029641000000000000009999123100000010000000000000BRA1MXBDR000101
012021032302A1NT34      010ANTHEM INC  DRN          R$  000000003872700000000387270000000038727000000003872700000000387270000000000000000000000000000001000000000000000006000000000000232362000000000000009999123100000010000000000000BRA1NTBDR006105
012021032302A1PA34      010APA CORP    DRN          R$  000000001038100000000103810000000010000000000001013500000000100000000000009395000000001330000008000000000000000259000000000002625201000000000000009999123100000010000000000000BRA1PABDR001105
012021032302A1RE34      010ALEXANDRIA RDRN          R$  000000002304000000000230400000000023040000000002304000000000230400000000000000000000000000000001000000000000000001000000000000023040000000000000009999123100000010000000000000BRA1REBDR009104
012021032302A1RG34      010ARGENX SE   DRN          R$  000000000651500000000065150000000006515000000000651500000000065150000000000000000000000830000001000000000000000001000000000000006515000000000000009999123100000010000000000000BRA1RGBDR004100
012021032302A1TH34      010AUTOHOME INCDRN          R$  000000000550000000000055000000000005500000000000550000000000055000000000005435000000000000000001000000000000000001000000000000005500000000000000009999123100000010000000000000BRA1THBDR008101
012021032302A1UA34      010ANGLOGOLD ASDRN          R$  000000000296000000000029600000000002836000000000288900000000028580000000002840000000000300000017000000000000001178000000000003403700000000000000009999123100000010000000000000BRA1UABDR001101
012021032302A1UT34      010AUTODESK INCDRN          R$  000000003717000000000375110000000037170000000003749800000000375000000000036650000000003756000005000000000000000209000000000007837093000000000000009999123100000010000000000000BRA1UTBDR001100
012021032302A1YX34      010ALTERYX INC DRN          R$  000000000233200000000023900000000002326000000000238300000000023900000000002200000000000250000008000000000000000048000000000000114418000000000000009999123100000010000000000000BRA1YXBDR005100
012021032302A1ZN34      010ASTRAZENECA DRN          R$  000000000469700000000046970000000004514000000000456300000000045540000000004539000000000460000109000000000000009403000000000042913060000000000000009999123100000010000000000000BRA1ZNBDR003101
012021032302AALL34      010AMERICAN AIRDRN          R$  000000001290000000000129500000000012160000000001247500000000122300000000012300000000001260000097000000000000003130000000000039048616000000000000009999123100000010000000000000BRAALLBDR003115
012021032302AALR3       010ALLIAR      ON      NM   R$  000000000092000000000009230000000000889000000000090100000000008900000000000890000000000089403456000000000001133900000000001022588300000000000000009999123100000010000000000000BRAALRACNOR6102
012021032302AAPL34      010APPLE       DRN          R$  000000000682200000000068220000000006728000000000676600000000067800000000006773000000000678001128000000000000116738000000000789930556000000000000009999123100000010000000000000BRAAPLBDR004137
012021032302ABBV34      010ABBVIE      DRN          R$  000000005780000000000578470000000057700000000005775400000000578470000000057500000000006200000006000000000000000325000000000018770240000000000000009999123100000010000000000000BRABBVBDR001120
012021032302ABCB4       010ABC BRASIL  PN      N2   R$  000000000149900000000015250000000001487000000000150600000000014920000000001492000000000150102697000000000000450400000000000678622000000000000000009999123100000010000000000000BRABCBACNPR4135
012021032302ABEV3       010AMBEV S/A   ON           R$  000000000154100000000015550000000001508000000000152700000000015080000000001507000000000150925456000000000016016400000000024464548300000000000000009999123100000010000000000000BRABEVACNOR1124
012021032302ABTT34      010ABBOTT      DRN          R$  000000001670000000000167690000000016635000000001676200000000166350000000015501000000001750000004000000000000001884000000000031580576000000000000009999123100000010000000000000BRABTTBDR007137
012021032302ABUD34      010AB INBEV    DRN          R$  000000000582500000000058250000000005780000000000581300000000058000000000005100000000000650000008000000000000003009000000000017494260000000000000009999123100000010000000000000BRABUDBDR009103
012021032302ACNB34      010ACCENTURE   DRN          R$  000000014600000000001467000000000146000000000014623300000001467000000000145000000000016025100002000000000000000003000000000000438700000000000000009999123100000010000000000000BRACNBBDR006114
012021032302ADBE34      010ADOBE INC   DRN          R$  000000000501600000000051190000000005016000000000509200000000050970000000005065000000000518500032000000000000006708000000000034159299000000000000009999123100000010000000000000BRADBEBDR003101
012021032302AERI3       010AERIS       ON      NM   R$  000000000092100000000009410000000000892000000000090000000000008940000000000894000000000089805942000000000020240400000000018234150400000000000000009999123100000010000000000000BRAERIACNOR4100
012021032302AFLT3       010AFLUENTE T  ON           R$  000000000091100000000009110000000000899000000000090300000000009100000000000899000000000092500011000000000000001100000000000000994200000000000000009999123100000010000000000000BRAFLTACNOR1116
012021032302AGRO3       010BRASILAGRO  ON      NM   R$  000000000229300000000022930000000002224000000000226000000000022360000000002236000000000223801428000000000000238700000000000539672800000000000000009999123100000010000000000000BRAGROACNOR7110
012021032302AIGB34      010AIG GROUP   DRN ED       R$  000000002489700000000248970000000024897000000002489700000000248970000000000000000000000000000001000000000000000018000000000000448146000000000000009999123100000010000000000000BRAIGBBDR007118
012021032302AIRB34      010AIRBNB      DRN          R$  000000000543200000000054320000000005128000000000524300000000051960000000005163000000000519500347000000000000036936000000000193689678000000000000009999123100000010000000000000BRAIRBBDR004100
012021032302ALPA3       010ALPARGATAS  ON      N1   R$  000000000317300000000031900000000003109000000000317300000000031480000000003062000000000314900008000000000000001800000000000005711900000000000000009999123100000010000000000000BRALPAACNOR0229
012021032302ALPA4       010ALPARGATAS  PN      N1   R$  000000000357500000000036680000000003540000000000362800000000036230000000003623000000000362604575000000000000988900000000003588385400000000000000009999123100000010000000000000BRALPAACNPR7229
012021032302ALPK3       010ESTAPAR     ON      NM   R$  000000000077500000000008000000000000775000000000079200000000007830000000000783000000000079700060000000000000022400000000000017754500000000000000009999123100000010000000000000BRALPKACNOR9100
012021032302ALSO3       010ALIANSCSONAEON      NM   R$  000000000267300000000027500000000002613000000000270600000000026950000000002695000000000269606021000000000002530400000000006847392800000000000000009999123100000010000000000000BRALSOACNOR5100
012021032302ALUP3       010ALUPAR      ON      N2   R$  000000000085800000000008900000000000844000000000085900000000008440000000000832000000000086800200000000000000025200000000000021651300000000000000009999123100000010000000000000BRALUPACNOR8111
012021032302ALUP4       010ALUPAR      PN      N2   R$  000000000086000000000008600000000000806000000000082200000000008150000000000815000000000082700274000000000000061400000000000050529100000000000000009999123100000010000000000000BRALUPACNPR5111
012021032302ALUP11      010ALUPAR      UNT     N2   R$  000000000250000000000025320000000002465000000000248600000000024910000000002480000000000249103559000000000000928500000000002308256500000000000000009999123100000010000000000000BRALUPCDAM15111
012021032302AMAR3       010LOJAS MARISAON      NM   R$  000000000053900000000005600000000000525000000000054100000000005480000000000548000000000054905294000000000005387000000000002918663200000000000000009999123100000010000000000000BRAMARACNOR4112
012021032302AMBP3       010AMBIPAR     ON      NM   R$  000000000240400000000024730000000002379000000000243700000000024400000000002430000000000244701525000000000000262700000000000640353800000000000000009999123100000010000000000000BRAMBPACNOR6100
012021032302AMGN34      010AMGEN       DRN          R$  000000000499300000000049930000000004835000000000483600000000048480000000004500000000000499300008000000000000008591000000000041551238000000000000009999123100000010000000000000BRAMGNBDR004138
012021032302AMZO34      010AMAZON      DRN          R$  000000001098800000000111340000000010901000000001106400000000110000000000011000000000001107001250000000000000113919000000001260408017000000000000009999123100000010000000000000BRAMZOBDR002102
012021032302ANIM3       010ANIMA       ON      NM   R$  000000000091100000000009190000000000884000000000090100000000009000000000000900000000000090112327000000000003709500000000003344778900000000000000009999123100000010000000000000BRANIMACNOR6107
012021032302APER3       010ALPER S.A.  ON      NM   R$  000000000550100000000057540000000005181000000000546500000000052000000000005200000000000522500696000000000000099400000000000543258400000000000000009999123100000010000000000000BRAPERACNOR9103
012021032302ARMT34      010ARCELOR     DRN          R$  000000000729200000000072920000000006906000000000710500000000069250000000006925000000000712000055000000000000007280000000000051728442000000000000009999123100000010000000000000BRARMTBDR008117
012021032302ARZZ3       010AREZZO CO   ON      NM   R$  000000000721000000000073660000000007136000000000728000000000073430000000007336000000000734302793000000000000551700000000004016812300000000000000009999123100000010000000000000BRARZZACNOR3138
012021032302ASAI3       010ASSAI       ON      NM   R$  000000000700000000000070780000000006856000000000699700000000070780000000007030000000000707807597000000000001583200000000011079203000000000000000009999123100000010000000000000BRASAIACNOR0100
012021032302ASML34      010ASML HOLD   DRN          R$  000000031380100000003138010000000308000000000030807400000003080000000000000000000000032200000004000000000000000154000000000047443504000000000000009999123100000010000000000000BRASMLBDR003103
012021032302ATOM3       010ATOMPAR     ON           R$  000000000038000000000003900000000000373000000000037900000000003800000000000376000000000038100082000000000000046900000000000017798500000000000000009999123100000010000000000000BRATOMACNOR1103
012021032302ATTB34      010ATT INC     DRN          R$  000000000545200000000055360000000005452000000000551500000000055360000000005460000000000554300040000000000000005249000000000028953218000000000000009999123100000010000000000000BRATTBBDR007135
012021032302ATVI34      010ACTIVISION  DRN          R$  000000005064200000000508650000000050289000000005056900000000504350000000050435000000005200000076000000000000001281000000000064780168000000000000009999123100000010000000000000BRATVIBDR008101
012021032302AURA33      010AURA 360    DR3          R$  000000000651100000000065500000000006480000000000651200000000064980000000006496000000000649802618000000000000147339000000000959609991000000000000009999123100000010000000000000BRAURABDR001103
012021032302AVGO34      010BROADCOM INCDRN ED       R$  000000000742500000000074250000000007310000000000734600000000073170000000007008000000000787600008000000000000021535000000000158211081000000000000009999123100000010000000000000BRAVGOBDR003109
012021032302AVLL3       010ALPHAVILLE  ON      NM   R$  000000000236000000000023600000000002349000000000235000000000023490000000002180000000000235000006000000000000001300000000000003055100000000000000009999123100000010000000000000BRAVLLACNOR5101
012021032302AXPB34      010AMERICAN EXPDRN          R$  000000000755500000000075550000000007450000000000755100000000075100000000007000000000000754500019000000000000004314000000000032579274000000000000009999123100000010000000000000BRAXPBBDR007136
012021032302AZEV3       010AZEVEDO     ON           R$  000000000055000000000005540000000000539000000000054800000000005450000000000539000000000054700047000000000000013400000000000007354300000000000000009999123100000010000000000000BRAZEVACNOR0118
012021032302AZEV4       010AZEVEDO     PN           R$  000000000034300000000003500000000000336000000000034100000000003380000000000338000000000034000122000000000000091400000000000031185000000000000000009999123100000010000000000000BRAZEVACNPR7118
012021032302AZUL4       010AZUL        PN      N2   R$  000000000389100000000038980000000003650000000000376400000000036750000000003675000000000367741003000000000015726900000000059203783300000000000000009999123100000010000000000000BRAZULACNPR4100
012021032302B1AM34      010BROOKFIELD ADRN          R$  000000000618900000000061890000000006189000000000618900000000061890000000000000000000000000000001000000000000000001000000000000006189000000000000009999123100000010000000000000BRB1AMBDR007103
012021032302B1CS34      010BARCLAYS PLCDRN          R$  000000000554500000000055450000000005545000000000554500000000055450000000005000000000000559500001000000000000000050000000000000277250000000000000009999123100000010000000000000BRB1CSBDR000101
012021032302B1GN34      010BEIGENE LTD DRN          R$  000000000767600000000076760000000007676000000000767600000000076760000000000000000000000000000001000000000000000002000000000000015352000000000000009999123100000010000000000000BRB1GNBDR002100
012021032302B1IL34      010BILIBILI INCDRN          R$  000000001168000000000117550000000011600000000001172800000000117550000000011600000000001175500011000000000000000942000000000011047785000000000000009999123100000010000000000000BRB1ILBDR002100
012021032302B1KR34      010BAKER HUGHESDRN          R$  000000001200700000000120070000000012007000000001200700000000120070000000010000000000000000000001000000000000000104000000000001248728000000000000009999123100000010000000000000BRB1KRBDR005105
012021032302B1MR34      010BIOMARIN PHADRN          R$  000000002116000000000211600000000021160000000002116000000000211600000000000000000000002550000001000000000000000001000000000000021160000000000000009999123100000010000000000000BRB1MRBDR001100
012021032302B1NT34      010BIONTECH SE DRN          R$  000000000737900000000073860000000006910000000000699300000000070000000000006900000000000700000050000000000000003318000000000023205531000000000000009999123100000010000000000000BRB1NTBDR005100
012021032302B1PP34      010BP PLC      DRN          R$  000000000339200000000034240000000003320000000000332700000000033330000000003372000000000348800050000000000000008439000000000028079072000000000000009999123100000010000000000000BRB1PPBDR008102
012021032302B1SA34      010BANCO SANTANDRN          R$  000000000688000000000068840000000006864000000000687200000000068750000000000101000000000000000007000000000000000031000000000000213059000000000000009999123100000010000000000000BRB1SABDR004101
012021032302B1SX34      010BOSTON SCIENDRN          R$  000000002087900000000208800000000020879000000002087900000000208800000000017500000000000000000002000000000000000515000000000010752700000000000000009999123100000010000000000000BRB1SXBDR006100
012021032302B1TI34      010BRITISH AMERDRN          R$  000000000443800000000044390000000004359000000000439800000000043590000000004255000000000000000009000000000000001236000000000005436111000000000000009999123100000010000000000000BRB1TIBDR005101
012021032302B3SA3       010B3          ON      NM   R$  000000000546000000000055400000000005390000000000547900000000054170000000005417000000000541930144000000000011500900000000063016039000000000000000009999123100000010000000000000BRB3SAACNOR6113
012021032302BAAX39      010MSCI ASIA JPDRN          R$  000000000515500000000051550000000005084000000000509700000000050950000000005027000000000539100050000000000000033964000000000173125082000000000000009999123100000010000000000000BRBAAXBDR009101
012021032302BABA34      010ALIBABAGR   DRN          R$  000000000469900000000047300000000004639000000000470500000000046800000000004680000000000470000676000000000000070529000000000331868202000000000000009999123100000010000000000000BRBABABDR005101
012021032302BACW39      010MSCI ACWI   DRN          R$  000000000525900000000052590000000005185000000000518800000000051870000000005187000000000536500060000000000000029382000000000152441792000000000000009999123100000010000000000000BRBACWBDR007101
012021032302BAER39      010US AEROSPACEDRN          R$  000000000280200000000028020000000002796000000000279600000000027960000000002401000000000000000002000000000000000011000000000000030762000000000000009999123100000010000000000000BRBAERBDR003102
012021032302BAHI3       010BAHEMA      ON      MA   R$  000000000725000000000072500000000006810000000000709300000000068100000000006809000000000719700007000000000000000900000000000006384500000000000000009999123100000010000000000000BRBAHIACNOR1072
012021032302BALM3       010BAUMER      ON           R$  000000000165000000000016690000000001640000000000164300000000016690000000001640000000000166900008000000000000002600000000000004274200000000000000009999123100000010000000000000BRBALMACNOR5050
012021032302BALM4       010BAUMER      PN           R$  000000000134000000000013400000000001340000000000134000000000013400000000001250000000000135500001000000000000000100000000000000134000000000000000009999123100000010000000000000BRBALMACNPR2051
012021032302BAZA3       010AMAZONIA    ON           R$  000000000393500000000040880000000003934000000000403200000000040690000000003950000000000407000006000000000000000600000000000002419700000000000000009999123100000010000000000000BRBAZAACNOR0174
012021032302BBAS3       010BRASIL      ON  EJ  NM   R$  000000000307700000000030780000000002968000000000302000000000029680000000002968000000000296939932000000000021461200000000064817860600000000000000009999123100000010000000000000BRBBASACNOR3297
012021032302BBDC3       010BRADESCO    ON      N1   R$  000000000229000000000023360000000002284000000000230700000000022970000000002296000000000229711744000000000003384800000000007811168700000000000000009999123100000010000000000000BRBBDCACNOR1723
012021032302BBDC4       010BRADESCO    PN      N1   R$  000000000262600000000026840000000002625000000000264800000000026310000000002631000000000263253556000000000037059800000000098153170700000000000000009999123100000010000000000000BRBBDCACNPR8723
012021032302BBRK3       010BR BROKERS  ON      NM   R$  000000000017900000000001880000000000179000000000018300000000001840000000000182000000000018400367000000000000216100000000000039726700000000000000009999123100000010000000000000BRBBRKACNOR4114
012021032302BBSE3       010BBSEGURIDADEON      NM   R$  000000000243400000000024640000000002424000000000244000000000024280000000002428000000000243015632000000000003456900000000008436081000000000000000009999123100000010000000000000BRBBSEACNOR5118
012021032302BBYY34      010BEST BUY    DRN ED       R$  000000006595000000000659500000000065547000000006560300000000655470000000055500000000006850000004000000000000000106000000000006953991000000000000009999123100000010000000000000BRBBYYBDR005116
012021032302BCHI39      010MSCI CHINA  DRN          R$  000000000584500000000058450000000005705000000000573100000000057400000000005716000000000612100073000000000000007906000000000045313349000000000000009999123100000010000000000000BRBCHIBDR001101
012021032302BCSA34      010SANTANDER   DRN          R$  000000000188200000000018940000000001860000000000188000000000018630000000001863000000000188200064000000000000017088000000000032140607000000000000009999123100000010000000000000BRBCSABDR005102
012021032302BDVY39      010SELECT DIVIDDRN          R$  000000000626700000000062670000000006175000000000618500000000061750000000006001000000000000000003000000000000000038000000000000235065000000000000009999123100000010000000000000BRBDVYBDR007101
012021032302BEEF3       010MINERVA     ON      NM   R$  000000000100400000000010270000000000995000000000101300000000009990000000000998000000000099913167000000000008598200000000008713221000000000000000009999123100000010000000000000BRBEEFACNOR6110
012021032302BEEM39      010MSCI EMGMARKDRN          R$  000000000489300000000048930000000004860000000000486400000000048680000000004500000000000520000021000000000000006462000000000031433143000000000000009999123100000010000000000000BRBEEMBDR006101
012021032302BEES3       010BANESTES    ON           R$  000000000049400000000004960000000000491000000000049300000000004930000000000492000000000049300063000000000000014900000000000007357300000000000000009999123100000010000000000000BRBEESACNOR9345
012021032302BEES4       010BANESTES    PN           R$  000000000058000000000005880000000000574000000000057900000000005740000000000581000000000058600010000000000000001800000000000001042200000000000000009999123100000010000000000000BRBEESACNPR6270
012021032302BEFA39      010MSCI EAFE   DRN          R$  000000000524400000000052450000000005189000000000519300000000052050000000005191000000000555000020000000000000003118000000000016192819000000000000009999123100000010000000000000BRBEFABDR008101
012021032302BEGE39      010INC ESG AWARDRN          R$  000000000590000000000059000000000005900000000000590000000000059000000000005900000000000000000002000000000000000015000000000000088500000000000000009999123100000010000000000000BRBEGEBDR008101
012021032302BEGU39      010TRUSTMSCI USDRN          R$  000000000497200000000049720000000004965000000000497000000000049720000000004896000000000535500005000000000000000079000000000000392641000000000000009999123100000010000000000000BRBEGUBDR004101
012021032302BERK34      010BERKSHIRE   DRN          R$  000000000690000000000069270000000006820000000000687700000000068860000000006885000000000688900613000000000000047621000000000327518210000000000000009999123100000010000000000000BRBERKBDR002101
012021032302BEWG39      010MSCI GERMANYDRN          R$  000000000612500000000061310000000006077000000000609000000000060770000000006000000000000000000004000000000000000280000000000001705460000000000000009999123100000010000000000000BRBEWGBDR000101
012021032302BEWH39      010MSCIHONGKONGDRN          R$  000000000488000000000048800000000004850000000000486100000000048650000000000000000000000000000003000000000000000353000000000001715995000000000000009999123100000010000000000000BRBEWHBDR008101
012021032302BEWJ39      010MSCI JAPAN  DRN          R$  000000000478600000000047860000000004750000000000476400000000047770000000004708000000000506600012000000000000001387000000000006608754000000000000009999123100000010000000000000BRBEWJBDR004101
012021032302BEWT39      010MSCI TAIWAN DRN          R$  000000000536200000000053620000000005320000000000534100000000053420000000005100000000000000000004000000000000000420000000000002243592000000000000009999123100000010000000000000BRBEWTBDR003101
012021032302BEWU39      010MSCI UK     DRN          R$  000000000573000000000057300000000005682000000000568200000000056840000000005650000000000000000003000000000000001010000000000005739700000000000000009999123100000010000000000000BRBEWUBDR001101
012021032302BEWW39      010MSCI MEXICO DRN          R$  000000000591500000000059150000000005915000000000591500000000059150000000000000000000000000000001000000000000000200000000000001183000000000000000009999123100000010000000000000BRBEWWBDR007102
012021032302BEWY39      010MSCISOUTHKORDRN          R$  000000000600000000000060000000000006000000000000600000000000060000000000004751000000000000000001000000000000000100000000000000600000000000000000009999123100000010000000000000BRBEWYBDR003101
012021032302BEWZ39      010MSCI BRAZIL DRN          R$  000000000618000000000061800000000006180000000000618000000000061800000000000000000000000000000001000000000000000003000000000000018540000000000000009999123100000010000000000000BRBEWZBDR000101
012021032302BEZU39      010MSCIEUROZONEDRN          R$  000000000635000000000063500000000006316000000000632900000000063220000000005604000000000650000006000000000000000585000000000003702599000000000000009999123100000010000000000000BRBEZUBDR004101
012021032302BGIP4       010BANESE      PN           R$  000000000222800000000022360000000002228000000000223200000000022360000000002230000000000226500002000000000000000200000000000000446400000000000000009999123100000010000000000000BRBGIPACNPR8200
012021032302BHPG34      010BHP GROUP   DRN          R$  000000003776000000000377600000000037379000000003742700000000373790000000036000000000000000000006000000000000000311000000000011639860000000000000009999123100000010000000000000BRBHPGBDR007103
012021032302BIAU39      010GOLD TRUST  DRN          R$  000000000457200000000045720000000004505000000000452600000000045280000000004538000000000459800026000000000000001304000000000005902610000000000000009999123100000010000000000000BRBIAUBDR008100
012021032302BIBB39      010NASDAQ BIOTCDRN          R$  000000000571000000000057100000000005590000000000560100000000055900000000004748000000000000000005000000000000003770000000000021118500000000000000009999123100000010000000000000BRBIBBBDR006101
012021032302BIDI3       010BANCO INTER ON  EJ  N2   R$  000000000514000000000055800000000005075000000000543800000000055800000000005540000000000558003375000000000000482600000000002624438000000000000000009999123100000010000000000000BRBIDIACNOR3108
012021032302BIDI4       010BANCO INTER PN  EJ  N2   R$  000000000508000000000055840000000005066000000000544300000000055580000000005539000000000555819179000000000004825400000000026268883000000000000000009999123100000010000000000000BRBIDIACNPR0112
012021032302BIDI11      010BANCO INTER UNT EJ  N2   R$  000000001532500000000168000000000015254000000001645600000000167400000000016638000000001674010113000000000002278100000000037489440700000000000000009999123100000010000000000000BRBIDICDAXX3107
012021032302BIDU34      010BAIDU INC   DRN          R$  000000014319900000001450000000000137900000000014044200000001450000000000139703000000014750000054000000000000002533000000000355741238000000000000009999123100000010000000000000BRBIDUBDR002100
012021032302BIEF39      010COREMSCIEAFEDRN          R$  000000000502800000000050280000000004945000000000497900000000049450000000004928000000000000000003000000000000000311000000000001548778000000000000009999123100000010000000000000BRBIEFBDR001101
012021032302BIEM39      010COREMSCI EMKDRN          R$  000000000596500000000059650000000005868000000000588700000000058700000000005856000000000640500023000000000000002718000000000016002646000000000000009999123100000010000000000000BRBIEMBDR007101
012021032302BIEU39      010COREMSCI EURDRN          R$  000000000497800000000049780000000004897000000000490300000000049140000000004882000000000534000024000000000000007669000000000037606136000000000000009999123100000010000000000000BRBIEUBDR000101
012021032302BIGF39      010GLOBAL INFRADRN          R$  000000000611500000000061310000000006100000000000610300000000061000000000005850000000000000000008000000000000001245000000000007598235000000000000009999123100000010000000000000BRBIGFBDR006101
012021032302BIIB34      010BIOGEN      DRN          R$  000000002469500000000246950000000024677000000002469200000000246770000000019500000000002550000002000000000000000232000000000005728664000000000000009999123100000010000000000000BRBIIBBDR001101
012021032302BIJH39      010CORE MIDCAP DRN          R$  000000000705500000000070550000000006969000000000698700000000069690000000006801000000000723200004000000000000000815000000000005694805000000000000009999123100000010000000000000BRBIJHBDR006101
012021032302BIJR39      010CORESMALLCAPDRN          R$  000000000740100000000074100000000007290000000000733900000000072990000000007000000000000806300019000000000000000580000000000004257087000000000000009999123100000010000000000000BRBIJRBDR005101
012021032302BILB34      010BILBAOVIZ   DRN          R$  000000000283200000000028320000000002820000000000282400000000028200000000002400000000002000000003000000000000000046000000000000129924000000000000009999123100000010000000000000BRBILBBDR005101
012021032302BILF39      010LATIN AMER40DRN          R$  000000000503000000000050300000000005030000000000503000000000050300000000000000000000000000000001000000000000000500000000000002515000000000000000009999123100000010000000000000BRBILFBDR006101
012021032302BIOM3       010BIOMM       ON      MA   R$  000000000154600000000016000000000001540000000000155500000000015650000000001550000000000156500126000000000000031400000000000048840400000000000000009999123100000010000000000000BRBIOMACNOR2108
012021032302BITO39      010CORE SP TOTADRN          R$  000000000504200000000050420000000004985000000000500300000000050000000000004750000000000000000854000000000000057011000000000285236758000000000000009999123100000010000000000000BRBITOBDR001101
012021032302BIVB39      010CORE SP 500 DRN          R$  000000000544900000000054560000000005409000000000542100000000054200000000005400000000000570901023000000000000027069000000000146765236000000000000009999123100000010000000000000BRBIVBBDR004101
012021032302BIWM39      010RUSSELL 2000DRN          R$  000000000612400000000061240000000005975000000000598900000000059930000000005975000000000000000015000000000000003877000000000023222693000000000000009999123100000010000000000000BRBIWMBDR009101
012021032302BIXJ39      010GLOBALHEALTHDRN          R$  000000000524000000000052400000000005240000000000524000000000052400000000005000000000000000000001000000000000000300000000000001572000000000000000009999123100000010000000000000BRBIXJBDR003101
012021032302BIXN39      010GLOBAL TECH DRN          R$  000000000564000000000056400000000005590000000000560000000000055900000000005370000000000000000003000000000000000014000000000000078400000000000000009999123100000010000000000000BRBIXNBDR005101
012021032302BIYF39      010US FINANCIALDRN          R$  000000000272000000000027240000000002695000000000270700000000026980000000002620000000000281500014000000000000009558000000000025882639000000000000009999123100000010000000000000BRBIYFBDR009102
012021032302BIYW39      010US TECHNOLOGDRN          R$  000000000138300000000013890000000001375000000000138400000000013750000000001330000000000145000014000000000000019918000000000027571893000000000000009999123100000010000000000000BRBIYWBDR004102
012021032302BKBR3       010BK BRASIL   ON      NM   R$  000000000092900000000009470000000000914000000000092700000000009140000000000914000000000091705567000000000001788900000000001658752700000000000000009999123100000010000000000000BRBKBRACNOR4103
012021032302BKNG34      010BOOKING     DRN          R$  000000000703200000000070920000000006850000000000690900000000069900000000006960000000000699000276000000000000064287000000000444205200000000000000009999123100000010000000000000BRBKNGBDR006101
012021032302BLAK34      010BLACKROCK   DRN          R$  000000006705000000000670500000000066000000000006630200000000660000000000063000000000006705000006000000000000000334000000000022145068000000000000009999123100000010000000000000BRBLAKBDR003120
012021032302BMEB3       010MERC BRASIL ON      N1   R$  000000000180000000000019000000000001800000000000184800000000018990000000001743000000000187600009000000000000001200000000000002218100000000000000009999123100000010000000000000BRBMEBACNOR8197
012021032302BMEB4       010MERC BRASIL PN      N1   R$  000000000170900000000017400000000001709000000000173800000000017150000000001689000000000171500013000000000000034500000000000059966900000000000000009999123100000010000000000000BRBMEBACNPR5202
012021032302BMGB4       010BANCO BMG   PN      N1   R$  000000000051700000000005240000000000506000000000051400000000005120000000000511000000000051302270000000000000747000000000000384216200000000000000009999123100000010000000000000BRBMGBACNPR0102
012021032302BMIN3       010MERC INVEST ON           R$  000000000223100000000022320000000002231000000000223100000000022320000000002231000000000230000002000000000000000200000000000000446300000000000000009999123100000010000000000000BRBMINACNOR4168
012021032302BMIN4       010MERC INVEST PN           R$  000000000212000000000021200000000002120000000000212000000000021200000000002121000000000223000001000000000000000100000000000000212000000000000000009999123100000010000000000000BRBMINACNPR1172
012021032302BMKS3       010BIC MONARK  ON           R$  000000002479400000000250370000000024496000000002477700000000250370000000024999000000002504000006000000000000000021000000000000520323000000000000009999123100000010000000000000BRBMKSACNOR9162
012021032302BMOB3       010BEMOBI TECH ON      NM   R$  000000000195800000000020420000000001954000000000198300000000019750000000001975000000000197902529000000000000925500000000001835605600000000000000009999123100000010000000000000BRBMOBACNOR7100
012021032302BMYB34      010BRISTOLMYERSDRN          R$  000000003464000000000347370000000034636000000003464000000000347370000000034500000000003600000003000000000000001314000000000045518217000000000000009999123100000010000000000000BRBMYBBDR000129
012021032302BNDA39      010MSCI INDIA  DRN          R$  000000000588000000000058800000000005820000000000583600000000058570000000005687000000000588500014000000000000001885000000000011002015000000000000009999123100000010000000000000BRBNDABDR004101
012021032302BOAC34      010BANK AMERICADRN          R$  000000000520600000000052110000000005080000000000511700000000051030000000005078000000000510300422000000000000033789000000000172928059000000000000009999123100000010000000000000BRBOACBDR004143
012021032302BOAS3       010BOA VISTA   ON      NM   R$  000000000104000000000010670000000001030000000000104700000000010500000000001038000000000105201972000000000000323700000000000338916300000000000000009999123100000010000000000000BRBOASACNOR6100
012021032302BOBR4       010BOMBRIL     PN           R$  000000000023600000000002370000000000234000000000023400000000002340000000000234000000000023500053000000000000014600000000000003429300000000000000009999123100000010000000000000BRBOBRACNPR3128
012021032302BOEI34      010BOEING      DRN          R$  000000013540000000001354000000000132100000000013445000000001326000000000130000000000015800000011000000000000000593000000000079729299000000000000009999123100000010000000000000BRBOEIBDR003132
012021032302BONY34      010BNY MELLON  DRN          R$  000000002472000000000250000000000024400000000002464200000000245190000000024400000000002451900022000000000000000383000000000009438088000000000000009999123100000010000000000000BRBONYBDR001122
012021032302BOXP34      010BOSTON PROP DRN          R$  000000000565000000000056550000000005600000000000561200000000056550000000005570000000000000000005000000000000001451000000000008143855000000000000009999123100000010000000000000BRBOXPBDR008122
012021032302BPAC3       010BTGP BANCO  ON      N2   R$  000000000445100000000046000000000004451000000000456700000000045360000000004419000000000459900030000000000000003300000000000015071700000000000000009999123100000010000000000000BRBPACACNOR7123
012021032302BPAC5       010BTGP BANCO  PNA     N2   R$  000000000246200000000025350000000002430000000000248300000000024350000000002431000000000251700075000000000000009200000000000022844000000000000000009999123100000010000000000000BRBPACACNPA0123
012021032302BPAC11      010BTGP BANCO  UNT     N2   R$  000000000939700000000097160000000009326000000000952900000000095100000000009502000000000951019401000000000005005400000000047696624400000000000000009999123100000010000000000000BRBPACUNT006108
012021032302BPAN4       010BANCO PAN   PN      N1   R$  000000000109700000000011470000000001084000000000111600000000011150000000001114000000000111506864000000000004124000000000004604861700000000000000009999123100000010000000000000BRBPANACNPR1110
012021032302BRAP3       010BRADESPAR   ON      N1   R$  000000000545600000000055610000000005341000000000546700000000053410000000005341000000000538400086000000000000012200000000000066702100000000000000009999123100000010000000000000BRBRAPACNOR5137
012021032302BRAP4       010BRADESPAR   PN      N1   R$  000000000620000000000063310000000006090000000000621000000000061250000000006124000000000612515529000000000002677700000000016628715800000000000000009999123100000010000000000000BRBRAPACNPR2137
012021032302BRDT3       010PETROBRAS BRON      NM   R$  000000000219800000000022210000000002153000000000219000000000021760000000002173000000000217719360000000000005266700000000011538733700000000000000009999123100000010000000000000BRBRDTACNOR1121
012021032302BRFS3       010BRF SA      ON      NM   R$  000000000253500000000025540000000002430000000000248000000000024360000000002436000000000244427179000000000008341100000000020689773400000000000000009999123100000010000000000000BRBRFSACNOR8119
012021032302BRGE8       010ALFA CONSORCPND          R$  000000000083100000000008750000000000831000000000084300000000008750000000000833000000000090000003000000000000000400000000000000337200000000000000009999123100000010000000000000BRBRGEACNPD3215
012021032302BRGE11      010ALFA CONSORCPNE          R$  000000000095000000000010000000000000950000000000097500000000010000000000000900000000000104500002000000000000000200000000000000195000000000000000009999123100000010000000000000BRBRGEACNPE1106
012021032302BRIV3       010ALFA INVEST ON           R$  000000000092500000000009250000000000925000000000092500000000009250000000000926000000000096900002000000000000000200000000000000185000000000000000009999123100000010000000000000BRBRIVACNOR6206
012021032302BRIV4       010ALFA INVEST PN           R$  000000000082600000000008840000000000825000000000086100000000008770000000000839000000000089000011000000000000001400000000000001205700000000000000009999123100000010000000000000BRBRIVACNPR3212
012021032302BRKM3       010BRASKEM     ON      N1   R$  000000000335100000000034220000000003335000000000339200000000034220000000003406000000000345000070000000000000019200000000000065139700000000000000009999123100000010000000000000BRBRKMACNOR1117
012021032302BRKM5       010BRASKEM     PNA     N1   R$  000000000370400000000037910000000003666000000000372500000000036670000000003667000000000367715434000000000002900400000000010806219100000000000000009999123100000010000000000000BRBRKMACNPA4117
012021032302BRKM6       010BRASKEM     PNB     N1   R$  000000000201000000000020950000000002010000000000205100000000020910000000002060000000000219800003000000000000000400000000000000820600000000000000009999123100000010000000000000BRBRKMACNPB2113
012021032302BRML3       010BR MALLS PARON      NM   R$  000000000095200000000009840000000000939000000000096600000000009680000000000968000000000096924069000000000014677500000000014184404400000000000000009999123100000010000000000000BRBRMLACNOR9115
012021032302BRPR3       010BR PROPERT  ON      NM   R$  000000000087600000000008850000000000867000000000087600000000008680000000000868000000000087103637000000000001252600000000001097406200000000000000009999123100000010000000000000BRBRPRACNOR9119
012021032302BRSR3       010BANRISUL    ON      N1   R$  000000000139000000000014000000000001366000000000138400000000013660000000001362000000000137000025000000000000003800000000000005259700000000000000009999123100000010000000000000BRBRSRACNOR3172
012021032302BRSR5       010BANRISUL    PNA     N1   R$  000000000186000000000018600000000001700000000000181000000000017110000000001712000000000186900010000000000000001300000000000002353700000000000000009999123100000010000000000000BRBRSRACNPA6176
012021032302BRSR6       010BANRISUL    PNB     N1   R$  000000000119600000000012150000000001187000000000120100000000012000000000001200000000000120208052000000000002500600000000003005465100000000000000009999123100000010000000000000BRBRSRACNPB4175
012021032302BSEV3       010BIOSEV      ON      NM   R$  000000000090000000000009010000000000852000000000088200000000008750000000000875000000000088000176000000000000066300000000000058501500000000000000009999123100000010000000000000BRBSEVACNOR3102
012021032302BSLI3       010BRB BANCO   ON           R$  000000000495000000000052000000000004911000000000502000000000049110000000004911000000000510000003000000000000000300000000000001506100000000000000009999123100000010000000000000BRBSLIACNOR5181
012021032302BSLI4       010BRB BANCO   PN           R$  000000000370000000000037000000000003700000000000370000000000037000000000003418000000000370000001000000000000000200000000000000740000000000000000009999123100000010000000000000BRBSLIACNPR2181
012021032302BSLV39      010SILVER TRUSTDRN          R$  000000000437900000000043790000000004250000000000429700000000042790000000004255000000000450000047000000000000015773000000000067785031000000000000009999123100000010000000000000BRBSLVBDR002100
012021032302BTOW3       010B2W DIGITAL ON      NM   R$  000000000621600000000063300000000006088000000000621800000000062560000000006230000000000625619996000000000004803000000000029868629900000000000000009999123100000010000000000000BRBTOWACNOR8111
012021032302BTTL3       010BATTISTELLA ON           R$  000000000094100000000009410000000000941000000000094100000000009410000000000909000000000093000001000000000000000100000000000000094100000000000000009999123100000010000000000000BRBTTLACNOR0108
012021032302BUSM39      010MSCI US MVOLDRN          R$  000000000471500000000047150000000004707000000000471100000000047120000000003831000000000000000003000000000000000574000000000002704476000000000000009999123100000010000000000000BRBUSMBDR002101
012021032302C1AG34      010CONAGRA BRANDRN          R$  000000002108000000000210800000000020840000000002106800000000208400000000000000000000000000000004000000000000000020000000000000421360000000000000009999123100000010000000000000BRC1AGBDR008105
012021032302C1AH34      010CARDINAL HEADRN          R$  000000003193000000000319300000000031850000000003189200000000318500000000000000000000000000000003000000000000000015000000000000478390000000000000009999123100000010000000000000BRC1AHBDR006105
012021032302C1BR34      010CBRE GROUP IDRN          R$  000000004155000000000415500000000041367000000004138600000000413670000000000000000000000000000002000000000000000019000000000000786339000000000000009999123100000010000000000000BRC1BRBDR003100
012021032302C1BS34      010VIACOMCBS   DRN ED       R$  000000005150000000000529000000000050000000000005122500000000504500000000050000000000005300000048000000000000001780000000000091180552000000000000009999123100000010000000000000BRC1BSBDR001106
012021032302C1CL34      010CARNIVAL CORDRN          R$  000000001502000000000150200000000013880000000001408200000000139900000000013700000000001399000075000000000000006924000000000097505071000000000000009999123100000010000000000000BRC1CLBDR004101
012021032302C1FG34      010CITIZENS FINDRN          R$  000000002370000000000237000000000023600000000002366600000000236000000000002000000000000000000002000000000000000003000000000000071000000000000000009999123100000010000000000000BRC1FGBDR007104
012021032302C1HI34      010CHINA PETROLDRN          R$  000000000488800000000048880000000004761000000000476800000000047610000000004696000000000482300014000000000000000589000000000002808844000000000000009999123100000010000000000000BRC1HIBDR009100
012021032302C1HK34      010CHECK POINT DRN          R$  000000003231000000000323100000000032310000000003231000000000323100000000000000000000000000000003000000000000000003000000000000096930000000000000009999123100000010000000000000BRC1HKBDR005100
012021032302C1IC34      010CIGNA CORP  DRN          R$  000000003303000000000330300000000033030000000003303000000000330300000000000000000000000000000001000000000000000006000000000000198180000000000000009999123100000010000000000000BRC1ICBDR000102
012021032302C1MG34      010CHIPOTLE MEXDRN          R$  000000004010000000000401000000000040100000000004010000000000401000000000035000000000000000000001000000000000000002000000000000080200000000000000009999123100000010000000000000BRC1MGBDR003100
012021032302C1SU34      010CREDIT SUISSDRN          R$  000000000361400000000036140000000003550000000000358000000000035520000000003550000000000379000010000000000000000048000000000000171875000000000000009999123100000010000000000000BRC1SUBDR001101
012021032302C1TV34      010CORTEVA INC DRN          R$  000000000659500000000065950000000006300000000000630000000000063200000000006270000000000000000003000000000000001502000000000009462915000000000000009999123100000010000000000000BRC1TVBDR007102
012021032302CAJI34      010CANON INC   DRN          R$  000000001219800000000121980000000012198000000001219800000000121980000000011100000000001245000001000000000000000004000000000000048792000000000000009999123100000010000000000000BRCAJIBDR009103
012021032302CAMB3       010CAMBUCI     ON           R$  000000000046000000000004690000000000453000000000046000000000004690000000000461000000000046900046000000000000020600000000000009479500000000000000009999123100000010000000000000BRCAMBACNOR4119
012021032302CAML3       010CAMIL       ON  EJ  NM   R$  000000000108000000000010980000000001065000000000108100000000010710000000001069000000000107105004000000000001477100000000001597619400000000000000009999123100000010000000000000BRCAMLACNOR3114
012021032302CAON34      010CAPITAL ONE DRN          R$  000000003371700000000337170000000033717000000003371700000000337170000000000000000000000000000002000000000000000013000000000000438321000000000000009999123100000010000000000000BRCAONBDR009107
012021032302CAPH34      010CAPRI HOLDI DRN          R$  000000002756300000000276730000000027000000000002705600000000270000000000019400000000003020000016000000000000000223000000000006033695000000000000009999123100000010000000000000BRCAPHBDR008100
012021032302CARD3       010CSU CARDSYSTON      NM   R$  000000000167600000000017290000000001654000000000169900000000017090000000001681000000000170900794000000000000145000000000000246399700000000000000009999123100000010000000000000BRCARDACNOR9121
012021032302CASH3       010MELIUZ      ON      NM   R$  000000000238800000000024290000000002355000000000239300000000023880000000002379000000000238802077000000000000493000000000001179951600000000000000009999123100000010000000000000BRCASHACNOR8100
012021032302CATP34      010CATERPILLAR DRN          R$  000000000780000000000078000000000007467000000000757700000000075500000000007500000000000776100078000000000000026179000000000198376701000000000000009999123100000010000000000000BRCATPBDR003139
012021032302CCPR3       010CYRE COM-CCPON      NM   R$  000000000114500000000011660000000001119000000000113800000000011240000000001123000000000112400890000000000000252300000000000287158700000000000000009999123100000010000000000000BRCCPRACNOR9115
012021032302CCRO3       010CCR SA      ON      NM   R$  000000000123700000000012400000000001204000000000121600000000012050000000001205000000000121020087000000000006802200000000008275317400000000000000009999123100000010000000000000BRCCROACNOR2138
012021032302CEAB3       010CEA MODAS   ON      NM   R$  000000000108800000000011600000000001077000000000111800000000011520000000001150000000000115208874000000000005180700000000005794967000000000000000009999123100000010000000000000BRCEABACNOR1101
012021032302CEBR3       010CEB         ON           R$  000000001448000000000144900000000014350000000001445100000000144770000000014350000000001447800014000000000000003800000000000054915300000000000000009999123100000010000000000000BRCEBRACNOR5118
012021032302CEDO3       010CEDRO       ON      N1   R$  000000000102100000000010870000000001020000000000103000000000010200000000001020000000000105800008000000000000002000000000000002060000000000000000009999123100000010000000000000BRCEDOACNOR8096
012021032302CEDO4       010CEDRO       PN      N1   R$  000000000055400000000005700000000000530000000000054900000000005340000000000533000000000054100074000000000000027000000000000014827100000000000000009999123100000010000000000000BRCEDOACNPR5128
012021032302CEGR3       010CEG         ON           R$  000000000659400000000065940000000006200000000000651400000000062000000000005500000000000639000006000000000000001000000000000006514600000000000000009999123100000010000000000000BRCEGRACNOR4138
012021032302CESP3       010CESP        ON      N1   R$  000000000321900000000032200000000003162000000000320900000000031930000000003194000000000322000030000000000000005100000000000016366900000000000000009999123100000010000000000000BRCESPACNOR3170
012021032302CESP6       010CESP        PNB     N1   R$  000000000279000000000028140000000002757000000000278000000000027700000000002769000000000277007208000000000001531400000000004257549400000000000000009999123100000010000000000000BRCESPACNPB4129
012021032302CGAS5       010COMGAS      PNA          R$  000000001500800000000156980000000015008000000001553300000000156980000000015400000000001580000013000000000000001400000000000021746300000000000000009999123100000010000000000000BRCGASACNPA3150
012021032302CGRA3       010GRAZZIOTIN  ON           R$  000000000300000000000031310000000002996000000000305300000000029960000000002995000000000305300010000000000000001000000000000003053700000000000000009999123100000010000000000000BRCGRAACNOR2072
012021032302CGRA4       010GRAZZIOTIN  PN           R$  000000000269200000000028590000000002689000000000279300000000028080000000002807000000000282000266000000000000047500000000000132670500000000000000009999123100000010000000000000BRCGRAACNPR9072
012021032302CHCM34      010CHARTER COMMDRN          R$  000000000593900000000060600000000005915000000000595200000000060600000000005811000000000610000023000000000000003825000000000022769765000000000000009999123100000010000000000000BRCHCMBDR001101
012021032302CHVX34      010CHEVRON     DRN          R$  000000000556000000000057350000000005530000000000564500000000056490000000005615000000000580000234000000000000025283000000000142746153000000000000009999123100000010000000000000BRCHVXBDR008141
012021032302CIEL3       010CIELO       ON      NM   R$  000000000036600000000003720000000000362000000000036600000000003650000000000364000000000036510078000000000019630500000000007185090200000000000000009999123100000010000000000000BRCIELACNOR3144
012021032302CLSC4       010CELESC      PN      N2   R$  000000000577000000000057790000000005700000000000574900000000057500000000005730000000000585000018000000000000003100000000000017824700000000000000009999123100000010000000000000BRCLSCACNPR3116
012021032302CMCS34      010COMCAST     DRN          R$  000000000621400000000062280000000006185000000000619600000000062130000000006181000000000631300023000000000000021653000000000134165661000000000000009999123100000010000000000000BRCMCSBDR008138
012021032302CMIG3       010CEMIG       ON      N1   R$  000000000150300000000015190000000001492000000000150800000000015100000000001506000000000151000626000000000000122500000000000184832000000000000000009999123100000010000000000000BRCMIGACNOR6226
012021032302CMIG4       010CEMIG       PN      N1   R$  000000000123200000000012450000000001218000000000123200000000012310000000001230000000000123113681000000000006500100000000008011111000000000000000009999123100000010000000000000BRCMIGACNPR3227
012021032302CMIN3       010CSNMINERACAOON      N2   R$  000000000084000000000008440000000000824000000000083100000000008320000000000826000000000083203293000000000002289600000000001904546700000000000000009999123100000010000000000000BRCMINACNOR2100
012021032302CNIC34      010CANAD NATIONDRN          R$  000000003155000000000315500000000031550000000003155000000000315500000000000000000000000000000001000000000000000250000000000007887500000000000000009999123100000010000000000000BRCNICBDR007107
012021032302CNTO3       010CENTAURO    ON      NM   R$  000000000253700000000026990000000002484000000000264200000000026760000000002676000000000268411843000000000002996700000000007917305900000000000000009999123100000010000000000000BRCNTOACNOR5100
012021032302COCA34      010COCA COLA   DRN ED       R$  000000000468200000000047380000000004659000000000469200000000047200000000004720000000000474000394000000000000036742000000000172425507000000000000009999123100000010000000000000BRCOCABDR002139
012021032302COCE5       010COELCE      PNA          R$  000000000544500000000054800000000005334000000000542400000000054300000000005430000000000547700053000000000000019400000000000105236600000000000000009999123100000010000000000000BRCOCEACNPA3140
012021032302COGN3       010COGNA ON    ON      NM   R$  000000000040200000000004120000000000395000000000040200000000003960000000000395000000000039634214000000000043649700000000017568810700000000000000009999123100000010000000000000BRCOGNACNOR2101
012021032302COLG34      010COLGATE     DRN          R$  000000000600700000000061100000000006007000000000606600000000061100000000006012000000000680000007000000000000000046000000000000279058000000000000009999123100000010000000000000BRCOLGBDR000140
012021032302COPH34      010COPHILLIPS  DRN          R$  000000000720000000000072150000000007005000000000711200000000070850000000007005000000000890000024000000000000007306000000000051961381000000000000009999123100000010000000000000BRCOPHBDR009137
012021032302COTY34      010COTY INC    DRN          R$  000000000236400000000023640000000002275000000000233800000000022820000000002265000000000270000023000000000000002613000000000006111092000000000000009999123100000010000000000000BRCOTYBDR006116
012021032302COWC34      010COSTCO      DRN          R$  000000000461600000000047140000000004602000000000466500000000047100000000004601000000000475000148000000000000032990000000000153913461000000000000009999123100000010000000000000BRCOWCBDR006123
012021032302CPFE3       010CPFL ENERGIAON      NM   R$  000000000306800000000031200000000003063000000000308800000000030750000000003075000000000307708467000000000001825700000000005639557800000000000000009999123100000010000000000000BRCPFEACNOR0130
012021032302CPLE3       010COPEL       ON  EB  N1   R$  000000000068400000000006930000000000681000000000068500000000006830000000000683000000000068702084000000000001073200000000000736200600000000000000009999123100000010000000000000BRCPLEACNOR8141
012021032302CPLE6       010COPEL       PNB EB  N1   R$  000000000070700000000007160000000000705000000000070900000000007080000000000708000000000070913631000000000009877600000000007010030300000000000000009999123100000010000000000000BRCPLEACNPB9138
012021032302CRDE3       010CR2         ON           R$  000000000225500000000023780000000002255000000000235200000000023500000000002200000000000232200004000000000000000600000000000001411700000000000000009999123100000010000000000000BRCRDEACNOR1112
012021032302CRFB3       010CARREFOUR BRON      NM   R$  000000000191100000000019580000000001898000000000193000000000019270000000001925000000000192714024000000000002947400000000005688986100000000000000009999123100000010000000000000BRCRFBACNOR2107
012021032302CRIP34      010CTRIPCOM    DRN          R$  000000002280500000000228050000000021900000000002223200000000219000000000021700000000000000000012000000000000000240000000000005335815000000000000009999123100000010000000000000BRCRIPBDR000100
012021032302CRIV3       010ALFA FINANC ON           R$  000000000052200000000005220000000000522000000000052200000000005220000000000522000000000053400023000000000000007500000000000003915000000000000000009999123100000010000000000000BRCRIVACNOR4194
012021032302CRIV4       010ALFA FINANC PN           R$  000000000062900000000006290000000000629000000000062900000000006290000000000627000000000064000001000000000000000100000000000000062900000000000000009999123100000010000000000000BRCRIVACNPR1205
012021032302CRPG5       010CRISTAL     PNA          R$  000000000567300000000056970000000005562000000000564100000000056970000000005600000000000569900050000000000000006500000000000036670800000000000000009999123100000010000000000000BRCRPGACNPA3109
012021032302CRPG6       010CRISTAL     PNB          R$  000000000566800000000056990000000005668000000000568900000000056960000000005501000000000569800004000000000000000400000000000002275900000000000000009999123100000010000000000000BRCRPGACNPB1109
012021032302CSAN3       010COSAN       ON      NM   R$  000000000918000000000093520000000009111000000000923200000000092180000000009214000000000921811105000000000001794000000000016563537300000000000000009999123100000010000000000000BRCSANACNOR6120
012021032302CSCO34      010CISCO       DRN          R$  000000000552100000000055810000000005490000000000553200000000055210000000005375000000000555900030000000000000010828000000000059903787000000000000009999123100000010000000000000BRCSCOBDR004141
012021032302CSED3       010CRUZEIRO EDUON      NM   R$  000000000120200000000012400000000001158000000000119600000000012000000000001185000000000120102886000000000000705300000000000843634300000000000000009999123100000010000000000000BRCSEDACNOR9100
012021032302CSMG3       010COPASA      ON      NM   R$  000000000150600000000015580000000001500000000000153100000000015260000000001525000000000152612707000000000003422600000000005242209800000000000000009999123100000010000000000000BRCSMGACNOR5160
012021032302CSNA3       010SID NACIONALON           R$  000000000351700000000035420000000003321000000000342300000000033500000000003348000000000335034056000000000013755900000000047089783500000000000000009999123100000010000000000000BRCSNAACNOR6252
012021032302CSRN3       010COSERN      ON           R$  000000000155100000000015510000000001551000000000155100000000015510000000001505000000000155000002000000000000000400000000000000620400000000000000009999123100000010000000000000BRCSRNACNOR0173
012021032302CTGP34      010CITIGROUP   DRN          R$  000000000660000000000066060000000006495000000000652600000000065240000000006485000000000705100199000000000000038416000000000250703629000000000000009999123100000010000000000000BRCTGPBDR000141
012021032302CTKA4       010KARSTEN     PN           R$  000000000198600000000019860000000001801000000000189000000000018800000000001811000000000193700018000000000000002300000000000004347000000000000000009999123100000010000000000000BRCTKAACNPR7043
012021032302CTNM3       010COTEMINAS   ON           R$  000000000115000000000011700000000001150000000000115600000000011700000000001093000000000117000007000000000000000700000000000000809400000000000000009999123100000010000000000000BRCTNMACNOR9130
012021032302CTNM4       010COTEMINAS   PN           R$  000000000053500000000005480000000000521000000000053200000000005370000000000530000000000053700035000000000000010800000000000005750400000000000000009999123100000010000000000000BRCTNMACNPR6129
012021032302CTSA3       010SANTANENSE  ON           R$  000000000026400000000002900000000000262000000000027200000000002650000000000264000000000026500201000000000000100500000000000027342800000000000000009999123100000010000000000000BRCTSAACNOR3060
012021032302CTSA4       010SANTANENSE  PN           R$  000000000019400000000001970000000000188000000000019100000000001880000000000188000000000019400067000000000000029000000000000005560900000000000000009999123100000010000000000000BRCTSAACNPR0060
012021032302CTSH34      010COGNIZANT   DRN          R$  000000004229700000000422970000000042297000000004229700000000422970000000000000000000000000000001000000000000000004000000000000169188000000000000009999123100000010000000000000BRCTSHBDR002116
012021032302CURY3       010CURY S/A    ON      NM   R$  000000000093500000000009540000000000916000000000093600000000009350000000000935000000000093804609000000000001044100000000000977531000000000000000009999123100000010000000000000BRCURYACNOR3100
012021032302CVCB3       010CVC BRASIL  ON      NM   R$  000000000181100000000019640000000001800000000000190500000000019360000000001934000000000193623933000000000013366300000000025467237500000000000000009999123100000010000000000000BRCVCBACNOR1113
012021032302CVSH34      010CVS HEALTH  DRN          R$  000000002000000000000200160000000019881000000001999300000000199370000000019200000000002262900009000000000000001126000000000022513079000000000000009999123100000010000000000000BRCVSHBDR008119
012021032302CYRE3       010CYRELA REALTON      NM   R$  000000000248500000000025420000000002438000000000249300000000024640000000002464000000000247717973000000000005229400000000013039789500000000000000009999123100000010000000000000BRCYREACNOR7135
012021032302D1DG34      010DATADOG INC DRN          R$  000000000457500000000047580000000004575000000000472100000000047580000000004108000000000475800002000000000000000005000000000000023607000000000000009999123100000010000000000000BRD1DGBDR001100
012021032302D1EL34      010DELL TECHNOLDRN          R$  000000004800000000000480000000000046740000000004703500000000469500000000000000000000005300000006000000000000000135000000000006349740000000000000009999123100000010000000000000BRD1ELBDR009100
012021032302D1EX34      010DEXCOM INC  DRN          R$  000000000402000000000040200000000004020000000000402000000000040200000000003600000000000583800002000000000000000536000000000002154720000000000000009999123100000010000000000000BRD1EXBDR004100
012021032302D1FS34      010DISCOVER FINDRN          R$  000000002502000000000250200000000025020000000002502000000000250200000000020000000000000000000001000000000000000001000000000000025020000000000000009999123100000010000000000000BRD1FSBDR001105
012021032302D1HI34      010DR HORTON INDRN          R$  000000004640000000000464000000000046167000000004620000000000461670000000000000000000005000000002000000000000000007000000000000323402000000000000009999123100000010000000000000BRD1HIBDR008105
012021032302D1IS34      010DISH NETWORKDRN          R$  000000002005000000000200500000000020050000000002005000000000200500000000000000000000000000000001000000000000000060000000000001203000000000000000009999123100000010000000000000BRD1ISBDR005100
012021032302D1LR34      010DIGITAL REALDRN ED       R$  000000001930000000000193000000000019300000000001930000000000193000000000000000000000002141300001000000000000000001000000000000019300000000000000009999123100000010000000000000BRD1LRBDR001105
012021032302D1OC34      010DOCUSIGN INCDRN          R$  000000000569300000000057550000000005670000000000573600000000057450000000005714000000000574500039000000000000002748000000000015763444000000000000009999123100000010000000000000BRD1OCBDR007100
012021032302D1OW34      010DOW INC     DRN          R$  000000000835000000000083500000000008350000000000835000000000083500000000007888000000000000000001000000000000000001000000000000008350000000000000009999123100000010000000000000BRD1OWBDR005102
012021032302D1RI34      010DARDEN RESTADRN          R$  000000001890000000000189000000000018900000000001890000000000189000000000000000000000000000000001000000000000000003000000000000056700000000000000009999123100000010000000000000BRD1RIBDR007102
012021032302DASA3       010DASA        ON           R$  000000001510000000000155000000000015100000000001533300000000154000000000014602000000001574000003000000000000000300000000000004600000000000000000009999123100000010000000000000BRDASAACNOR1120
012021032302DCVY34      010DISCOVERY INDRN A        R$  000000003870000000000391260000000038700000000003885900000000391260000000038792000000004133600004000000000000000080000000000003108780000000000000009999123100000010000000000000BRDCVYBDR005100
012021032302DCVY35      010DISCOVERY INDRN C        R$  000000003435900000000346710000000034359000000003465900000000346710000000000000000000000000000002000000000000000052000000000001802268000000000000009999123100000010000000000000BRDCVYBDR013100
012021032302DEAI34      010DELTA       DRN          R$  000000002550000000000256590000000025157000000002554300000000253000000000025100000000002545000006000000000000000418000000000010677050000000000000009999123100000010000000000000BRDEAIBDR008116
012021032302DEEC34      010DEERE CO    DRN          R$  000000010070000000001007000000000098300000000009899000000000990000000000097900000000010100000034000000000000004185000000000414275688000000000000009999123100000010000000000000BRDEECBDR003107
012021032302DEOP34      010DIAGEO PL   DRN          R$  000000009200000000000920000000000091351000000009157300000000913510000000000000000000000000000005000000000000000015000000000001373606000000000000009999123100000010000000000000BRDEOPBDR004103
012021032302DGCO34      010DOLLAR GENERDRN          R$  000000005395000000000545960000000053950000000005456500000000545960000000000000000000005470000003000000000000000107000000000005838542000000000000009999123100000010000000000000BRDGCOBDR007107
012021032302DIRR3       010DIRECIONAL  ON      NM   R$  000000000125400000000012670000000001232000000000124700000000012390000000001239000000000124003854000000000001176600000000001467335300000000000000009999123100000010000000000000BRDIRRACNOR0113
012021032302DISB34      010WALT DISNEY DRN          R$  000000000705000000000071000000000006912000000000696600000000069300000000006926000000000693001799000000000000138624000000000965672723000000000000009999123100000010000000000000BRDISBBDR006115
012021032302DMMO3       010DOMMO       ON           R$  000000000008800000000000900000000000087000000000008800000000000880000000000087000000000008801456000000000005595500000000000493257100000000000000009999123100000010000000000000BRDMMOACNOR0103
012021032302DMVF3       010D1000VFARMA ON      NM   R$  000000000092800000000009370000000000912000000000092500000000009330000000000922000000000093500719000000000000328300000000000303726900000000000000009999123100000010000000000000BRDMVFACNOR9100
012021032302DOHL3       010DOHLER      ON           R$  000000000280000000000028000000000002800000000000280000000000028000000000002815000000000336000001000000000000000100000000000000280000000000000000009999123100000010000000000000BRDOHLACNOR2059
012021032302DOHL4       010DOHLER      PN           R$  000000000053000000000005300000000000522000000000052400000000005280000000000528000000000053400020000000000000006200000000000003254300000000000000009999123100000010000000000000BRDOHLACNPR9062
012021032302DTEX3       010DURATEX     ON      NM   R$  000000000197500000000019960000000001934000000000196000000000019340000000001934000000000193909499000000000003027800000000005936396700000000000000009999123100000010000000000000BRDTEXACNOR3130
012021032302DVAI34      010DAVITA INC  DRN          R$  000000005925000000000592500000000059250000000005925000000000592500000000000000000000000000000001000000000000000001000000000000059250000000000000009999123100000010000000000000BRDVAIBDR002100
012021032302E1CL34      010ECOLAB INC  DRN ED       R$  000000002873900000000287390000000028739000000002873900000000287390000000000000000000000000000001000000000000000001000000000000028739000000000000009999123100000010000000000000BRE1CLBDR002105
012021032302E1CO34      010ECOPETROL SADRN          R$  000000000358000000000035800000000003567000000000356800000000035670000000000000000000000452000003000000000000000035000000000000124910000000000000009999123100000010000000000000BRE1COBDR006100
012021032302E1DU34      010NEW ORIENTALDRN EB       R$  000000000058900000000005890000000000585000000000058700000000005850000000000507000000000000000004000000000000000060000000000000035240000000000000009999123100000010000000000000BRE1DUBDR001101
012021032302E1MN34      010EASTMAN CHEMDRN ED       R$  000000003049000000000304900000000029900000000003015600000000299000000000000000000000003350000003000000000000000005000000000000150780000000000000009999123100000010000000000000BRE1MNBDR007105
012021032302E1NI34      010ENEL AMERICADRN          R$  000000000455000000000045500000000004502000000000454000000000045340000000004100000000000470000012000000000000000284000000000001289466000000000000009999123100000010000000000000BRE1NIBDR005101
012021032302E1OG34      010EOG RESOURCEDRN          R$  000000001953000000000195500000000019491000000001952800000000195500000000018000000000002030000004000000000000000011000000000000214816000000000000009999123100000010000000000000BRE1OGBDR007105
012021032302E1QN34      010EQUINOR ASA DRN          R$  000000000522500000000052250000000005210000000000522200000000052100000000005185000000000000000003000000000000000061000000000000318570000000000000009999123100000010000000000000BRE1QNBDR008102
012021032302E1QR34      010EQUITY RESIDDRN          R$  000000001979000000000197900000000019790000000001979000000000197900000000015000000000000000000001000000000000000001000000000000019790000000000000009999123100000010000000000000BRE1QRBDR009103
012021032302E1RI34      010ERICSSON LM DRN          R$  000000000375000000000037680000000003732000000000375000000000037320000000003508000000000376800003000000000000000508000000000001905108000000000000009999123100000010000000000000BRE1RIBDR006100
012021032302E1SS34      010ESSEX PROPERDRN          R$  000000001506800000000150700000000015050000000001506700000000150700000000014950000000000000000003000000000000000333000000000005017628000000000000009999123100000010000000000000BRE1SSBDR003104
012021032302E1TN34      010EATON CORP PDRN ED       R$  000000003680700000000368070000000036807000000003680700000000368070000000000000000000000000000001000000000000000024000000000000883368000000000000009999123100000010000000000000BRE1TNBDR002105
012021032302E1XC34      010EXELON CORP DRN          R$  000000002375700000000237570000000023757000000002375700000000237570000000000000000000000000000001000000000000000006000000000000142542000000000000009999123100000010000000000000BRE1XCBDR007105
012021032302EAIN34      010ELECTR ARTS DRN          R$  000000003621000000000367200000000036210000000003656100000000364000000000036400000000003717000015000000000000000467000000000017074430000000000000009999123100000010000000000000BREAINBDR007102
012021032302EALT3       010ACO ALTONA  ON           R$  000000000156300000000015840000000001563000000000157300000000015840000000001583000000000162600002000000000000000200000000000000314700000000000000009999123100000010000000000000BREALTACNOR4133
012021032302EALT4       010ACO ALTONA  PN           R$  000000000049400000000005010000000000491000000000049600000000004980000000000493000000000049800032000000000000018700000000000009284400000000000000009999123100000010000000000000BREALTACNPR1133
012021032302EBAY34      010EBAY        DRN          R$  000000001667800000000166780000000016589000000001667100000000165890000000016450000000001696900007000000000000000807000000000013453942000000000000009999123100000010000000000000BREBAYBDR009110
012021032302ECOR3       010ECORODOVIAS ON      NM   R$  000000000116100000000011620000000001122000000000113400000000011260000000001126000000000112810448000000000003147800000000003571894400000000000000009999123100000010000000000000BRECORACNOR8116
012021032302EGIE3       010ENGIE BRASILON      NM   R$  000000000415100000000042070000000004136000000000416700000000041550000000004155000000000415906778000000000001271400000000005298896500000000000000009999123100000010000000000000BREGIEACNOR9114
012021032302ELCI34      010ESTEE LAUDERDRN          R$  000000007769700000000776970000000077697000000007769700000000776970000000000000000000008410000001000000000000000700000000000054387900000000000000009999123100000010000000000000BRELCIBDR007106
012021032302ELET3       010ELETROBRAS  ON      N1   R$  000000000323000000000033350000000003219000000000328200000000033000000000003299000000000330012913000000000003802600000000012481098300000000000000009999123100000010000000000000BRELETACNOR6156
012021032302ELET5       010ELETROBRAS  PNA     N1   R$  000000000728900000000072890000000007289000000000728900000000072890000000000000000000000728900001000000000000000100000000000000728900000000000000009999123100000010000000000000BRELETACNPA9073
012021032302ELET6       010ELETROBRAS  PNB     N1   R$  000000000331500000000034080000000003289000000000336300000000033890000000003387000000000338909780000000000001862800000000006266010400000000000000009999123100000010000000000000BRELETACNPB7073
012021032302ELMD3       010ELETROMIDIA ON      NM   R$  000000000154000000000015400000000001490000000000149800000000014900000000001485000000000149400444000000000000175000000000000262274000000000000000009999123100000010000000000000BRELMDACNOR3100
012021032302EMAE4       010EMAE        PN           R$  000000000614600000000062380000000005894000000000606800000000061300000000006005000000000613000034000000000000003700000000000022452400000000000000009999123100000010000000000000BREMAEACNPR1116
012021032302EMBR3       010EMBRAER     ON  ATZ NM   R$  000000000134300000000014250000000001324000000000137000000000013350000000001335000000000133635871000000000020498200000000028085251700000000000000009999123100000010000000000000BREMBRACNOR4190
012021032302ENAT3       010ENAUTA PART ON      NM   R$  000000000154800000000015480000000001489000000000151800000000015020000000001501000000000150206215000000000002092400000000003177087800000000000000009999123100000010000000000000BRENATACNOR0101
012021032302ENBR3       010ENERGIAS BR ON      NM   R$  000000000194500000000019650000000001927000000000194600000000019300000000001929000000000193010008000000000002766700000000005386473200000000000000009999123100000010000000000000BRENBRACNOR2130
012021032302ENEV3       010ENEVA       ON  EB  NM   R$  000000000163800000000016740000000001620000000000164800000000016440000000001643000000000164412307000000000002446900000000004034540900000000000000009999123100000010000000000000BRENEVACNOR8105
012021032302ENGI3       010ENERGISA    ON  ED  N2   R$  000000000151100000000015470000000001483000000000150300000000014910000000001485000000000152500206000000000000025300000000000038037500000000000000009999123100000010000000000000BRENGIACNOR0139
012021032302ENGI4       010ENERGISA    PN  ED  N2   R$  000000000073200000000007320000000000714000000000072200000000007200000000000717000000000072000235000000000000064300000000000046444900000000000000009999123100000010000000000000BRENGIACNPR7135
012021032302ENGI11      010ENERGISA    UNT ED  N2   R$  000000000440000000000044490000000004344000000000439900000000043860000000004384000000000438607036000000000001209200000000005320405500000000000000009999123100000010000000000000BRENGICDAM16129
012021032302ENJU3       010ENJOEI      ON      NM   R$  000000000106700000000010960000000001057000000000107300000000010640000000001064000000000106901965000000000000681300000000000731367200000000000000009999123100000010000000000000BRENJUACNOR9100
012021032302ENMT3       010ENERGISA MT ON  ED       R$  000000000419500000000042000000000004195000000000419900000000042000000000000000000000000422000002000000000000000900000000000003779500000000000000009999123100000010000000000000BRENMTACNOR5112
012021032302ENMT4       010ENERGISA MT PN  ED       R$  000000000410000000000041900000000004100000000000416000000000041900000000003601000000000420000003000000000000000300000000000001248000000000000000009999123100000010000000000000BRENMTACNPR2116
012021032302EQIX34      010EQUINIX INC DRN          R$  000000000459400000000046780000000004590000000000462000000000046220000000004430000000000504500009000000000000000748000000000003456066000000000000009999123100000010000000000000BREQIXBDR002109
012021032302EQMA3B      010EQTLMARANHAOON      MB   R$  000000000429900000000046990000000004299000000000432800000000043010000000004251000000000429900011000000000000003100000000000013417700000000000000009999123100000010000000000000BREQMAACNOR8102
012021032302EQPA3       010EQTL PARA   ON           R$  000000000037300000000003970000000000370000000000038500000000003850000000000384000000000038800148000000000000038100000000000014694300000000000000009999123100000010000000000000BREQPAACNOR1102
012021032302EQPA5       010EQTL PARA   PNA          R$  000000000055000000000005500000000000550000000000055000000000005500000000000511000000000059000001000000000000000500000000000000275000000000000000009999123100000010000000000000BREQPAACNPA4102
012021032302EQPA7       010EQTL PARA   PNC          R$  000000000060900000000006090000000000542000000000056500000000005500000000000550000000000057300012000000000000003700000000000002092500000000000000009999123100000010000000000000BREQPAACNPC0102
012021032302EQTL3       010EQUATORIAL  ON      NM   R$  000000000216400000000022020000000002156000000000217200000000021570000000002156000000000216512934000000000003698200000000008033364000000000000000009999123100000010000000000000BREQTLACNOR0126
012021032302ESPA3       010ESPACOLASER ON      NM   R$  000000000168500000000017530000000001632000000000170900000000017020000000001702000000000170502647000000000001521900000000002602447200000000000000009999123100000010000000000000BRESPAACNOR7100
012021032302ESTR4       010ESTRELA     PN           R$  000000000262200000000026220000000002622000000000262200000000026220000000002610000000000295000001000000000000000100000000000000262200000000000000009999123100000010000000000000BRESTRACNPR0143
012021032302EUCA3       010EUCATEX     ON      N1   R$  000000000201100000000020110000000002011000000000201100000000020110000000002020000000000208900001000000000000000100000000000000201100000000000000009999123100000010000000000000BREUCAACNOR1152
012021032302EUCA4       010EUCATEX     PN      N1   R$  000000000075800000000007590000000000745000000000074900000000007530000000000746000000000075300110000000000000068100000000000051053800000000000000009999123100000010000000000000BREUCAACNPR8039
012021032302EVEN3       010EVEN        ON      NM   R$  000000000104900000000010620000000001022000000000104000000000010320000000001032000000000103406750000000000001559000000000001621967700000000000000009999123100000010000000000000BREVENACNOR8112
012021032302EXXO34      010EXXON MOBIL DRN          R$  000000000772700000000077370000000007516000000000765600000000076450000000007586000000000764500165000000000000011750000000000089963314000000000000009999123100000010000000000000BREXXOBDR006142
012021032302EZTC3       010EZTEC       ON      NM   R$  000000000323100000000032500000000003135000000000319900000000031920000000003189000000000319207884000000000001574200000000005035906700000000000000009999123100000010000000000000BREZTCACNOR0114
012021032302F1AN34      010DIAMONDBACK DRN          R$  000000002000000000000200000000000019800000000001987500000000198000000000019700000000002286700004000000000000000004000000000000079500000000000000009999123100000010000000000000BRF1ANBDR001105
012021032302F1LS34      010FLOWSERVE CODRN          R$  000000002085800000000208580000000020849000000002085300000000208490000000000000000000000000000002000000000000000002000000000000041707000000000000009999123100000010000000000000BRF1LSBDR007104
012021032302F1NI34      010FIDELITY NATDRN          R$  000000000488200000000048850000000004882000000000488200000000048850000000000000000000000000000002000000000000001906000000000009305710000000000000009999123100000010000000000000BRF1NIBDR004106
012021032302F1RI34      010FEDERAL REALDRN ED       R$  000000001389000000000138900000000013590000000001363100000000137400000000012800000000001635400004000000000000000252000000000003435130000000000000009999123100000010000000000000BRF1RIBDR005105
012021032302F1SL34      010FASTLY INC  DRN          R$  000000000388000000000039150000000003880000000000388000000000039020000000003500000000000580000003000000000000000506000000000001963477000000000000009999123100000010000000000000BRF1SLBDR007100
012021032302F1TN34      010FORTINET INCDRN          R$  000000004920000000000492000000000049200000000004920000000000492000000000000000000000000000000001000000000000000002000000000000098400000000000000009999123100000010000000000000BRF1TNBDR001100
012021032302FBOK34      010FACEBOOK    DRN          R$  000000000576400000000058490000000005673000000000578500000000056730000000005667000000000567300565000000000000069698000000000403240011000000000000009999123100000010000000000000BRFBOKBDR006101
012021032302FCXO34      010FREEPORT    DRN          R$  000000001900000000000190000000000017691000000001828300000000178200000000017720000000001800000054000000000000002584000000000047243465000000000000009999123100000010000000000000BRFCXOBDR007132
012021032302FDMO34      010FORD MOTORS DRN          R$  000000000702900000000070290000000006661000000000678100000000066700000000006670000000000674000052000000000000010495000000000071172739000000000000009999123100000010000000000000BRFDMOBDR008133
012021032302FDXB34      010FEDEX CORP  DRN          R$  000000014955000000001495500000000149550000000014955000000001495500000000140000000000016302700001000000000000000005000000000000747750000000000000009999123100000010000000000000BRFDXBBDR002130
012021032302FESA3       010FERBASA     ON      N1   R$  000000000342000000000034200000000003420000000000342000000000034200000000003315000000000360000002000000000000000200000000000000684000000000000000009999123100000010000000000000BRFESAACNOR8173
012021032302FESA4       010FERBASA     PN      N1   R$  000000000314900000000031490000000003010000000000306500000000030660000000003060000000000306601566000000000000341200000000001046094100000000000000009999123100000010000000000000BRFESAACNPR5069
012021032302FLRY3       010FLEURY      ON      NM   R$  000000000251100000000025710000000002499000000000254600000000025450000000002544000000000254507527000000000001045900000000002663841700000000000000009999123100000010000000000000BRFLRYACNOR5129
012021032302FLTC34      010FLEETCOR TECDRN          R$  000000003792000000000379200000000037920000000003792000000000379200000000000000000000000000000001000000000000000002000000000000075840000000000000009999123100000010000000000000BRFLTCBDR001100
012021032302FMSC34      010FRESENIUS   DRN          R$  000000002018000000000201800000000020180000000002018000000000201800000000018244000000000000000001000000000000000002000000000000040360000000000000009999123100000010000000000000BRFMSCBDR001101
012021032302FOXC34      010FOX CORP    DRN          R$  000000002310000000000231000000000023100000000002310000000000231000000000000000000000000000000001000000000000000048000000000001108800000000000000009999123100000010000000000000BRFOXCBDR007103
012021032302FRAS3       010FRAS-LE     ON      N1   R$  000000000118000000000012140000000001164000000000118200000000011850000000001177000000000118501172000000000000205000000000000242488500000000000000009999123100000010000000000000BRFRASACNOR0150
012021032302FSLR34      010FIRST SOLAR DRN          R$  000000002200000000000223000000000022000000000002210300000000223000000000021961000000002230000006000000000000000321000000000007095280000000000000009999123100000010000000000000BRFSLRBDR001100
012021032302G1DS34      010GDS HOLDINGSDRN          R$  000000000466600000000046660000000004666000000000466600000000046660000000003896000000000580000001000000000000000007000000000000032662000000000000009999123100000010000000000000BRG1DSBDR003100
012021032302G1FI34      010GOLD FIELDS DRN          R$  000000000260000000000026000000000002550000000000257500000000025640000000002236000000000261000004000000000000000045000000000000115884000000000000009999123100000010000000000000BRG1FIBDR009101
012021032302G1LP34      010GALAPAGOS NVDRN          R$  000000000223000000000022300000000002180000000000220500000000021800000000002000000000000260000002000000000000000002000000000000004410000000000000009999123100000010000000000000BRG1LPBDR002100
012021032302G1LW34      010CORNING INC DRN          R$  000000002195500000000219550000000021955000000002195500000000219550000000000000000000000000000001000000000000000006000000000000131730000000000000009999123100000010000000000000BRG1LWBDR008105
012021032302G1RM34      010GARMIN LTD  DRN ED       R$  000000003500000000000351980000000035000000000003500000000000350000000000000000000000000000000003000000000000000429000000000015015198000000000000009999123100000010000000000000BRG1RMBDR006105
012021032302G1SK34      010GLAXOSMITHKLDRN          R$  000000000397600000000039760000000003976000000000397600000000039760000000003950000000000450000002000000000000000176000000000000699776000000000000009999123100000010000000000000BRG1SKBDR008102
012021032302G1WW34      010WW GRAINGER DRN          R$  000000000543400000000054500000000005434000000000544300000000054500000000000000000000000933300002000000000000000010000000000000054436000000000000009999123100000010000000000000BRG1WWBDR005106
012021032302GDBR34      010GEN DYNAMICSDRN          R$  000000009650000000000965000000000096320000000009636500000000963200000000000000000000000000000002000000000000000004000000000000385460000000000000009999123100000010000000000000BRGDBRBDR002122
012021032302GEOO34      010GE          DRN          R$  000000000715400000000071610000000006949000000000701900000000070500000000006949000000000705000087000000000000012831000000000090062610000000000000009999123100000010000000000000BRGEOOBDR000143
012021032302GEPA3       010GER PARANAP ON           R$  000000000365000000000036500000000003650000000000365000000000036500000000003630000000000372000001000000000000000100000000000000365000000000000000009999123100000010000000000000BRGEPAACNOR2147
012021032302GEPA4       010GER PARANAP PN           R$  000000000364100000000036500000000003553000000000358800000000036000000000003525000000000361500014000000000000001500000000000005383100000000000000009999123100000010000000000000BRGEPAACNPR9154
012021032302GFSA3       010GAFISA      ON      NM   R$  000000000050100000000005170000000000489000000000050300000000004900000000000490000000000049104978000000000006948300000000003498083900000000000000009999123100000010000000000000BRGFSAACNOR3119
012021032302GGBR3       010GERDAU      ON  EJ  N1   R$  000000000226100000000022620000000002152000000000219500000000021860000000002166000000000218600795000000000000163500000000000358997600000000000000009999123100000010000000000000BRGGBRACNOR1176
012021032302GGBR4       010GERDAU      PN  EJ  N1   R$  000000000276500000000027940000000002633000000000269900000000026560000000002656000000000265735671000000000020984200000000056657086800000000000000009999123100000010000000000000BRGGBRACNPR8176
012021032302GILD34      010GILEAD      DRN ED       R$  000000001787400000000178800000000017837000000001787200000000178370000000016999000000001811500007000000000000001274000000000022769484000000000000009999123100000010000000000000BRGILDBDR000120
012021032302GMAT3       010GRUPO MATEUSON      NM   R$  000000000073300000000007560000000000732000000000074600000000007500000000000749000000000075006612000000000003464600000000002584873700000000000000009999123100000010000000000000BRGMATACNOR7100
012021032302GMCO34      010GENERAL MOT DRN          R$  000000000800100000000080010000000007682000000000778300000000077400000000007710000000000790000174000000000000029484000000000229496001000000000000009999123100000010000000000000BRGMCOBDR008116
012021032302GNDI3       010INTERMEDICA ON      NM   R$  000000000828500000000086430000000008285000000000853100000000085380000000008538000000000854018491000000000003031300000000025861052500000000000000009999123100000010000000000000BRGNDIACNOR2102
012021032302GOAU3       010GERDAU MET  ON  EJ  N1   R$  000000000108300000000010830000000001007000000000103700000000010230000000001023000000000104400175000000000000070900000000000073525100000000000000009999123100000010000000000000BRGOAUACNOR1253
012021032302GOAU4       010GERDAU MET  PN  EJ  N1   R$  000000000123400000000012490000000001180000000000121400000000011930000000001193000000000119413539000000000009913400000000012044457800000000000000009999123100000010000000000000BRGOAUACNPR8254
012021032302GOGL34      010ALPHABET    DRN A        R$  000000000750000000000075580000000007460000000000752000000000075450000000007500000000000754500804000000000000057243000000000430478689000000000000009999123100000010000000000000BRGOGLBDR001101
012021032302GOGL35      010ALPHABET    DRN C        R$  000000000754300000000075860000000007500000000000755500000000075860000000007500000000000800000016000000000000010481000000000079186134000000000000009999123100000010000000000000BRGOGLBDR019101
012021032302GOLL4       010GOL         PN      N2   R$  000000000202000000000021270000000001985000000000205000000000020300000000002030000000000203526530000000000013619400000000027926798700000000000000009999123100000010000000000000BRGOLLACNPR4125
012021032302GPCP3       010GPC PART    ON           R$  000000000230000000000023390000000002200000000000224700000000022000000000002200000000000221300995000000000000182000000000000408965200000000000000009999123100000010000000000000BRGPCPACNOR4111
012021032302GPCP4       010GPC PART    PN           R$  000000000274400000000027440000000002744000000000274400000000027440000000002300000000000273000001000000000000000200000000000000548800000000000000009999123100000010000000000000BRGPCPACNPR1103
012021032302GPIV33      010GP INVEST   DR3          R$  000000000047000000000005250000000000462000000000049500000000005160000000000510000000000051600883000000000000406839000000000201652361000000000000009999123100000010000000000000BRGPIVBDR003104
012021032302GPRO34      010GOPRO       DRN          R$  000000000725000000000073500000000006770000000000713700000000068450000000006800000000000711000026000000000000003300000000000023554255000000000000009999123100000010000000000000BRGPROBDR009100
012021032302GRND3       010GRENDENE    ON      NM   R$  000000000082200000000008250000000000804000000000081400000000008090000000000806000000000080902262000000000000806200000000000657001500000000000000009999123100000010000000000000BRGRNDACNOR3159
012021032302GSGI34      010GOLDMANSACHSDRN          R$  000000001865500000000186800000000018300000000001849600000000183000000000018214000000001900000043000000000000001995000000000036900719000000000000009999123100000010000000000000BRGSGIBDR008142
012021032302GSHP3       010GENERALSHOPPON      NM   R$  000000000460000000000046300000000004600000000000460700000000046300000000004601000000000468000003000000000000000400000000000001843000000000000000009999123100000010000000000000BRGSHPACNOR7102
012021032302GUAR3       010GUARARAPES  ON           R$  000000000143100000000014650000000001416000000000144100000000014380000000001438000000000144101774000000000000393900000000000567992200000000000000009999123100000010000000000000BRGUARACNOR4166
012021032302H1ES34      010HESS CORP   DRN ED       R$  000000001858000000000185800000000018580000000001858000000000185800000000000000000000002120000001000000000000000010000000000000185800000000000000009999123100000010000000000000BRH1ESBDR000105
012021032302H1FC34      010HOLLYFRONTIEDRN          R$  000000001917900000000192950000000019179000000001918100000000191790000000000000000000000000000004000000000000000104000000000001994848000000000000009999123100000010000000000000BRH1FCBDR001105
012021032302H1OG34      010HARLEY-DAVIDDRN          R$  000000001890000000000189000000000018760000000001887400000000187600000000000000000000002255500003000000000000000007000000000000132120000000000000009999123100000010000000000000BRH1OGBDR004105
012021032302H1OL34      010HOLOGIC INC DRN          R$  000000003990200000000400700000000039902000000003997700000000400700000000000000000000004500000004000000000000000006000000000000239862000000000000009999123100000010000000000000BRH1OLBDR004100
012021032302H1PE34      010HEWLETT PACKDRN          R$  000000000832000000000083200000000008132000000000813500000000081320000000000000000000000000000003000000000000000078000000000000634582000000000000009999123100000010000000000000BRH1PEBDR006105
012021032302H1RB34      010HER BLOCK INDRN ED       R$  000000001102500000000110280000000011000000000001101600000000110100000000000000000000000000000009000000000000000094000000000001035574000000000000009999123100000010000000000000BRH1RBBDR008105
012021032302H1SB34      010HSBC HOLDINGDRN          R$  000000000400000000000040240000000003982000000000401400000000040240000000003808000000000432400006000000000000004762000000000019117144000000000000009999123100000010000000000000BRH1SBBDR006101
012021032302H1ST34      010HOST HOTELS DRN          R$  000000000932200000000093220000000009322000000000932200000000093220000000000000000000000000000001000000000000000005000000000000046610000000000000009999123100000010000000000000BRH1STBDR008102
012021032302H1TH34      010HUAZHU GROUPDRN          R$  000000000766500000000076650000000007665000000000766500000000076650000000000000000000000000000001000000000000000004000000000000030660000000000000009999123100000010000000000000BRH1THBDR001100
012021032302H1ZN34      010HORIZON THERDRN          R$  000000000483000000000048300000000004800000000000482000000000048000000000000000000000000550000003000000000000000024000000000000115690000000000000009999123100000010000000000000BRH1ZNBDR006100
012021032302HAGA3       010HAGA S/A    ON           R$  000000000030800000000003080000000000300000000000030300000000003000000000000300000000000030400011000000000000001900000000000000576100000000000000009999123100000010000000000000BRHAGAACNOR7103
012021032302HAGA4       010HAGA S/A    PN           R$  000000000018600000000001920000000000186000000000018900000000001920000000000191000000000019200063000000000000065700000000000012446600000000000000009999123100000010000000000000BRHAGAACNPR4103
012021032302HALI34      010HALLIBURTON DRN          R$  000000001163000000000117000000000011630000000001163000000000117000000000011330000000001425000002000000000000000101000000000001174700000000000000009999123100000010000000000000BRHALIBDR004137
012021032302HAPV3       010HAPVIDA     ON      NM   R$  000000000150300000000015480000000001490000000000153100000000015260000000001526000000000153040010000000000011905200000000018231311300000000000000009999123100000010000000000000BRHAPVACNOR4108
012021032302HBOR3       010HELBOR      ON      NM   R$  000000000088000000000009030000000000861000000000088100000000008750000000000873000000000087503905000000000001353300000000001193140700000000000000009999123100000010000000000000BRHBORACNOR3114
012021032302HBRE3       010HBR REALTY  ON      NM   R$  000000000158000000000016490000000001571000000000162000000000016490000000001590000000000164900083000000000000051000000000000082659400000000000000009999123100000010000000000000BRHBREACNOR4100
012021032302HBSA3       010HIDROVIAS   ON      NM   R$  000000000057800000000005910000000000566000000000057800000000005710000000000570000000000057104364000000000002149000000000001242155000000000000000009999123100000010000000000000BRHBSAACNOR0100
012021032302HETA4       010HERCULES    PN           R$  000000000090500000000009290000000000890000000000091100000000009060000000000893000000000092800011000000000000001700000000000001549300000000000000009999123100000010000000000000BRHETAACNPR9136
012021032302HGTX3       010CIA HERING  ON      NM   R$  000000000156600000000016350000000001560000000000159900000000015850000000001585000000000158611472000000000003911100000000006254647700000000000000009999123100000010000000000000BRHGTXACNOR9152
012021032302HOME34      010HOME DEPOT  DRN          R$  000000000571000000000057590000000005664000000000571400000000057340000000005652000000000576500087000000000000054959000000000314088465000000000000009999123100000010000000000000BRHOMEBDR002137
012021032302HONB34      010HONEYWELL   DRN          R$  000000011465000000001153970000000114600000000011508100000001153970000000000000000000000000000009000000000000001305000000000150181600000000000000009999123100000010000000000000BRHONBBDR006129
012021032302HOND34      010HONDA MO    DRN          R$  000000001668800000000167150000000016440000000001664800000000164400000000000000000000001720000010000000000000000064000000000001065529000000000000009999123100000010000000000000BRHONDBDR002105
012021032302HPQB34      010HP COMPANY  DRN          R$  000000001669000000000166900000000016357000000001636900000000163570000000000000000000000000000003000000000000000045000000000000736631000000000000009999123100000010000000000000BRHPQBBDR006135
012021032302HYPE3       010HYPERA      ON      NM   R$  000000000327500000000033110000000003240000000000326900000000032670000000003267000000000326812601000000000001892400000000006187126600000000000000009999123100000010000000000000BRHYPEACNOR0124
