00COTAHIST.2021BOVESPA 20210326                                                                                                                                                                                                                      
012021032602A1AP34      010ADVANCE AUTODRN ED       R$  000000000661000000000067170000000006600000000000671600000000066950000000006645000000000000000011000000000000011045000000000074178805000000000000009999123100000010000000000000BRA1APBDR001106
012021032602A1BB34      010ABB LTD     DRN          R$  000000000441800000000045250000000004418000000000447800000000045250000000004461000000000000000003000000000000000012000000000000053744000000000000009999123100000010000000000000BRA1BBBDR009100
012021032602A1CR34      010AMCOR PLC   DRN          R$  000000000656500000000066850000000006565000000000662500000000066850000000006610000000000000000002000000000000000002000000000000013250000000000000009999123100000010000000000000BRA1CRBDR003102
012021032602A1DI34      010ANALOG DEVICDRN          R$  000000004353000000000435300000000043530000000004353000000000435300000000000000000000000000000001000000000000000004000000000000174120000000000000009999123100000010000000000000BRA1DIBDR000105
012021032602A1EE34      010AMEREN CORP DRN          R$  000000002292100000000229210000000022920000000002292000000000229200000000019000000000000000000002000000000000000002000000000000045841000000000000009999123100000010000000000000BRA1EEBDR007105
012021032602A1EG34      010AEGON NV    DRN          R$  000000000264600000000026960000000002646000000000268100000000026860000000002684000000000269600010000000000000000021000000000000056320000000000000009999123100000010000000000000BRA1EGBDR002100
012021032602A1FL34      010AFLAC INC   DRN          R$  000000002948000000000294800000000029480000000002948000000000294800000000029280000000000000000001000000000000000003000000000000088440000000000000009999123100000010000000000000BRA1FLBDR009105
012021032602A1GI34      010AGILENT TECHDRN          R$  000000003500000000000356100000000035000000000003548400000000356100000000000000000000000000000004000000000000000037000000000001312920000000000000009999123100000010000000000000BRA1GIBDR003104
012021032602A1IV34      010APARTMENT INDRN          R$  000000000331800000000034280000000003318000000000339300000000033740000000003285000000000364300022000000000000000307000000000001041734000000000000009999123100000010000000000000BRA1IVBDR002106
012021032602A1KA34      010AKAMAI TECHNDRN          R$  000000000466400000000048860000000004664000000000488100000000048540000000004754000000000500000014000000000000013693000000000066846259000000000000009999123100000010000000000000BRA1KABDR002101
012021032602A1LG34      010ALIGN TECHNODRN          R$  000000007539000000000753900000000075390000000007539000000000753900000000000000000000000000000001000000000000000001000000000000075390000000000000009999123100000010000000000000BRA1LGBDR007100
012021032602A1LN34      010ALNYLAM PHARDRN          R$  000000000380200000000038700000000003802000000000382400000000038700000000003410000000000000000002000000000000000003000000000000011474000000000000009999123100000010000000000000BRA1LNBDR003100
012021032602A1MD34      010ADVANCED MICDRN          R$  000000004363400000000441000000000043570000000004358000000000439210000000042985000000004440000016000000000000000746000000000032511202000000000000009999123100000010000000000000BRA1MDBDR002100
012021032602A1MP34      010AMERIPRISE FDRN          R$  000000003288900000000331000000000032889000000003299400000000331000000000032700000000000000000002000000000000000006000000000000197967000000000000009999123100000010000000000000BRA1MPBDR006105
012021032602A1MT34      010APPLIED MATEDRN          R$  000000007210000000000733000000000072100000000007294500000000733000000000068000000000007380000004000000000000000405000000000029542900000000000000009999123100000010000000000000BRA1MTBDR008105
012021032602A1MX34      010AMERICAMOVILDRN          R$  000000000388800000000039360000000003888000000000392100000000039000000000000000000000000404800007000000000000000044000000000000172552000000000000009999123100000010000000000000BRA1MXBDR000101
012021032602A1ON34      010AON PLC     DRN          R$  000000003222000000000322200000000032100000000003216800000000321000000000000000000000000000000004000000000000000006000000000000193010000000000000009999123100000010000000000000BRA1ONBDR007105
012021032602A1RE34      010ALEXANDRIA RDRN          R$  000000002412000000000244080000000024120000000002413500000000244080000000000000000000000000000003000000000000000019000000000000458568000000000000009999123100000010000000000000BRA1REBDR009104
012021032602A1RG34      010ARGENX SE   DRN          R$  000000000658000000000065800000000006525000000000655200000000065250000000000000000000000830000002000000000000000002000000000000013105000000000000009999123100000010000000000000BRA1RGBDR004100
012021032602A1SN34      010ASCENDIS PHADRN          R$  000000000499600000000049960000000004926000000000492900000000049260000000000000000000000630000002000000000000000023000000000000113368000000000000009999123100000010000000000000BRA1SNBDR008100
012021032602A1TH34      010AUTOHOME INCDRN          R$  000000000545000000000054500000000005300000000000539800000000053000000000005250000000000000000003000000000000000003000000000000016195000000000000009999123100000010000000000000BRA1THBDR008101
012021032602A1UA34      010ANGLOGOLD ASDRN          R$  000000000286000000000030480000000002860000000000300400000000030160000000003006000000000303000013000000000000001432000000000004302562000000000000009999123100000010000000000000BRA1UABDR001101
012021032602A1UT34      010AUTODESK INCDRN          R$  000000003729000000000384300000000037290000000003790900000000384300000000035118000000000000000008000000000000000695000000000026347440000000000000009999123100000010000000000000BRA1UTBDR001100
012021032602A1VB34      010AVALONBAY CODRN          R$  000000002730300000000273030000000027303000000002730300000000273030000000019906000000002800000001000000000000000001000000000000027303000000000000009999123100000010000000000000BRA1VBBDR007104
012021032602A1WK34      010AMERICAN WATDRN          R$  000000002029000000000202900000000020290000000002029000000000202900000000020520000000002400000001000000000000000005000000000000101450000000000000009999123100000010000000000000BRA1WKBDR006105
012021032602A1YX34      010ALTERYX INC DRN          R$  000000000235000000000023500000000002340000000000234500000000023400000000002334000000000265000005000000000000000006000000000000014074000000000000009999123100000010000000000000BRA1YXBDR005100
012021032602A1ZN34      010ASTRAZENECA DRN          R$  000000000475000000000048370000000004695000000000478100000000048370000000004758000000000483700450000000000000021681000000000103674847000000000000009999123100000010000000000000BRA1ZNBDR003101
012021032602AALL34      010AMERICAN AIRDRN          R$  000000001300000000000133620000000012877000000001310600000000129650000000011800000000001320000063000000000000002071000000000027142603000000000000009999123100000010000000000000BRAALLBDR003115
012021032602AALR3       010ALLIAR      ON      NM   R$  000000000089000000000008960000000000869000000000088400000000008890000000000884000000000088901692000000000000505500000000000447183700000000000000009999123100000010000000000000BRAALRACNOR6102
012021032602AAPL34      010APPLE       DRN          R$  000000000688000000000069300000000006821000000000688300000000069300000000006925000000000693001199000000000000192324000000001323867475000000000000009999123100000010000000000000BRAAPLBDR004137
012021032602ABBV34      010ABBVIE      DRN          R$  000000005950000000000598000000000059300000000005952500000000598000000000059800000000006200000004000000000000000004000000000000238101000000000000009999123100000010000000000000BRABBVBDR001120
012021032602ABCB4       010ABC BRASIL  PN      N2   R$  000000000145800000000014690000000001438000000000145300000000014630000000001459000000000146402612000000000000486300000000000707008900000000000000009999123100000010000000000000BRABCBACNPR4135
012021032602ABEV3       010AMBEV S/A   ON           R$  000000000150100000000015330000000001499000000000151700000000015150000000001515000000000151919328000000000016410500000000024909603400000000000000009999123100000010000000000000BRABEVACNOR1124
012021032602ABTT34      010ABBOTT      DRN          R$  000000001707800000000174690000000017078000000001738900000000174690000000016900000000001850000006000000000000000406000000000007059963000000000000009999123100000010000000000000BRABTTBDR007137
012021032602ABUD34      010AB INBEV    DRN          R$  000000000589000000000060700000000005890000000000605700000000060700000000005000000000000630000007000000000000006538000000000039603873000000000000009999123100000010000000000000BRABUDBDR009103
012021032602ACNB34      010ACCENTURE   DRN          R$  000000016025100000001602510000000160251000000016025100000001602510000000149200000000000000000001000000000000000010000000000001602510000000000000009999123100000010000000000000BRACNBBDR006114
012021032602ADBE34      010ADOBE INC   DRN          R$  000000000515000000000053400000000005140000000000523600000000053400000000005065000000000534000155000000000000050705000000000265505918000000000000009999123100000010000000000000BRADBEBDR003101
012021032602AERI3       010AERIS       ON      NM   R$  000000000093100000000009370000000000892000000000091200000000009100000000000909000000000091003633000000000001452800000000001325484600000000000000009999123100000010000000000000BRAERIACNOR4100
012021032602AFLT3       010AFLUENTE T  ON           R$  000000000090600000000009060000000000906000000000090600000000009060000000000905000000000091700002000000000000000200000000000000181200000000000000009999123100000010000000000000BRAFLTACNOR1116
012021032602AGRO3       010BRASILAGRO  ON      NM   R$  000000000219100000000022200000000002180000000000219800000000021910000000002191000000000220502388000000000000437700000000000962398700000000000000009999123100000010000000000000BRAGROACNOR7110
012021032602AIRB34      010AIRBNB      DRN          R$  000000000501700000000051880000000004850000000000500900000000049860000000005000000000000503100198000000000000019078000000000095580100000000000000009999123100000010000000000000BRAIRBBDR004100
012021032602ALPA3       010ALPARGATAS  ON      N1   R$  000000000317900000000032810000000003150000000000320700000000032310000000003230000000000328100020000000000000002800000000000008980000000000000000009999123100000010000000000000BRALPAACNOR0229
012021032602ALPA4       010ALPARGATAS  PN      N1   R$  000000000362500000000037030000000003581000000000364000000000036690000000003669000000000367404701000000000001118600000000004071968400000000000000009999123100000010000000000000BRALPAACNPR7229
012021032602ALPK3       010ESTAPAR     ON      NM   R$  000000000079800000000008000000000000775000000000079500000000007910000000000791000000000080000053000000000000019600000000000015593200000000000000009999123100000010000000000000BRALPKACNOR9100
012021032602ALSO3       010ALIANSCSONAEON      NM   R$  000000000268000000000027040000000002628000000000266100000000026570000000002656000000000265703621000000000000728700000000001939248300000000000000009999123100000010000000000000BRALSOACNOR5100
012021032602ALUP3       010ALUPAR      ON      N2   R$  000000000086000000000008740000000000850000000000086400000000008700000000000854000000000087000062000000000000009700000000000008383700000000000000009999123100000010000000000000BRALUPACNOR8111
012021032602ALUP4       010ALUPAR      PN      N2   R$  000000000082700000000008320000000000815000000000082000000000008260000000000819000000000082900086000000000000015100000000000012382400000000000000009999123100000010000000000000BRALUPACNPR5111
012021032602ALUP11      010ALUPAR      UNT     N2   R$  000000000250500000000025320000000002479000000000250900000000025300000000002512000000000253003988000000000000683700000000001715547500000000000000009999123100000010000000000000BRALUPCDAM15111
012021032602AMAR3       010LOJAS MARISAON      NM   R$  000000000054700000000005490000000000525000000000053400000000005300000000000530000000000053305252000000000003049800000000001631578800000000000000009999123100000010000000000000BRAMARACNOR4112
012021032602AMBP3       010AMBIPAR     ON      NM   R$  000000000247500000000024850000000002412000000000244500000000024410000000002441000000000245000529000000000000171900000000000420334400000000000000009999123100000010000000000000BRAMBPACNOR6100
012021032602AMGN34      010AMGEN       DRN          R$  000000000506000000000051580000000005060000000000515200000000051510000000005085000000000517400011000000000000024470000000000126074840000000000000009999123100000010000000000000BRAMGNBDR004138
012021032602AMZO34      010AMAZON      DRN          R$  000000001110300000000111240000000010991000000001104900000000111170000000011066000000001111701132000000000000077719000000000858779734000000000000009999123100000010000000000000BRAMZOBDR002102
012021032602ANIM3       010ANIMA       ON      NM   R$  000000000093600000000009620000000000897000000000091500000000009130000000000912000000000091306885000000000003245300000000002971519200000000000000009999123100000010000000000000BRANIMACNOR6107
012021032602APER3       010ALPER S.A.  ON      NM   R$  000000000530000000000053490000000005099000000000517800000000051410000000005140000000000525000378000000000000057700000000000298808100000000000000009999123100000010000000000000BRAPERACNOR9103
012021032602APTV34      010APTIV PLC   DRN          R$  000000003981000000000398780000000039810000000003985200000000398780000000000000000000000000000004000000000000001362000000000054279636000000000000009999123100000010000000000000BRAPTVBDR003102
012021032602ARMT34      010ARCELOR     DRN          R$  000000000740000000000081000000000007400000000000791400000000081000000000008100000000000826000048000000000000001716000000000013581783000000000000009999123100000010000000000000BRARMTBDR008117
012021032602ARZZ3       010AREZZO CO   ON      NM   R$  000000000699800000000071200000000006947000000000702800000000070500000000007050000000000705202782000000000000413900000000002909203100000000000000009999123100000010000000000000BRARZZACNOR3138
012021032602ASAI3       010ASSAI       ON      NM   R$  000000000713500000000074390000000007103000000000726200000000072700000000007269000000000727004005000000000000879300000000006386298400000000000000009999123100000010000000000000BRASAIACNOR0100
012021032602ASML34      010ASML HOLD   DRN          R$  000000034260100000003548990000000342601000000035198400000003513000000000000000000000035848000012000000000000000489000000000172120282000000000000009999123100000010000000000000BRASMLBDR003103
012021032602ATOM3       010ATOMPAR     ON           R$  000000000038400000000003850000000000371000000000037500000000003730000000000373000000000038000075000000000000023400000000000008787400000000000000009999123100000010000000000000BRATOMACNOR1103
012021032602ATTB34      010ATT INC     DRN          R$  000000000576000000000058400000000005726000000000580400000000058070000000005786000000000580700042000000000000005232000000000030366683000000000000009999123100000010000000000000BRATTBBDR007135
012021032602ATVI34      010ACTIVISION  DRN          R$  000000005165300000000530000000000051653000000005248400000000530000000000051700000000005300000070000000000000000757000000000039730430000000000000009999123100000010000000000000BRATVIBDR008101
012021032602AURA33      010AURA 360    DR3          R$  000000000671000000000069240000000006610000000000680400000000069000000000006900000000000690407532000000000000581964000000003960217246000000000000009999123100000010000000000000BRAURABDR001103
012021032602AVGO34      010BROADCOM INCDRN ED       R$  000000000746500000000078400000000007465000000000778600000000078400000000007008000000000790000011000000000000006061000000000047195035000000000000009999123100000010000000000000BRAVGOBDR003109
012021032602AVLL3       010ALPHAVILLE  ON      NM   R$  000000000226800000000023000000000002050000000000211200000000020570000000002050000000000205800161000000000000026800000000000056608800000000000000009999123100000010000000000000BRAVLLACNOR5101
012021032602AXPB34      010AMERICAN EXPDRN          R$  000000000809500000000081990000000008095000000000811600000000081990000000007200000000000880000009000000000000000347000000000002816470000000000000009999123100000010000000000000BRAXPBBDR007136
012021032602AZEV3       010AZEVEDO     ON           R$  000000000061800000000006780000000000605000000000063200000000006160000000000616000000000063200302000000000000111500000000000070473600000000000000009999123100000010000000000000BRAZEVACNOR0118
012021032602AZEV4       010AZEVEDO     PN           R$  000000000037300000000003840000000000362000000000037000000000003710000000000368000000000037100503000000000000288300000000000106853600000000000000009999123100000010000000000000BRAZEVACNPR7118
012021032602AZUL4       010AZUL        PN      N2   R$  000000000379400000000038160000000003653000000000372900000000037370000000003737000000000374118856000000000007331700000000027340616900000000000000009999123100000010000000000000BRAZULACNPR4100
012021032602B1AM34      010BROOKFIELD ADRN          R$  000000000647700000000064770000000006477000000000647700000000064770000000006000000000000000000001000000000000000015000000000000097155000000000000009999123100000010000000000000BRB1AMBDR007103
012021032602B1BT34      010TRUIST FINANDRN          R$  000000003294000000000329400000000032940000000003294000000000329400000000031400000000000000000001000000000000000007000000000000230580000000000000009999123100000010000000000000BRB1BTBDR000105
012021032602B1CS34      010BARCLAYS PLCDRN          R$  000000000575000000000057500000000005729000000000574200000000057350000000005650000000000000000005000000000000000409000000000002348853000000000000009999123100000010000000000000BRB1CSBDR000101
012021032602B1IL34      010BILIBILI INCDRN          R$  000000001093900000000115230000000010561000000001098500000000115230000000010551000000001152300042000000000000001780000000000019553441000000000000009999123100000010000000000000BRB1ILBDR002100
012021032602B1MR34      010BIOMARIN PHADRN          R$  000000002146700000000214670000000021467000000002146700000000214670000000000000000000002550000001000000000000000009000000000000193203000000000000009999123100000010000000000000BRB1MRBDR001100
012021032602B1NT34      010BIONTECH SE DRN          R$  000000000687000000000069550000000006759000000000682100000000068610000000006769000000000686000045000000000000008329000000000056817998000000000000009999123100000010000000000000BRB1NTBDR005100
012021032602B1PP34      010BP PLC      DRN          R$  000000000357500000000036260000000003568000000000359600000000036260000000003581000000000362700025000000000000001352000000000004862279000000000000009999123100000010000000000000BRB1PPBDR008102
012021032602B1SA34      010BANCO SANTANDRN          R$  000000000699000000000070600000000006949000000000700500000000070560000000006300000000000000000011000000000000000127000000000000889669000000000000009999123100000010000000000000BRB1SABDR004101
012021032602B1SX34      010BOSTON SCIENDRN          R$  000000002162000000000216200000000021620000000002162000000000216200000000021340000000000000000001000000000000000001000000000000021620000000000000009999123100000010000000000000BRB1SXBDR006100
012021032602B1TI34      010BRITISH AMERDRN ED       R$  000000000441000000000044580000000004410000000000444200000000044520000000004490000000000000000003000000000000000079000000000000350988000000000000009999123100000010000000000000BRB1TIBDR005102
012021032602B3SA3       010B3          ON  ED  NM   R$  000000000534500000000055240000000005338000000000543800000000054010000000005400000000000540132930000000000010735100000000058382564800000000000000009999123100000010000000000000BRB3SAACNOR6114
012021032602BAAX39      010MSCI ASIA JPDRN          R$  000000000523400000000053090000000005213000000000524600000000053090000000005260000000000531400013000000000000004459000000000023392014000000000000009999123100000010000000000000BRBAAXBDR009101
012021032602BABA34      010ALIBABAGR   DRN          R$  000000000452000000000046550000000004470000000000458700000000046500000000004602000000000465000706000000000000076990000000000353171437000000000000009999123100000010000000000000BRBABABDR005101
012021032602BACW39      010MSCI ACWI   DRN          R$  000000000536500000000054640000000005365000000000542700000000054630000000005529000000000561801241000000000000097246000000000527825570000000000000009999123100000010000000000000BRBACWBDR007101
012021032602BAER39      010US AEROSPACEDRN ED       R$  000000000290500000000029280000000002905000000000292100000000029280000000000000000000000341000005000000000000000172000000000000502421000000000000009999123100000010000000000000BRBAERBDR003103
012021032602BAHI3       010BAHEMA      ON      MA   R$  000000000730000000000073480000000006999000000000716900000000070500000000007050000000000734000010000000000000001000000000000007169200000000000000009999123100000010000000000000BRBAHIACNOR1072
012021032602BALM3       010BAUMER      ON           R$  000000000164200000000017200000000001642000000000166800000000016520000000001603000000000167000014000000000000001800000000000003003900000000000000009999123100000010000000000000BRBALMACNOR5050
012021032602BALM4       010BAUMER      PN           R$  000000000159900000000015990000000001403000000000145900000000014320000000001400000000000141500015000000000000002800000000000004086600000000000000009999123100000010000000000000BRBALMACNPR2051
012021032602BAZA3       010AMAZONIA    ON           R$  000000000399000000000040070000000003956000000000399100000000039600000000003960000000000406800016000000000000002400000000000009579500000000000000009999123100000010000000000000BRBAZAACNOR0174
012021032602BBAS3       010BRASIL      ON      NM   R$  000000000296000000000029920000000002921000000000296200000000029660000000002966000000000296728407000000000014529400000000043049247100000000000000009999123100000010000000000000BRBBASACNOR3297
012021032602BBDC3       010BRADESCO    ON      N1   R$  000000000230000000000023370000000002294000000000232000000000023260000000002326000000000232711087000000000004928200000000011435687700000000000000009999123100000010000000000000BRBBDCACNOR1723
012021032602BBDC4       010BRADESCO    PN      N1   R$  000000000265000000000027050000000002644000000000267500000000026800000000002680000000000268157376000000000040253200000000107687475800000000000000009999123100000010000000000000BRBBDCACNPR8723
012021032602BBRK3       010BR BROKERS  ON      NM   R$  000000000018200000000001860000000000181000000000018300000000001820000000000181000000000018200230000000000000136800000000000025153500000000000000009999123100000010000000000000BRBBRKACNOR4114
012021032602BBSE3       010BBSEGURIDADEON      NM   R$  000000000239000000000024220000000002372000000000239500000000023960000000002396000000000239813666000000000005279800000000012649622300000000000000009999123100000010000000000000BRBBSEACNOR5118
012021032602BBYY34      010BEST BUY    DRN ED       R$  000000006795000000000679500000000067950000000006795000000000679500000000063001000000006850000001000000000000000003000000000000203850000000000000009999123100000010000000000000BRBBYYBDR005116
012021032602BCHI39      010MSCI CHINA  DRN          R$  000000000570000000000058100000000005682000000000576900000000058100000000005713000000000585200023000000000000003682000000000021241661000000000000009999123100000010000000000000BRBCHIBDR001101
012021032602BCSA34      010SANTANDER   DRN          R$  000000000191700000000019800000000001917000000000196200000000019600000000001956000000000197600048000000000000000936000000000001836645000000000000009999123100000010000000000000BRBCSABDR005102
012021032602BDVY39      010SELECT DIVIDDRN ED       R$  000000000647000000000065510000000006465000000000650600000000065510000000006471000000000000000008000000000000001912000000000012440799000000000000009999123100000010000000000000BRBDVYBDR007102
012021032602BEEF3       010MINERVA     ON      NM   R$  000000000098000000000009940000000000970000000000098200000000009830000000000982000000000098309402000000000005137400000000005045129700000000000000009999123100000010000000000000BRBEEFACNOR6110
012021032602BEEM39      010MSCI EMGMARKDRN          R$  000000000497000000000050760000000004970000000000501100000000050760000000005051000000000520000011000000000000002681000000000013435634000000000000009999123100000010000000000000BRBEEMBDR006101
012021032602BEES3       010BANESTES    ON           R$  000000000049200000000004950000000000489000000000049200000000004890000000000489000000000049400104000000000000021000000000000010335300000000000000009999123100000010000000000000BRBEESACNOR9345
012021032602BEES4       010BANESTES    PN           R$  000000000058500000000005860000000000572000000000057400000000005740000000000573000000000058300015000000000000004500000000000002583300000000000000009999123100000010000000000000BRBEESACNPR6270
012021032602BEFA39      010MSCI EAFE   DRN          R$  000000000542500000000054890000000005410000000000546400000000054890000000005445000000000555000010000000000000001949000000000010650702000000000000009999123100000010000000000000BRBEFABDR008101
012021032602BEGD39      010TRTMSCI EAFEDRN          R$  000000000547900000000054790000000005479000000000547900000000054790000000000000000000000000000001000000000000000005000000000000027395000000000000009999123100000010000000000000BRBEGDBDR000101
012021032602BEGE39      010INC ESG AWARDRN          R$  000000000616200000000061800000000006162000000000616700000000061800000000000000000000000000000002000000000000000728000000000004489896000000000000009999123100000010000000000000BRBEGEBDR008101
012021032602BEGU39      010TRUSTMSCI USDRN ED       R$  000000000516800000000051860000000005157000000000517000000000051860000000004896000000000535500026000000000000120807000000000624580243000000000000009999123100000010000000000000BRBEGUBDR004102
012021032602BERK34      010BERKSHIRE   DRN          R$  000000000716000000000073420000000007160000000000725100000000073420000000007342000000000735000604000000000000066252000000000480452988000000000000009999123100000010000000000000BRBERKBDR002101
012021032602BEWG39      010MSCI GERMANYDRN          R$  000000000628500000000063570000000006284000000000634300000000063570000000005999000000000000000035000000000000047453000000000301017944000000000000009999123100000010000000000000BRBEWGBDR000101
012021032602BEWH39      010MSCIHONGKONGDRN          R$  000000000502000000000051180000000005020000000000511100000000051180000000000000000000000000000004000000000000000718000000000003670226000000000000009999123100000010000000000000BRBEWHBDR008101
012021032602BEWJ39      010MSCI JAPAN  DRN          R$  000000000494500000000050230000000004940000000000499600000000050230000000005005000000000506600014000000000000000953000000000004762070000000000000009999123100000010000000000000BRBEWJBDR004101
012021032602BEWP39      010MSCI SPAIN  DRN          R$  000000000517400000000051850000000005160000000000517900000000051850000000000000000000000000000004000000000000000050000000000000258950000000000000009999123100000010000000000000BRBEWPBDR001102
012021032602BEWT39      010MSCI TAIWAN DRN          R$  000000000565500000000056670000000005595000000000565300000000056670000000005608000000000000000013000000000000003753000000000021219435000000000000009999123100000010000000000000BRBEWTBDR003101
012021032602BEWU39      010MSCI UK     DRN          R$  000000000592100000000060290000000005921000000000600200000000060290000000005997000000000000000004000000000000000799000000000004795791000000000000009999123100000010000000000000BRBEWUBDR001101
012021032602BEWW39      010MSCI MEXICO DRN          R$  000000000625900000000062590000000006259000000000625900000000062590000000000000000000000000000001000000000000000100000000000000625900000000000000009999123100000010000000000000BRBEWWBDR007102
012021032602BEWY39      010MSCISOUTHKORDRN          R$  000000000624800000000063700000000006248000000000626400000000063700000000004750000000000000000002000000000000000029000000000000181680000000000000009999123100000010000000000000BRBEWYBDR003101
012021032602BEZU39      010MSCIEUROZONEDRN          R$  000000000663500000000066620000000006635000000000665900000000066620000000005604000000000000000002000000000000000629000000000004188751000000000000009999123100000010000000000000BRBEZUBDR004101
012021032602BGIP4       010BANESE      PN           R$  000000000225600000000022600000000002256000000000225800000000022600000000002239000000000226000002000000000000000200000000000000451600000000000000009999123100000010000000000000BRBGIPACNPR8200
012021032602BHPG34      010BHP GROUP   DRN          R$  000000003963000000000396300000000039630000000003963000000000396300000000000000000000004200000001000000000000000001000000000000039630000000000000009999123100000010000000000000BRBHPGBDR007103
012021032602BIAU39      010GOLD TRUST  DRN          R$  000000000468600000000047540000000004685000000000473800000000047470000000004645000000000480000034000000000000009747000000000046185785000000000000009999123100000010000000000000BRBIAUBDR008100
012021032602BIBB39      010NASDAQ BIOTCDRN ED       R$  000000000565000000000056830000000005603000000000565100000000056720000000005655000000000000000013000000000000010490000000000059288285000000000000009999123100000010000000000000BRBIBBBDR006102
012021032602BIDI3       010BANCO INTER ON  EJ  N2   R$  000000000514300000000053100000000005004000000000515600000000051300000000005100000000000513301707000000000000232000000000001196246000000000000000009999123100000010000000000000BRBIDIACNOR3108
012021032602BIDI4       010BANCO INTER PN  EJ  N2   R$  000000000516500000000053200000000004990000000000515600000000050980000000005080000000000509810863000000000002442600000000012594493600000000000000009999123100000010000000000000BRBIDIACNPR0112
012021032602BIDI11      010BANCO INTER UNT EJ  N2   R$  000000001553300000000159500000000014957000000001548000000000153000000000015295000000001530009051000000000001365500000000021137948700000000000000009999123100000010000000000000BRBIDICDAXX3107
012021032602BIDU34      010BAIDU INC   DRN          R$  000000011400300000001179000000000101100000000011057100000001150000000000115000000000011873800424000000000000012918000000001428364888000000000000009999123100000010000000000000BRBIDUBDR002100
012021032602BIEF39      010COREMSCIEAFEDRN          R$  000000000513600000000052250000000005136000000000517600000000052250000000005210000000000000000007000000000000000859000000000004447029000000000000009999123100000010000000000000BRBIEFBDR001101
012021032602BIEM39      010COREMSCI EMKDRN          R$  000000000599600000000061450000000005996000000000605200000000061450000000006118000000000614900014000000000000000989000000000005986311000000000000009999123100000010000000000000BRBIEMBDR007101
012021032602BIEU39      010COREMSCI EURDRN          R$  000000000510800000000051790000000005100000000000515700000000051790000000005090000000000534000017000000000000006456000000000033299387000000000000009999123100000010000000000000BRBIEUBDR000101
012021032602BIGF39      010GLOBAL INFRADRN          R$  000000000640000000000064000000000006400000000000640000000000064000000000006320000000000000000001000000000000000400000000000002560000000000000000009999123100000010000000000000BRBIGFBDR006101
012021032602BIIB34      010BIOGEN      DRN          R$  000000002600000000000264600000000026000000000002619800000000264600000000019500000000002650000003000000000000000206000000000005396920000000000000009999123100000010000000000000BRBIIBBDR001101
012021032602BIJH39      010CORE MIDCAP DRN ED       R$  000000000736500000000074740000000007365000000000745100000000074740000000007246000000000000000004000000000000000372000000000002771794000000000000009999123100000010000000000000BRBIJHBDR006102
012021032602BIJR39      010CORESMALLCAPDRN ED       R$  000000000770000000000077720000000007700000000000770700000000077310000000007585000000000796200004000000000000000502000000000003868922000000000000009999123100000010000000000000BRBIJRBDR005102
012021032602BILF39      010LATIN AMER40DRN          R$  000000000511700000000051170000000005117000000000511700000000051170000000000000000000000000000001000000000000000300000000000001535100000000000000009999123100000010000000000000BRBILFBDR006101
012021032602BIOM3       010BIOMM       ON      MA   R$  000000000163400000000016410000000001620000000000162500000000016260000000001626000000000163400066000000000000016400000000000026662100000000000000009999123100000010000000000000BRBIOMACNOR2108
012021032602BITO39      010CORE SP TOTADRN ED       R$  000000000508300000000052010000000005083000000000516900000000052000000000005200000000000000000006000000000000000036000000000000186115000000000000009999123100000010000000000000BRBITOBDR001102
012021032602BIVB39      010CORE SP 500 DRN ED       R$  000000000558300000000056950000000005583000000000564500000000056950000000005665000000000570000023000000000000003594000000000020288828000000000000009999123100000010000000000000BRBIVBBDR004102
012021032602BIWM39      010RUSSELL 2000DRN ED       R$  000000000621100000000063260000000006211000000000627800000000063260000000004747000000000000000388000000000000050146000000000314821867000000000000009999123100000010000000000000BRBIWMBDR009102
012021032602BIXN39      010GLOBAL TECH DRN          R$  000000000581000000000058350000000005810000000000582000000000058350000000005660000000000600000002000000000000000017000000000000098945000000000000009999123100000010000000000000BRBIXNBDR005101
012021032602BIYF39      010US FINANCIALDRN ED       R$  000000000284500000000028750000000002845000000000287200000000028750000000002845000000000290000003000000000000001471000000000004225075000000000000009999123100000010000000000000BRBIYFBDR009103
012021032602BIYW39      010US TECHNOLOGDRN ED       R$  000000000141300000000014170000000001397000000000141400000000014160000000001402000000000142500011000000000000008773000000000012410948000000000000009999123100000010000000000000BRBIYWBDR004103
012021032602BKBR3       010BK BRASIL   ON      NM   R$  000000000096000000000009670000000000937000000000095100000000009480000000000947000000000094804369000000000001468000000000001396916000000000000000009999123100000010000000000000BRBKBRACNOR4103
012021032602BKNG34      010BOOKING     DRN          R$  000000000739000000000076000000000007340000000000747900000000076000000000007480000000000760000103000000000000016133000000000120666500000000000000009999123100000010000000000000BRBKNGBDR006101
012021032602BLAK34      010BLACKROCK   DRN          R$  000000006875000000000720000000000068750000000007107200000000720000000000070658000000000000000018000000000000000199000000000014143383000000000000009999123100000010000000000000BRBLAKBDR003120
012021032602BMEB3       010MERC BRASIL ON      N1   R$  000000000180300000000019150000000001803000000000189800000000019090000000001811000000000191500007000000000000001400000000000002658000000000000000009999123100000010000000000000BRBMEBACNOR8197
012021032602BMEB4       010MERC BRASIL PN      N1   R$  000000000169400000000017850000000001692000000000174100000000017100000000001696000000000175300028000000000000011600000000000020201300000000000000009999123100000010000000000000BRBMEBACNPR5202
012021032602BMGB4       010BANCO BMG   PN      N1   R$  000000000051100000000005250000000000503000000000051200000000005150000000000513000000000051502728000000000001104000000000000565764600000000000000009999123100000010000000000000BRBMGBACNPR0102
012021032602BMIN3       010MERC INVEST ON           R$  000000000226200000000022620000000002262000000000226200000000022620000000002261000000000239000001000000000000000100000000000000226200000000000000009999123100000010000000000000BRBMINACNOR4168
012021032602BMIN4       010MERC INVEST PN           R$  000000000211500000000021200000000002115000000000211700000000021200000000002117000000000219000003000000000000000600000000000001270500000000000000009999123100000010000000000000BRBMINACNPR1172
012021032602BMKS3       010BIC MONARK  ON           R$  000000002400000000000255940000000023712000000002502100000000255000000000023750000000002540000016000000000000000053000000000001326130000000000000009999123100000010000000000000BRBMKSACNOR9162
012021032602BMOB3       010BEMOBI TECH ON      NM   R$  000000000198800000000020070000000001955000000000197700000000019910000000001970000000000199101545000000000000725300000000001434246900000000000000009999123100000010000000000000BRBMOBACNOR7100
012021032602BMYB34      010BRISTOLMYERSDRN          R$  000000003621000000000362100000000036210000000003621000000000362100000000032000000000000000000001000000000000000001000000000000036210000000000000009999123100000010000000000000BRBMYBBDR000129
012021032602BNBR3       010NORD BRASIL ON           R$  000000000690000000000069000000000006900000000000690000000000069000000000006134000000000699900001000000000000000100000000000000690000000000000000009999123100000010000000000000BRBNBRACNOR8200
012021032602BNDA39      010MSCI INDIA  DRN          R$  000000000592500000000060900000000005925000000000601500000000060900000000006040000000000621700017000000000000001499000000000009017529000000000000009999123100000010000000000000BRBNDABDR004101
012021032602BOAC34      010BANK AMERICADRN          R$  000000000539000000000055520000000005390000000000549300000000055520000000005527000000000555200451000000000000032804000000000180212682000000000000009999123100000010000000000000BRBOACBDR004143
012021032602BOAS3       010BOA VISTA   ON      NM   R$  000000000122300000000012840000000001219000000000125200000000012520000000001252000000000126303256000000000000666200000000000834599900000000000000009999123100000010000000000000BRBOASACNOR6100
012021032602BOBR4       010BOMBRIL     PN           R$  000000000024500000000002510000000000240000000000024600000000002440000000000241000000000024400221000000000000097900000000000024084800000000000000009999123100000010000000000000BRBOBRACNPR3128
012021032602BOEI34      010BOEING      DRN          R$  000000014020000000001422430000000139199000000014169700000001394000000000130000000000014250000033000000000000001610000000000228132398000000000000009999123100000010000000000000BRBOEIBDR003132
012021032602BONY34      010BNY MELLON  DRN          R$  000000002650000000000273400000000026500000000002690100000000270000000000026410000000002803900008000000000000000040000000000001076076000000000000009999123100000010000000000000BRBONYBDR001122
012021032602BPAC3       010BTGP BANCO  ON      N2   R$  000000000446300000000044860000000004398000000000443000000000044190000000004371000000000460000019000000000000002000000000000008860000000000000000009999123100000010000000000000BRBPACACNOR7123
012021032602BPAC5       010BTGP BANCO  PNA     N2   R$  000000000240100000000024010000000002350000000000237300000000023600000000002345000000000236200031000000000000004300000000000010204200000000000000009999123100000010000000000000BRBPACACNPA0123
012021032602BPAC11      010BTGP BANCO  UNT     N2   R$  000000000926500000000093880000000009080000000000921100000000091970000000009178000000000919713094000000000002493400000000022967068800000000000000009999123100000010000000000000BRBPACUNT006108
012021032602BPAN4       010BANCO PAN   PN      N1   R$  000000000108500000000010910000000001033000000000106300000000010780000000001075000000000107805231000000000002925700000000003111410800000000000000009999123100000010000000000000BRBPANACNPR1110
012021032602BRAP3       010BRADESPAR   ON      N1   R$  000000000555800000000057200000000005530000000000561900000000056500000000005643000000000565000174000000000000033100000000000185991800000000000000009999123100000010000000000000BRBRAPACNOR5137
012021032602BRAP4       010BRADESPAR   PN      N1   R$  000000000633300000000065530000000006290000000000646400000000065370000000006537000000000654526234000000000005059900000000032707498300000000000000009999123100000010000000000000BRBRAPACNPR2137
012021032602BRDT3       010PETROBRAS BRON      NM   R$  000000000220400000000022450000000002160000000000220600000000022080000000002208000000000220919671000000000007107900000000015681221000000000000000009999123100000010000000000000BRBRDTACNOR1121
012021032602BRFS3       010BRF SA      ON      NM   R$  000000000243400000000024750000000002404000000000244000000000024390000000002435000000000243915545000000000005158000000000012588625000000000000000009999123100000010000000000000BRBRFSACNOR8119
012021032602BRGE3       010ALFA CONSORCON           R$  000000000094800000000009480000000000918000000000093300000000009180000000000918000000000094800002000000000000000200000000000000186600000000000000009999123100000010000000000000BRBRGEACNOR6202
012021032602BRGE5       010ALFA CONSORCPNA          R$  000000000165000000000016500000000001451000000000154400000000014510000000001350000000000154900006000000000000000600000000000000926900000000000000009999123100000010000000000000BRBRGEACNPA9212
012021032602BRGE12      010ALFA CONSORCPNF          R$  000000000061800000000006180000000000618000000000061800000000006180000000000605000000000061800001000000000000000100000000000000061800000000000000009999123100000010000000000000BRBRGEACNPF8096
012021032602BRIV3       010ALFA INVEST ON           R$  000000000092600000000009260000000000926000000000092600000000009260000000000926000000000097900001000000000000000200000000000000185200000000000000009999123100000010000000000000BRBRIVACNOR6206
012021032602BRIV4       010ALFA INVEST PN           R$  000000000083700000000008370000000000837000000000083700000000008370000000000847000000000086800001000000000000000100000000000000083700000000000000009999123100000010000000000000BRBRIVACNPR3212
012021032602BRKM3       010BRASKEM     ON      N1   R$  000000000343000000000035770000000003420000000000349200000000034560000000003450000000000347600104000000000000030700000000000107211900000000000000009999123100000010000000000000BRBRKMACNOR1117
012021032602BRKM5       010BRASKEM     PNA     N1   R$  000000000382900000000038410000000003744000000000378700000000037910000000003791000000000379211897000000000002383200000000009027332900000000000000009999123100000010000000000000BRBRKMACNPA4117
012021032602BRML3       010BR MALLS PARON      NM   R$  000000000099000000000009930000000000960000000000097700000000009810000000000980000000000098121623000000000011925800000000011653402500000000000000009999123100000010000000000000BRBRMLACNOR9115
012021032602BRPR3       010BR PROPERT  ON      NM   R$  000000000088400000000008850000000000854000000000086800000000008700000000000862000000000087002838000000000000805800000000000699573600000000000000009999123100000010000000000000BRBRPRACNOR9119
012021032602BRSR3       010BANRISUL    ON      N1   R$  000000000137600000000013990000000001370000000000137600000000013900000000001370000000000139000038000000000000025100000000000034544800000000000000009999123100000010000000000000BRBRSRACNOR3172
012021032602BRSR6       010BANRISUL    PNB     N1   R$  000000000123100000000012370000000001204000000000122100000000012250000000001224000000000122507209000000000002462500000000003009009500000000000000009999123100000010000000000000BRBRSRACNPB4175
012021032602BSEV3       010BIOSEV      ON      NM   R$  000000000085900000000008590000000000819000000000083800000000008190000000000819000000000082900438000000000000130600000000000109497900000000000000009999123100000010000000000000BRBSEVACNOR3102
012021032602BSLI3       010BRB BANCO   ON           R$  000000000495000000000053350000000004911000000000501300000000049500000000004912000000000519900021000000000000003300000000000016543000000000000000009999123100000010000000000000BRBSLIACNOR5181
012021032602BSLI4       010BRB BANCO   PN           R$  000000000350800000000035420000000003459000000000350900000000035400000000003460000000000360500013000000000000001700000000000005966400000000000000009999123100000010000000000000BRBSLIACNPR2181
012021032602BSLV39      010SILVER TRUSTDRN          R$  000000000441400000000044550000000004392000000000442200000000044500000000004392000000000445400012000000000000001962000000000008676307000000000000009999123100000010000000000000BRBSLVBDR002100
012021032602BTOW3       010B2W DIGITAL ON      NM   R$  000000000608800000000061270000000005863000000000597800000000059290000000005929000000000593415334000000000004094800000000024482009600000000000000009999123100000010000000000000BRBTOWACNOR8111
012021032602BTTL3       010BATTISTELLA ON           R$  000000000091200000000009120000000000911000000000091100000000009110000000000908000000000096500002000000000000000300000000000000273500000000000000009999123100000010000000000000BRBTTLACNOR0108
012021032602BUSM39      010MSCI US MVOLDRN ED       R$  000000000497000000000049700000000004965000000000496500000000049650000000003831000000000000000002000000000000000983000000000004880645000000000000009999123100000010000000000000BRBUSMBDR002102
012021032602C1AB34      010CABLE ONE INDRN          R$  000000000515500000000051550000000005155000000000515500000000051550000000000000000000000000000001000000000000000009000000000000046395000000000000009999123100000010000000000000BRC1ABBDR009102
012021032602C1BO34      010CBOE GLOBAL DRN          R$  000000002792100000000280000000000027921000000002796000000000280000000000023110000000000000000002000000000000000008000000000000223684000000000000009999123100000010000000000000BRC1BOBDR000105
012021032602C1BS34      010VIACOMCBS   DRN          R$  000000003750000000000375000000000024600000000002833500000000272400000000027240000000002780100358000000000000014141000000000400695675000000000000009999123100000010000000000000BRC1BSBDR001106
012021032602C1CL34      010CARNIVAL CORDRN          R$  000000001520000000000152000000000014580000000001483700000000149400000000014000000000001494000052000000000000002993000000000044409374000000000000009999123100000010000000000000BRC1CLBDR004101
012021032602C1DN34      010CADENCE DESIDRN          R$  000000003650000000000367000000000036500000000003660000000000367000000000030888000000000000000002000000000000000004000000000000146400000000000000009999123100000010000000000000BRC1DNBDR008100
012021032602C1FG34      010CITIZENS FINDRN          R$  000000002556100000000255610000000025500000000002553000000000255000000000002000000000000000000002000000000000000010000000000000255305000000000000009999123100000010000000000000BRC1FGBDR007104
012021032602C1HI34      010CHINA PETROLDRN          R$  000000000494100000000051060000000004941000000000506300000000050410000000004822000000000000000008000000000000000273000000000001382471000000000000009999123100000010000000000000BRC1HIBDR009100
012021032602C1HT34      010CHUNGHWA TELDRN          R$  000000000550200000000055020000000005500000000000550100000000055000000000004364000000000654600002000000000000000016000000000000088016000000000000009999123100000010000000000000BRC1HTBDR006100
012021032602C1IC34      010CIGNA CORP  DRN          R$  000000003450000000000345000000000034500000000003450000000000345000000000034171000000000000000002000000000000000011000000000000379500000000000000009999123100000010000000000000BRC1ICBDR000102
012021032602C1MA34      010COMERICA INCDRN          R$  000000002014000000000201400000000020140000000002014000000000201400000000000000000000000000000001000000000000000009000000000000181260000000000000009999123100000010000000000000BRC1MABDR006105
012021032602C1MS34      010CMS ENERGY CDRN          R$  000000001729900000000174000000000017299000000001734900000000174000000000017285000000000000000002000000000000000012000000000000208194000000000000009999123100000010000000000000BRC1MSBDR008105
012021032602C1NS34      010CELANESE CORDRN          R$  000000004364000000000436400000000043640000000004364000000000436400000000043400000000000000000001000000000000000002000000000000087280000000000000009999123100000010000000000000BRC1NSBDR006105
012021032602C1SU34      010CREDIT SUISSDRN          R$  000000000377400000000037810000000003740000000000374300000000037400000000003573000000000381800003000000000000000111000000000000415521000000000000009999123100000010000000000000BRC1SUBDR001101
012021032602C1TV34      010CORTEVA INC DRN          R$  000000000677000000000068550000000006770000000000683900000000068550000000006650000000000000000006000000000000000626000000000004281730000000000000009999123100000010000000000000BRC1TVBDR007102
012021032602CAMB3       010CAMBUCI     ON           R$  000000000045100000000004600000000000445000000000044900000000004500000000000447000000000045000070000000000000020500000000000009210200000000000000009999123100000010000000000000BRCAMBACNOR4119
012021032602CAML3       010CAMIL       ON  EJ  NM   R$  000000000103600000000010400000000001011000000000102200000000010290000000001028000000000102904506000000000001626100000000001663140100000000000000009999123100000010000000000000BRCAMLACNOR3114
012021032602CAPH34      010CAPRI HOLDI DRN          R$  000000002828600000000282860000000028286000000002828600000000282860000000019400000000003020000001000000000000000080000000000002262880000000000000009999123100000010000000000000BRCAPHBDR008100
012021032602CARD3       010CSU CARDSYSTON      NM   R$  000000000172500000000017250000000001617000000000166900000000016170000000001617000000000163000709000000000000139300000000000232521700000000000000009999123100000010000000000000BRCARDACNOR9121
012021032602CASH3       010MELIUZ      ON      NM   R$  000000000228000000000023190000000002252000000000228900000000023020000000002300000000000230204173000000000001141700000000002614246600000000000000009999123100000010000000000000BRCASHACNOR8100
012021032602CATP34      010CATERPILLAR DRN          R$  000000000840000000000084000000000008007000000000809900000000081750000000008031000000000825000044000000000000002840000000000023002297000000000000009999123100000010000000000000BRCATPBDR003139
012021032602CCPR3       010CYRE COM-CCPON      NM   R$  000000000114900000000011550000000001116000000000113000000000011350000000001135000000000113900850000000000000159000000000000179818700000000000000009999123100000010000000000000BRCCPRACNOR9115
012021032602CCRO3       010CCR SA      ON      NM   R$  000000000120600000000012120000000001185000000000119900000000012000000000001200000000000120123881000000000012631100000000015154744200000000000000009999123100000010000000000000BRCCROACNOR2138
012021032602CEAB3       010CEA MODAS   ON      NM   R$  000000000114400000000011440000000001081000000000110000000000011000000000001099000000000110113966000000000003639300000000004005869000000000000000009999123100000010000000000000BRCEABACNOR1101
012021032602CEBR3       010CEB         ON           R$  000000001510000000000154500000000014900000000001527100000000154500000000015250000000001545000013000000000000002500000000000038179300000000000000009999123100000010000000000000BRCEBRACNOR5118
012021032602CEBR5       010CEB         PNA          R$  000000001693000000000173000000000016930000000001697300000000173000000000016300000000000000000006000000000000004300000000000072984000000000000000009999123100000010000000000000BRCEBRACNPA8117
012021032602CEBR6       010CEB         PNB          R$  000000001689900000000169300000000016899000000001691400000000169300000000015700000000001797000009000000000000003000000000000050744900000000000000009999123100000010000000000000BRCEBRACNPB6117
012021032602CEDO3       010CEDRO       ON      N1   R$  000000000107700000000010780000000001031000000000105200000000010310000000001023000000000105900033000000000000004300000000000004525200000000000000009999123100000010000000000000BRCEDOACNOR8096
012021032602CEDO4       010CEDRO       PN      N1   R$  000000000053500000000005360000000000526000000000053000000000005300000000000530000000000053500021000000000000004500000000000002387700000000000000009999123100000010000000000000BRCEDOACNPR5128
012021032602CEED3       010CEEE-D      ON      N1   R$  000000000499900000000049990000000004999000000000499900000000049990000000004802000000000516700001000000000000000100000000000000499900000000000000009999123100000010000000000000BRCEEDACNOR9103
012021032602CEPE5       010CELPE       PNA          R$  000000000280600000000028500000000002805000000000282000000000028500000000002802000000000284900003000000000000000300000000000000846100000000000000009999123100000010000000000000BRCEPEACNPA6164
012021032602CESP3       010CESP        ON      N1   R$  000000000322000000000032900000000003220000000000325000000000032460000000003246000000000325000073000000000000025700000000000083526800000000000000009999123100000010000000000000BRCESPACNOR3170
012021032602CESP6       010CESP        PNB     N1   R$  000000000279500000000028610000000002779000000000281800000000028090000000002800000000000280910209000000000004750000000000013386822900000000000000009999123100000010000000000000BRCESPACNPB4129
012021032602CGAS3       010COMGAS      ON           R$  000000001460000000000150000000000014600000000001479600000000150000000000014200000000001580000006000000000000000600000000000008878000000000000000009999123100000010000000000000BRCGASACNOR0153
012021032602CGAS5       010COMGAS      PNA          R$  000000001579900000000164500000000015505000000001596300000000157000000000015505000000001570300043000000000000005700000000000090991900000000000000009999123100000010000000000000BRCGASACNPA3150
012021032602CGRA3       010GRAZZIOTIN  ON           R$  000000000315400000000031540000000003030000000000311800000000030300000000003030000000000324000007000000000000000800000000000002494700000000000000009999123100000010000000000000BRCGRAACNOR2072
012021032602CGRA4       010GRAZZIOTIN  PN           R$  000000000286700000000028670000000002790000000000281400000000028000000000002800000000000280400089000000000000019700000000000055453900000000000000009999123100000010000000000000BRCGRAACNPR9072
012021032602CHCM34      010CHARTER COMMDRN          R$  000000000601500000000060750000000005982000000000602500000000060440000000005956000000000604400491000000000000002825000000000017020698000000000000009999123100000010000000000000BRCHCMBDR001101
012021032602CHDC34      010CHURCH DWIGHDRN          R$  000000004915900000000494000000000048890000000004914900000000494000000000039900000000000000000003000000000000000006000000000000294898000000000000009999123100000010000000000000BRCHDCBDR000106
012021032602CHVX34      010CHEVRON     DRN          R$  000000000607100000000061750000000006003000000000609400000000061670000000006149000000000616700237000000000000025715000000000156731666000000000000009999123100000010000000000000BRCHVXBDR008141
012021032602CIEL3       010CIELO       ON      NM   R$  000000000036900000000003720000000000355000000000036100000000003610000000000361000000000036212473000000000027751200000000010029864000000000000000009999123100000010000000000000BRCIELACNOR3144
012021032602CLSC4       010CELESC      PN      N2   R$  000000000576300000000058990000000005761000000000579500000000058990000000005761000000000590000009000000000000000900000000000005216300000000000000009999123100000010000000000000BRCLSCACNPR3116
012021032602CLXC34      010CLOROX CO   DRN          R$  000000002700000000000274000000000027000000000002708000000000274000000000000000000000002900000002000000000000000005000000000000135400000000000000009999123100000010000000000000BRCLXCBDR000106
012021032602CMCS34      010COMCAST     DRN          R$  000000000645000000000064500000000006205000000000626600000000063310000000006246000000000633100047000000000000068762000000000430914600000000000000009999123100000010000000000000BRCMCSBDR008138
012021032602CMIG3       010CEMIG       ON      N1   R$  000000000153000000000015300000000001496000000000150700000000015090000000001509000000000151301710000000000000431500000000000650485200000000000000009999123100000010000000000000BRCMIGACNOR6226
012021032602CMIG4       010CEMIG       PN      N1   R$  000000000124700000000012500000000001219000000000123800000000012430000000001242000000000124319506000000000008069900000000009996572000000000000000009999123100000010000000000000BRCMIGACNPR3227
012021032602CMIN3       010CSNMINERACAOON      N2   R$  000000000084500000000008500000000000831000000000084100000000008360000000000836000000000083705806000000000004067400000000003423748900000000000000009999123100000010000000000000BRCMINACNOR2100
012021032602CNTO3       010CENTAURO    ON      NM   R$  000000000275000000000027850000000002616000000000270000000000026690000000002669000000000267607645000000000001658200000000004477384300000000000000009999123100000010000000000000BRCNTOACNOR5100
012021032602COCA34      010COCA COLA   DRN          R$  000000000492500000000050750000000004913000000000500600000000050530000000005053000000000507000510000000000000022686000000000113581033000000000000009999123100000010000000000000BRCOCABDR002139
012021032602COCE5       010COELCE      PNA          R$  000000000538500000000054790000000005308000000000539300000000053730000000005373000000000540000038000000000000009100000000000049085100000000000000009999123100000010000000000000BRCOCEACNPA3140
012021032602COGN3       010COGNA ON    ON      NM   R$  000000000040000000000004000000000000381000000000038600000000003810000000000381000000000038228845000000000067854200000000026228019600000000000000009999123100000010000000000000BRCOGNACNOR2101
012021032602COLG34      010COLGATE     DRN          R$  000000000633000000000064950000000006295000000000635800000000064950000000006297000000000660000006000000000000000061000000000000387885000000000000009999123100000010000000000000BRCOLGBDR000140
012021032602COPH34      010COPHILLIPS  DRN          R$  000000000774000000000078800000000007740000000000779900000000078500000000007600000000000890000013000000000000002409000000000018788883000000000000009999123100000010000000000000BRCOPHBDR009137
012021032602COTY34      010COTY INC    DRN          R$  000000000247300000000025220000000002468000000000249700000000024960000000002249000000000252200018000000000000002059000000000005142688000000000000009999123100000010000000000000BRCOTYBDR006116
012021032602COWC34      010COSTCO      DRN          R$  000000000493800000000050460000000004898000000000501000000000050460000000004945000000000504700069000000000000014859000000000074445710000000000000009999123100000010000000000000BRCOWCBDR006123
012021032602CPFE3       010CPFL ENERGIAON      NM   R$  000000000305000000000030500000000002957000000000300100000000030270000000003026000000000302715807000000000004041100000000012129107000000000000000009999123100000010000000000000BRCPFEACNOR0130
012021032602CPLE3       010COPEL       ON      N1   R$  000000000067000000000006770000000000663000000000067000000000006710000000000671000000000067402622000000000001704800000000001143053800000000000000009999123100000010000000000000BRCPLEACNOR8141
012021032602CPLE6       010COPEL       PNB     N1   R$  000000000068900000000007010000000000687000000000069400000000006980000000000698000000000069913800000000000010064700000000006991050200000000000000009999123100000010000000000000BRCPLEACNPB9138
012021032602CRDE3       010CR2         ON           R$  000000000235000000000023500000000002350000000000235000000000023500000000002102000000000235000001000000000000000100000000000000235000000000000000009999123100000010000000000000BRCRDEACNOR1112
012021032602CRFB3       010CARREFOUR BRON      NM   R$  000000000220300000000022450000000002195000000000222300000000022220000000002221000000000222215216000000000004357000000000009689766900000000000000009999123100000010000000000000BRCRFBACNOR2107
012021032602CRIP34      010CTRIPCOM    DRN          R$  000000002215000000000221500000000021580000000002212100000000215800000000000000000000002158000003000000000000000040000000000000884860000000000000009999123100000010000000000000BRCRIPBDR000100
012021032602CRIV3       010ALFA FINANC ON           R$  000000000051200000000005290000000000512000000000051600000000005290000000000517000000000052900004000000000000000700000000000000361500000000000000009999123100000010000000000000BRCRIVACNOR4194
012021032602CRIV4       010ALFA FINANC PN           R$  000000000062300000000006380000000000623000000000063300000000006380000000000625000000000063700003000000000000000300000000000000189900000000000000009999123100000010000000000000BRCRIVACNPR1205
012021032602CRPG5       010CRISTAL     PNA          R$  000000000578800000000060980000000005780000000000594800000000060000000000006000000000000600500268000000000000036400000000000216508000000000000000009999123100000010000000000000BRCRPGACNPA3109
012021032602CRPG6       010CRISTAL     PNB          R$  000000000579900000000059450000000005799000000000586800000000058990000000005811000000000590000011000000000000002000000000000011737500000000000000009999123100000010000000000000BRCRPGACNPB1109
012021032602CSAN3       010COSAN       ON      NM   R$  000000000913000000000092620000000008939000000000908600000000090810000000009081000000000908208374000000000001510700000000013726336000000000000000009999123100000010000000000000BRCSANACNOR6120
012021032602CSCO34      010CISCO       DRN          R$  000000000575200000000060000000000005752000000000591400000000060000000000005900000000000620000032000000000000000727000000000004299955000000000000009999123100000010000000000000BRCSCOBDR004141
012021032602CSED3       010CRUZEIRO EDUON      NM   R$  000000000117500000000012070000000001142000000000118100000000011500000000001150000000000116000841000000000000249900000000000295165400000000000000009999123100000010000000000000BRCSEDACNOR9100
012021032602CSMG3       010COPASA      ON  EJ  NM   R$  000000000148600000000014950000000001450000000000147300000000014770000000001476000000000147705749000000000001553800000000002289772100000000000000009999123100000010000000000000BRCSMGACNOR5161
012021032602CSNA3       010SID NACIONALON           R$  000000000341200000000035200000000003383000000000347400000000035140000000003511000000000351436217000000000016394400000000056965623800000000000000009999123100000010000000000000BRCSNAACNOR6252
012021032602CTGP34      010CITIGROUP   DRN          R$  000000000692500000000069810000000006904000000000694800000000069810000000006862000000000698100065000000000000011768000000000081774574000000000000009999123100000010000000000000BRCTGPBDR000141
012021032602CTKA4       010KARSTEN     PN           R$  000000000185700000000019390000000001850000000000187100000000019390000000001859000000000193900020000000000000003800000000000007111800000000000000009999123100000010000000000000BRCTKAACNPR7043
012021032602CTNM4       010COTEMINAS   PN           R$  000000000053000000000005300000000000523000000000052800000000005240000000000524000000000052500024000000000000010600000000000005604700000000000000009999123100000010000000000000BRCTNMACNPR6129
012021032602CTSA3       010SANTANENSE  ON           R$  000000000026300000000002650000000000255000000000026200000000002600000000000260000000000026200047000000000000017400000000000004565500000000000000009999123100000010000000000000BRCTSAACNOR3060
012021032602CTSA4       010SANTANENSE  PN           R$  000000000019300000000001930000000000190000000000019000000000001910000000000190000000000019100018000000000000003500000000000000666400000000000000009999123100000010000000000000BRCTSAACNPR0060
012021032602CURY3       010CURY S/A    ON      NM   R$  000000000090800000000009190000000000888000000000089800000000009000000000000899000000000090004811000000000001244000000000001117841500000000000000009999123100000010000000000000BRCURYACNOR3100
012021032602CVCB3       010CVC BRASIL  ON      NM   R$  000000000193000000000019360000000001870000000000190100000000018930000000001893000000000189607519000000000003818200000000007260169400000000000000009999123100000010000000000000BRCVCBACNOR1113
012021032602CVSH34      010CVS HEALTH  DRN          R$  000000002154700000000216400000000021547000000002162100000000216200000000019200000000002300000013000000000000001510000000000032648351000000000000009999123100000010000000000000BRCVSHBDR008119
012021032602CYRE3       010CYRELA REALTON      NM   R$  000000000242000000000024360000000002333000000000238200000000023680000000002368000000000237017646000000000004174700000000009945888300000000000000009999123100000010000000000000BRCYREACNOR7135
012021032602D1EL34      010DELL TECHNOLDRN          R$  000000004986000000000510900000000049860000000005052200000000510900000000047800000000000000000004000000000000000066000000000003334470000000000000009999123100000010000000000000BRD1ELBDR009100
012021032602D1EX34      010DEXCOM INC  DRN          R$  000000000397600000000039760000000003976000000000397600000000039760000000003600000000000583800001000000000000000010000000000000039760000000000000009999123100000010000000000000BRD1EXBDR004100
012021032602D1LR34      010DIGITAL REALDRN          R$  000000002021000000000205100000000020210000000002027500000000205100000000018900000000002141300003000000000000000012000000000000243300000000000000009999123100000010000000000000BRD1LRBDR001105
012021032602D1OC34      010DOCUSIGN INCDRN          R$  000000000579300000000057930000000005612000000000573000000000057600000000005610000000000576000261000000000000001363000000000007810292000000000000009999123100000010000000000000BRD1OCBDR007100
012021032602D1OW34      010DOW INC     DRN          R$  000000000914900000000091490000000009149000000000914900000000091490000000007888000000000000000001000000000000000500000000000004574500000000000000009999123100000010000000000000BRD1OWBDR005102
012021032602D1VN34      010DEVON ENERGYDRN          R$  000000001298100000000129810000000012940000000001296300000000129400000000000000000000001360000002000000000000000007000000000000090744000000000000009999123100000010000000000000BRD1VNBDR009106
012021032602DASA3       010DASA        ON           R$  000000001412000000000141200000000014000000000001407300000000141010000000014100000000001433000008000000000000001000000000000014073700000000000000009999123100000010000000000000BRDASAACNOR1120
012021032602DBAG34      010DEUTSCHE AK DRN          R$  000000000712000000000071200000000007085000000000709800000000070850000000007021000000000712000003000000000000000039000000000000276830000000000000009999123100000010000000000000BRDBAGBDR008100
012021032602DCVY34      010DISCOVERY INDRN A        R$  000000003150100000000315010000000022088000000002279400000000234300000000022500000000002490000082000000000000006343000000000144586173000000000000009999123100000010000000000000BRDCVYBDR005100
012021032602DCVY35      010DISCOVERY INDRN C        R$  000000002628100000000262810000000017957000000002071100000000202400000000019500000000002076000069000000000000003244000000000067188159000000000000009999123100000010000000000000BRDCVYBDR013100
012021032602DEAI34      010DELTA       DRN          R$  000000002723000000000272300000000026800000000002687400000000268000000000020000000000002750000002000000000000000046000000000001236240000000000000009999123100000010000000000000BRDEAIBDR008116
012021032602DEEC34      010DEERE CO    DRN          R$  000000010396200000001073240000000103962000000010603400000001073240000000093123000000011000000012000000000000000097000000000010285346000000000000009999123100000010000000000000BRDEECBDR003107
012021032602DHER34      010DANAHER CORPDRN ED       R$  000000003204500000000320450000000032045000000003204500000000320450000000029300000000000000000001000000000000000150000000000004806750000000000000009999123100000010000000000000BRDHERBDR004124
012021032602DIRR3       010DIRECIONAL  ON      NM   R$  000000000125900000000012590000000001208000000000123500000000012400000000001233000000000124001809000000000000403200000000000498152400000000000000009999123100000010000000000000BRDIRRACNOR0113
012021032602DISB34      010WALT DISNEY DRN          R$  000000000711500000000071910000000007000000000000708100000000070000000000007000000000000704501136000000000000114993000000000814325466000000000000009999123100000010000000000000BRDISBBDR006115
012021032602DMMO3       010DOMMO       ON  ES       R$  000000000008900000000000890000000000086000000000008700000000000870000000000087000000000008801484000000000003810100000000000333195200000000000000009999123100000010000000000000BRDMMOACNOR0104
012021032602DMVF3       010D1000VFARMA ON      NM   R$  000000000090500000000009100000000000890000000000089800000000008970000000000897000000000089900859000000000000328600000000000295096500000000000000009999123100000010000000000000BRDMVFACNOR9100
012021032602DOHL3       010DOHLER      ON           R$  000000000260000000000027000000000002600000000000266300000000027000000000002700000000000300000004000000000000000400000000000001065200000000000000009999123100000010000000000000BRDOHLACNOR2059
012021032602DOHL4       010DOHLER      PN           R$  000000000054000000000005640000000000539000000000054700000000005430000000000540000000000054300021000000000000003900000000000002135900000000000000009999123100000010000000000000BRDOHLACNPR9062
012021032602DTCY3       010DTCOM-DIRECTON           R$  000000000099700000000010590000000000997000000000103100000000010100000000000980000000000101000043000000000000006400000000000006603400000000000000009999123100000010000000000000BRDTCYACNOR5109
012021032602DTEX3       010DURATEX     ON      NM   R$  000000000191900000000019230000000001862000000000188800000000018760000000001876000000000188005558000000000001254000000000002367833500000000000000009999123100000010000000000000BRDTEXACNOR3130
012021032602DUKB34      010DUKE ENERGY DRN          R$  000000005435000000000543500000000054350000000005435000000000543500000000047000000000000000000001000000000000000001000000000000054350000000000000009999123100000010000000000000BRDUKBBDR008118
012021032602E1CL34      010ECOLAB INC  DRN          R$  000000003034000000000304740000000030340000000003034000000000304740000000000000000000000000000002000000000000001413000000000042870554000000000000009999123100000010000000000000BRE1CLBDR002105
012021032602E1DU34      010NEW ORIENTALDRN          R$  000000000057200000000005720000000000478000000000049700000000005470000000000518000000000061900093000000000000053436000000000026567300000000000000009999123100000010000000000000BRE1DUBDR001101
012021032602E1NI34      010ENEL AMERICADRN          R$  000000000475000000000047580000000004730000000000475700000000047580000000004100000000000510000007000000000000001933000000000009196790000000000000009999123100000010000000000000BRE1NIBDR005101
012021032602E1QN34      010EQUINOR ASA DRN          R$  000000000562500000000056250000000005625000000000562500000000056250000000004810000000000000000001000000000000000070000000000000393750000000000000009999123100000010000000000000BRE1QNBDR008102
012021032602E1QR34      010EQUITY RESIDDRN ED       R$  000000002080000000000210080000000020700000000002075600000000210080000000000000000000000000000004000000000000000050000000000001037808000000000000009999123100000010000000000000BRE1QRBDR009104
012021032602E1RI34      010ERICSSON LM DRN          R$  000000000385200000000038520000000003852000000000385200000000038520000000003508000000000000000001000000000000000001000000000000003852000000000000009999123100000010000000000000BRE1RIBDR006100
012021032602E1SS34      010ESSEX PROPERDRN          R$  000000001546000000000163220000000015460000000001630800000000161110000000000000000000000000000004000000000000000626000000000010209045000000000000009999123100000010000000000000BRE1SSBDR003104
012021032602E1TN34      010EATON CORP PDRN          R$  000000003915000000000395250000000039150000000003926600000000395250000000000000000000003979500003000000000000000045000000000001767000000000000000009999123100000010000000000000BRE1TNBDR002105
012021032602E1VE34      010EVEREST RE GDRN          R$  000000003584900000000358490000000035700000000003577400000000357000000000000000000000000000000002000000000000000008000000000000286196000000000000009999123100000010000000000000BRE1VEBDR007105
012021032602E1XR34      010EXTRA SPACE DRN          R$  000000001866900000000187100000000018669000000001868700000000187000000000018701000000000000000003000000000000000009000000000000168186000000000000009999123100000010000000000000BRE1XRBDR005105
012021032602EAIN34      010ELECTR ARTS DRN          R$  000000003717000000000380070000000037170000000003772800000000380070000000036530000000003874500007000000000000000059000000000002225980000000000000009999123100000010000000000000BREAINBDR007102
012021032602EALT3       010ACO ALTONA  ON           R$  000000000160900000000016690000000001582000000000161500000000016380000000001611000000000163900011000000000000001200000000000001938700000000000000009999123100000010000000000000BREALTACNOR4133
012021032602EALT4       010ACO ALTONA  PN           R$  000000000051100000000005260000000000500000000000051400000000005000000000000500000000000050300180000000000000081600000000000041993500000000000000009999123100000010000000000000BREALTACNPR1133
012021032602EBAY34      010EBAY        DRN          R$  000000001635000000000173600000000016350000000001674100000000172810000000016180000000001790800062000000000000024544000000000410892811000000000000009999123100000010000000000000BREBAYBDR009110
012021032602ECOR3       010ECORODOVIAS ON      NM   R$  000000000111600000000011380000000001093000000000111300000000011220000000001120000000000112210596000000000004222100000000004703413900000000000000009999123100000010000000000000BRECORACNOR8116
012021032602EGIE3       010ENGIE BRASILON      NM   R$  000000000411100000000041560000000004080000000000412400000000041220000000004122000000000412604970000000000001046800000000004317251800000000000000009999123100000010000000000000BREGIEACNOR9114
012021032602ELCI34      010ESTEE LAUDERDRN          R$  000000008302300000000830230000000083023000000008302300000000830230000000000000000000008410000001000000000000000700000000000058116100000000000000009999123100000010000000000000BRELCIBDR007106
012021032602ELET3       010ELETROBRAS  ON      N1   R$  000000000339500000000034300000000003319000000000337700000000033770000000003374000000000337715141000000000004050600000000013680005700000000000000009999123100000010000000000000BRELETACNOR6156
012021032602ELET6       010ELETROBRAS  PNB     N1   R$  000000000343400000000034750000000003379000000000342700000000034260000000003424000000000342605478000000000001321900000000004530330900000000000000009999123100000010000000000000BRELETACNPB7073
012021032602ELMD3       010ELETROMIDIA ON      NM   R$  000000000156000000000016100000000001560000000000159900000000016050000000001605000000000160600310000000000000464000000000000742180300000000000000009999123100000010000000000000BRELMDACNOR3100
012021032602EMAE4       010EMAE        PN           R$  000000000595900000000060790000000005959000000000605300000000060580000000006000000000000605500006000000000000001100000000000006659000000000000000009999123100000010000000000000BREMAEACNPR1116
012021032602EMBR3       010EMBRAER     ON  ATZ NM   R$  000000000132300000000013600000000001299000000000132500000000013200000000001317000000000132026725000000000015257300000000020230994800000000000000009999123100000010000000000000BREMBRACNOR4190
012021032602ENAT3       010ENAUTA PART ON      NM   R$  000000000156900000000015850000000001511000000000154400000000015480000000001544000000000154904804000000000001991600000000003075801300000000000000009999123100000010000000000000BRENATACNOR0101
012021032602ENBR3       010ENERGIAS BR ON      NM   R$  000000000193300000000019570000000001919000000000194000000000019410000000001941000000000194213055000000000003054900000000005928621700000000000000009999123100000010000000000000BRENBRACNOR2130
012021032602ENEV3       010ENEVA       ON      NM   R$  000000000163600000000016500000000001611000000000163800000000016450000000001642000000000164510886000000000003329300000000005454782300000000000000009999123100000010000000000000BRENEVACNOR8105
012021032602ENGI3       010ENERGISA    ON  ED  N2   R$  000000000153800000000015720000000001509000000000155600000000015620000000001562000000000157200095000000000000012700000000000019761300000000000000009999123100000010000000000000BRENGIACNOR0139
012021032602ENGI4       010ENERGISA    PN  ED  N2   R$  000000000072100000000007250000000000705000000000071300000000007180000000000715000000000072200165000000000000038300000000000027320500000000000000009999123100000010000000000000BRENGIACNPR7135
012021032602ENGI11      010ENERGISA    UNT ED  N2   R$  000000000439000000000044500000000004346000000000441600000000044290000000004423000000000442904863000000000001675600000000007400505300000000000000009999123100000010000000000000BRENGICDAM16129
012021032602ENJU3       010ENJOEI      ON      NM   R$  000000000102500000000010620000000000972000000000100400000000010250000000001025000000000103005217000000000004558000000000004579468600000000000000009999123100000010000000000000BRENJUACNOR9100
012021032602ENMT3       010ENERGISA MT ON  ED       R$  000000000415000000000044990000000003900000000000425600000000042990000000003701000000000429900049000000000000006600000000000028093700000000000000009999123100000010000000000000BRENMTACNOR5112
012021032602ENMT4       010ENERGISA MT PN  ED       R$  000000000419900000000041990000000004199000000000419900000000041990000000000000000000000419900001000000000000000100000000000000419900000000000000009999123100000010000000000000BRENMTACNPR2116
012021032602EQIX34      010EQUINIX INC DRN          R$  000000000473800000000048790000000004736000000000486100000000048790000000004801000000000504500018000000000000012181000000000059223043000000000000009999123100000010000000000000BREQIXBDR002109
012021032602EQMA3B      010EQTLMARANHAOON      MB   R$  000000000425300000000042990000000004251000000000425400000000042510000000004201000000000425100008000000000000001700000000000007231900000000000000009999123100000010000000000000BREQMAACNOR8102
012021032602EQPA3       010EQTL PARA   ON           R$  000000000040200000000004170000000000391000000000040500000000004050000000000395000000000040500156000000000000046900000000000019021000000000000000009999123100000010000000000000BREQPAACNOR1102
012021032602EQPA5       010EQTL PARA   PNA          R$  000000000055000000000005510000000000540000000000054700000000005510000000000427000000000059800004000000000000001600000000000000876000000000000000009999123100000010000000000000BREQPAACNPA4102
012021032602EQPA7       010EQTL PARA   PNC          R$  000000000055000000000005800000000000540000000000056200000000005800000000000554000000000058400008000000000000001200000000000000674600000000000000009999123100000010000000000000BREQPAACNPC0102
012021032602EQTL3       010EQUATORIAL  ON      NM   R$  000000000223400000000023080000000002231000000000227600000000022830000000002283000000000228821334000000000012877000000000029310660900000000000000009999123100000010000000000000BREQTLACNOR0126
012021032602ESPA3       010ESPACOLASER ON      NM   R$  000000000165900000000016920000000001622000000000164900000000016220000000001622000000000164002043000000000000905700000000001494359000000000000000009999123100000010000000000000BRESPAACNOR7100
012021032602EUCA3       010EUCATEX     ON      N1   R$  000000000204900000000020500000000002005000000000201300000000020050000000002002000000000203900004000000000000001100000000000002214400000000000000009999123100000010000000000000BREUCAACNOR1152
012021032602EUCA4       010EUCATEX     PN      N1   R$  000000000077100000000007940000000000761000000000077000000000007650000000000765000000000077200241000000000000188400000000000145134600000000000000009999123100000010000000000000BREUCAACNPR8039
012021032602EVEN3       010EVEN        ON      NM   R$  000000000103400000000010430000000001004000000000102700000000010270000000001021000000000102703304000000000000727600000000000747934200000000000000009999123100000010000000000000BREVENACNOR8112
012021032602EXGR34      010EXPEDIA GROUDRN          R$  000000005046000000000504600000000050460000000005046000000000504600000000044000000000000000000001000000000000000023000000000001160580000000000000009999123100000010000000000000BREXGRBDR004103
012021032602EXXO34      010EXXON MOBIL DRN          R$  000000000806900000000082720000000008054000000000817800000000082720000000008240000000000827200466000000000000026110000000000213550086000000000000009999123100000010000000000000BREXXOBDR006142
012021032602EZTC3       010EZTEC       ON      NM   R$  000000000318200000000031830000000003059000000000312100000000031200000000003120000000000312106377000000000001665100000000005197221800000000000000009999123100000010000000000000BREZTCACNOR0114
012021032602F1AN34      010DIAMONDBACK DRN          R$  000000002146000000000218600000000021460000000002176600000000218000000000000000000000002286700003000000000000000035000000000000761820000000000000009999123100000010000000000000BRF1ANBDR001105
012021032602F1EC34      010FIRSTENERGY DRN          R$  000000001964000000000196400000000019540000000001960000000000195400000000000000000000000000000002000000000000000010000000000000196000000000000000009999123100000010000000000000BRF1ECBDR006105
012021032602F1LS34      010FLOWSERVE CODRN ED       R$  000000002185000000000218500000000021850000000002185000000000218500000000000000000000000000000001000000000000000001000000000000021850000000000000009999123100000010000000000000BRF1LSBDR007105
012021032602F1NI34      010FIDELITY NATDRN          R$  000000000524100000000052410000000005241000000000524100000000052410000000000000000000000550000001000000000000011010000000000057703410000000000000009999123100000010000000000000BRF1NIBDR004106
012021032602F1RI34      010FEDERAL REALDRN          R$  000000001495000000000149950000000014950000000001497200000000149950000000012800000000000000000002000000000000000002000000000000029945000000000000009999123100000010000000000000BRF1RIBDR005105
012021032602F1SL34      010FASTLY INC  DRN          R$  000000000370800000000037080000000003708000000000370800000000037080000000003500000000000410000001000000000000000030000000000000111240000000000000009999123100000010000000000000BRF1SLBDR007100
012021032602F1TV34      010FORTIVE CORPDRN          R$  000000002041900000000204190000000020400000000002040900000000204000000000000000000000000000000002000000000000000002000000000000040819000000000000009999123100000010000000000000BRF1TVBDR004106
012021032602FBOK34      010FACEBOOK    DRN          R$  000000000567000000000058230000000005653000000000574500000000058210000000005821000000000583000529000000000000089588000000000514759612000000000000009999123100000010000000000000BRFBOKBDR006101
012021032602FCXO34      010FREEPORT    DRN          R$  000000001849900000000189380000000018414000000001869300000000188000000000018297000000001930000032000000000000002061000000000038527760000000000000009999123100000010000000000000BRFCXOBDR007132
012021032602FDMO34      010FORD MOTORS DRN          R$  000000000703000000000070400000000006960000000000699900000000070180000000006820000000000720000018000000000000003542000000000024792111000000000000009999123100000010000000000000BRFDMOBDR008133
012021032602FDXB34      010FEDEX CORP  DRN          R$  000000015780000000001612500000000157800000000015864200000001612500000000147203000000016302700006000000000000000014000000000002221000000000000000009999123100000010000000000000BRFDXBBDR002130
012021032602FESA3       010FERBASA     ON      N1   R$  000000000333800000000033380000000003338000000000333800000000033380000000003302000000000360000002000000000000000300000000000001001400000000000000009999123100000010000000000000BRFESAACNOR8173
012021032602FESA4       010FERBASA     PN      N1   R$  000000000306000000000031720000000003035000000000312700000000031520000000003147000000000315201477000000000000294800000000000922016200000000000000009999123100000010000000000000BRFESAACNPR5069
012021032602FLRY3       010FLEURY      ON      NM   R$  000000000251000000000025390000000002486000000000251600000000025160000000002516000000000251707574000000000001569200000000003949337300000000000000009999123100000010000000000000BRFLRYACNOR5129
012021032602FRAS3       010FRAS-LE     ON      N1   R$  000000000118200000000011920000000001170000000000117700000000011800000000001170000000000118000470000000000000133500000000000157166200000000000000009999123100000010000000000000BRFRASACNOR0150
012021032602FSLR34      010FIRST SOLAR DRN          R$  000000002255000000000244000000000022550000000002395600000000244000000000021196000000002450000016000000000000000509000000000012193660000000000000009999123100000010000000000000BRFSLRBDR001100
012021032602G1AR34      010GARTNER INC DRN          R$  000000002626000000000262600000000026260000000002626000000000262600000000019900000000000000000001000000000000000001000000000000026260000000000000009999123100000010000000000000BRG1ARBDR001100
012021032602G1FI34      010GOLD FIELDS DRN          R$  000000000265400000000027160000000002654000000000265600000000027160000000002200000000000000000004000000000000000043000000000000114240000000000000009999123100000010000000000000BRG1FIBDR009101
012021032602G1LP34      010GALAPAGOS NVDRN          R$  000000000217200000000021920000000002172000000000219000000000021920000000002162000000000277700003000000000000000022000000000000048200000000000000009999123100000010000000000000BRG1LPBDR002100
012021032602G1SK34      010GLAXOSMITHKLDRN          R$  000000000420000000000042000000000004200000000000420000000000042000000000004093000000000000000001000000000000000020000000000000084000000000000000009999123100000010000000000000BRG1SKBDR008102
012021032602G1WW34      010WW GRAINGER DRN          R$  000000000571400000000057180000000005714000000000571700000000057180000000000000000000000580000002000000000000009576000000000054749168000000000000009999123100000010000000000000BRG1WWBDR005106
012021032602GEOO34      010GE          DRN          R$  000000000735000000000074700000000007340000000000739000000000074600000000006930000000000746001066000000000000005297000000000039147098000000000000009999123100000010000000000000BRGEOOBDR000143
012021032602GEPA4       010GER PARANAP PN           R$  000000000360000000000036000000000003600000000000360000000000036000000000003580000000000360300002000000000000000300000000000001080000000000000000009999123100000010000000000000BRGEPAACNPR9154
012021032602GFSA3       010GAFISA      ON      NM   R$  000000000048100000000004850000000000459000000000046900000000004660000000000466000000000046703306000000000003939900000000001851509400000000000000009999123100000010000000000000BRGFSAACNOR3119
012021032602GGBR3       010GERDAU      ON      N1   R$  000000000222600000000023400000000002222000000000230400000000023200000000002311000000000232000983000000000000168500000000000388361100000000000000009999123100000010000000000000BRGGBRACNOR1176
012021032602GGBR4       010GERDAU      PN      N1   R$  000000000274600000000029040000000002732000000000284500000000028600000000002857000000000286038734000000000019701800000000056057383300000000000000009999123100000010000000000000BRGGBRACNPR8176
012021032602GMAT3       010GRUPO MATEUSON      NM   R$  000000000079100000000008040000000000760000000000078100000000007750000000000772000000000077511164000000000005533300000000004323027500000000000000009999123100000010000000000000BRGMATACNOR7100
012021032602GMCO34      010GENERAL MOT DRN          R$  000000000808500000000081450000000007978000000000805000000000080760000000008057000000000808100122000000000000010881000000000087600417000000000000009999123100000010000000000000BRGMCOBDR008116
012021032602GNDI3       010INTERMEDICA ON      NM   R$  000000000866600000000086860000000008416000000000850900000000084990000000008473000000000849911328000000000002412800000000020532111600000000000000009999123100000010000000000000BRGNDIACNOR2102
012021032602GOAU3       010GERDAU MET  ON      N1   R$  000000000104400000000010990000000001027000000000107000000000010850000000001085000000000109200371000000000000079700000000000085297300000000000000009999123100000010000000000000BRGOAUACNOR1253
012021032602GOAU4       010GERDAU MET  PN      N1   R$  000000000122600000000012900000000001222000000000126300000000012740000000001270000000000127418087000000000013841300000000017490783600000000000000009999123100000010000000000000BRGOAUACNPR8254
012021032602GOGL34      010ALPHABET    DRN A        R$  000000000775200000000077620000000007659000000000772100000000077410000000007728000000000774101012000000000000083717000000000646445280000000000000009999123100000010000000000000BRGOGLBDR001101
012021032602GOGL35      010ALPHABET    DRN C        R$  000000000780000000000078050000000007710000000000774600000000077790000000007710000000000777900029000000000000023210000000000179800946000000000000009999123100000010000000000000BRGOGLBDR019101
012021032602GOLL4       010GOL         PN      N2   R$  000000000212700000000021450000000002032000000000207800000000020660000000002066000000000206719352000000000009671000000000020100279200000000000000009999123100000010000000000000BRGOLLACNPR4125
012021032602GPCP3       010GPC PART    ON           R$  000000000217700000000022250000000002115000000000216900000000021750000000002175000000000219000856000000000000136400000000000295896500000000000000009999123100000010000000000000BRGPCPACNOR4111
012021032602GPIV33      010GP INVEST   DR3          R$  000000000049400000000005220000000000494000000000050900000000005100000000000510000000000051900216000000000000208234000000000106079168000000000000009999123100000010000000000000BRGPIVBDR003104
012021032602GPRO34      010GOPRO       DRN          R$  000000000675900000000068200000000006665000000000675500000000067150000000006000000000000000000006000000000000000210000000000001418710000000000000009999123100000010000000000000BRGPROBDR009100
012021032602GPSI34      010GAP         DRN          R$  000000001662000000000166200000000016620000000001662000000000166200000000000000000000001696900001000000000000000050000000000000831000000000000000009999123100000010000000000000BRGPSIBDR009113
012021032602GRND3       010GRENDENE    ON      NM   R$  000000000077500000000007850000000000772000000000077900000000007800000000000780000000000078103797000000000000929400000000000724566000000000000000009999123100000010000000000000BRGRNDACNOR3159
012021032602GSGI34      010GOLDMANSACHSDRN          R$  000000001900000000000191500000000018653000000001899400000000187190000000018575000000001915500261000000000000002769000000000052596241000000000000009999123100000010000000000000BRGSGIBDR008142
012021032602GUAR3       010GUARARAPES  ON           R$  000000000145300000000014580000000001381000000000140700000000014090000000001409000000000141302186000000000000398900000000000561571400000000000000009999123100000010000000000000BRGUARACNOR4166
012021032602H1CA34      010HCA HEALTHCADRN          R$  000000005375000000000547500000000053750000000005412400000000547500000000000000000000000000000006000000000000000102000000000005520725000000000000009999123100000010000000000000BRH1CABDR002102
012021032602H1DB34      010HDFC BANK LTDRN          R$  000000000910300000000091030000000009103000000000910300000000091030000000000000000000000000000001000000000000001000000000000009103000000000000000009999123100000010000000000000BRH1DBBDR008100
012021032602H1EI34      010HEICO CORP  DRN          R$  000000000697000000000069700000000006970000000000697000000000069700000000000000000000000000000001000000000000000001000000000000006970000000000000009999123100000010000000000000BRH1EIBDR001101
012021032602H1ES34      010HESS CORP   DRN          R$  000000002040100000000205000000000020400000000002040000000000205000000000000000000000002120000003000000000000000102000000000002080901000000000000009999123100000010000000000000BRH1ESBDR000105
012021032602H1IG34      010HARTFORD FINDRN          R$  000000003918000000000393000000000039180000000003919200000000393000000000034000000000000000000002000000000000000030000000000001175760000000000000009999123100000010000000000000BRH1IGBDR006105
012021032602H1PE34      010HEWLETT PACKDRN          R$  000000000885000000000088500000000008850000000000885000000000088500000000008855000000000000000001000000000000000010000000000000088500000000000000009999123100000010000000000000BRH1PEBDR006105
012021032602H1TH34      010HUAZHU GROUPDRN          R$  000000000759500000000075950000000007595000000000759500000000075950000000000000000000000000000003000000000000001300000000000009873500000000000000009999123100000010000000000000BRH1THBDR001100
012021032602H1ZN34      010HORIZON THERDRN          R$  000000000476000000000047600000000004667000000000473700000000047600000000000000000000000550000003000000000000000021000000000000099495000000000000009999123100000010000000000000BRH1ZNBDR006100
012021032602HAGA3       010HAGA S/A    ON           R$  000000000031700000000003180000000000301000000000030700000000003090000000000302000000000030800038000000000000007900000000000002426000000000000000009999123100000010000000000000BRHAGAACNOR7103
012021032602HAGA4       010HAGA S/A    PN           R$  000000000021000000000002150000000000202000000000020800000000002080000000000206000000000020800131000000000000096800000000000020196200000000000000009999123100000010000000000000BRHAGAACNPR4103
012021032602HAPV3       010HAPVIDA     ON      NM   R$  000000000154000000000015480000000001497000000000151700000000015200000000001519000000000152028536000000000013498000000000020485785600000000000000009999123100000010000000000000BRHAPVACNOR4108
012021032602HBOR3       010HELBOR      ON      NM   R$  000000000086700000000008760000000000837000000000085500000000008500000000000850000000000085103496000000000001331200000000001139000600000000000000009999123100000010000000000000BRHBORACNOR3114
012021032602HBRE3       010HBR REALTY  ON      NM   R$  000000000167900000000016860000000001647000000000167400000000016770000000001642000000000168900138000000000000068400000000000114534500000000000000009999123100000010000000000000BRHBREACNOR4100
012021032602HBSA3       010HIDROVIAS   ON      NM   R$  000000000059500000000006030000000000577000000000059300000000005940000000000593000000000059404573000000000002989500000000001773886500000000000000009999123100000010000000000000BRHBSAACNOR0100
012021032602HBTS5       010HABITASUL   PNA          R$  000000000230700000000023070000000002307000000000230700000000023070000000002301000000000270000002000000000000000200000000000000461400000000000000009999123100000010000000000000BRHBTSACNPA3124
012021032602HETA4       010HERCULES    PN           R$  000000000094400000000009440000000000910000000000093500000000009100000000000901000000000096900007000000000000001000000000000000935900000000000000009999123100000010000000000000BRHETAACNPR9136
012021032602HGTX3       010CIA HERING  ON      NM   R$  000000000161700000000016220000000001566000000000158600000000015860000000001585000000000158607820000000000002204200000000003497027000000000000000009999123100000010000000000000BRHGTXACNOR9152
012021032602HOME34      010HOME DEPOT  DRN          R$  000000000607200000000062780000000006050000000000618600000000062780000000005908000000000627800539000000000000038924000000000240795763000000000000009999123100000010000000000000BRHOMEBDR002137
012021032602HONB34      010HONEYWELL   DRN          R$  000000012480300000001248030000000124803000000012480300000001248030000000122400000000000000000001000000000000000100000000000012480300000000000000009999123100000010000000000000BRHONBBDR006129
012021032602HOND34      010HONDA MO    DRN          R$  000000001715000000000171500000000017150000000001715000000000171500000000016820000000000000000001000000000000000001000000000000017150000000000000009999123100000010000000000000BRHONDBDR002105
012021032602HPQB34      010HP COMPANY  DRN          R$  000000001735000000000176800000000017350000000001766900000000176750000000017600000000000000000005000000000000000930000000000016432300000000000000009999123100000010000000000000BRHPQBBDR006135
012021032602HYPE3       010HYPERA      ON      NM   R$  000000000321100000000032860000000003205000000000324200000000032350000000003235000000000324709918000000000002314900000000007505809300000000000000009999123100000010000000000000BRHYPEACNOR0124
012021032602I1AC34      010IAC INTERACTDRN          R$  000000000600000000000061000000000006000000000000608600000000060500000000000000000000000000000004000000000000000958000000000005831250000000000000009999123100000010000000000000BRI1ACBDR001100
012021032602I1HG34      010INT EXCHANGEDRN          R$  000000000653900000000065390000000006530000000000653400000000065300000000000000000000000000000002000000000000000020000000000000130690000000000000009999123100000010000000000000BRI1HGBDR007100
012021032602I1NF34      010IHS MARKIT LDRN          R$  000000000705900000000070590000000007059000000000705900000000070590000000005500000000000000000001000000000000010294000000000072665346000000000000009999123100000010000000000000BRI1NFBDR007106
012021032602I1QY34      010IQIYI INC   DRN          R$  000000000531500000000053150000000004370000000000479800000000048500000000004320000000000000000055000000000000002884000000000013838719000000000000009999123100000010000000000000BRI1QYBDR001100
012021032602I1RM34      010IRON MOUNTAIDRN          R$  000000002104000000000214200000000021040000000002138700000000213200000000021360000000000000000007000000000000000218000000000004662406000000000000009999123100000010000000000000BRI1RMBDR004105
012021032602I1SR34      010INTUITIVE SUDRN          R$  000000004056000000000405600000000040560000000004056000000000405600000000036888000000000000000001000000000000000012000000000000486720000000000000009999123100000010000000000000BRI1SRBDR001100
012021032602I1VZ34      010INVESCO LTD DRN          R$  000000001394000000000139400000000013940000000001394000000000139400000000013370000000000000000001000000000000000001000000000000013940000000000000009999123100000010000000000000BRI1VZBDR008105
012021032602IBMB34      010IBM         DRN          R$  000000007676200000000770010000000076000000000007652500000000770010000000077505000000000000000014000000000000000044000000000003367103000000000000009999123100000010000000000000BRIBMBBDR003137
012021032602IGTA3       010IGUATEMI    ON      NM   R$  000000000369400000000036940000000003613000000000364700000000036450000000003640000000000364511882000000000002244600000000008187713000000000000000009999123100000010000000000000BRIGTAACNOR5124
012021032602INGG34      010ING GROEP   DRN          R$  000000000694500000000069450000000006835000000000692700000000068400000000004900000000000000000003000000000000000012000000000000083125000000000000009999123100000010000000000000BRINGGBDR009101
012021032602INTB3       010INTELBRAS   ON      NM   R$  000000000204500000000020510000000001932000000000197800000000019700000000001970000000000197303876000000000001078600000000002133730000000000000000009999123100000010000000000000BRINTBACNOR9100
012021032602INTU34      010INTUIT INC  DRN          R$  000000005310000000000531000000000053100000000005310000000000531000000000046118000000000000000002000000000000000004000000000000212400000000000000009999123100000010000000000000BRINTUBDR003107
012021032602IRBR3       010IRBBRASIL REON      NM   R$  000000000061100000000006210000000000605000000000061200000000006120000000000611000000000061211513000000000028292600000000017318632400000000000000009999123100000010000000000000BRIRBRACNOR4108
012021032602ITLC34      010INTEL       DRN          R$  000000000590000000000061820000000005887000000000604800000000061820000000005970000000000618200089000000000000032780000000000198256862000000000000009999123100000010000000000000BRITLCBDR005142
012021032602ITSA3       010ITAUSA      ON  EJ  N1   R$  000000000112000000000011270000000001106000000000111700000000011190000000001116000000000112200997000000000000131500000000000146935400000000000000009999123100000010000000000000BRITSAACNOR0407
012021032602ITSA4       010ITAUSA      PN  EJ  N1   R$  000000000101800000000010380000000001017000000000103000000000010360000000001034000000000103621598000000000021252500000000021910575700000000000000009999123100000010000000000000BRITSAACNPR7407
