00COTAHIST.2021BOVESPA 20210325                                                                                                                                                                                                                      
012021032502A1AP34      010ADVANCE AUTODRN ED       R$  000000000630500000000065000000000006305000000000649800000000065000000000006550000000000000000011000000000000001011000000000006570144000000000000009999123100000010000000000000BRA1APBDR001106
012021032502A1BB34      010ABB LTD     DRN          R$  000000000431700000000043830000000004311000000000432700000000043830000000004379000000000000000009000000000000000009000000000000038951000000000000009999123100000010000000000000BRA1BBBDR009100
012021032502A1BM34      010ABIOMED INC DRN          R$  000000004055300000000409800000000040553000000004056100000000409800000000000000000000000000000003000000000000000102000000000004137260000000000000009999123100000010000000000000BRA1BMBDR006100
012021032502A1CR34      010AMCOR PLC   DRN          R$  000000000639000000000063900000000006390000000000639000000000063900000000000000000000000000000001000000000000000001000000000000006390000000000000009999123100000010000000000000BRA1CRBDR003102
012021032502A1DI34      010ANALOG DEVICDRN          R$  000000004176000000000417600000000041760000000004176000000000417600000000000000000000000000000001000000000000000004000000000000167040000000000000009999123100000010000000000000BRA1DIBDR000105
012021032502A1DM34      010ARCHER DANIEDRN          R$  000000003210000000000321000000000032100000000003210000000000321000000000021100000000000000000001000000000000000003000000000000096300000000000000009999123100000010000000000000BRA1DMBDR002105
012021032502A1EG34      010AEGON NV    DRN          R$  000000000259900000000026460000000002570000000000260000000000026460000000002666000000000284300008000000000000000126000000000000327683000000000000009999123100000010000000000000BRA1EGBDR002100
012021032502A1EP34      010AMERICAN ELEDRN          R$  000000002418000000000241800000000024180000000002418000000000241800000000000000000000002450000001000000000000000050000000000001209000000000000000009999123100000010000000000000BRA1EPBDR003105
012021032502A1ES34      010AES CORP    DRN          R$  000000001464000000000146400000000014640000000001464000000000146400000000000000000000000000000001000000000000000002000000000000029280000000000000009999123100000010000000000000BRA1ESBDR007105
012021032502A1GI34      010AGILENT TECHDRN          R$  000000003414000000000341400000000034140000000003414000000000341400000000000000000000003500000001000000000000000001000000000000034140000000000000009999123100000010000000000000BRA1GIBDR003104
012021032502A1IV34      010APARTMENT INDRN          R$  000000000317400000000032850000000003106000000000328400000000032850000000003285000000000990000018000000000000002019000000000006630466000000000000009999123100000010000000000000BRA1IVBDR002106
012021032502A1KA34      010AKAMAI TECHNDRN          R$  000000000466100000000047120000000004661000000000469600000000047120000000004672000000000500000011000000000000000158000000000000742033000000000000009999123100000010000000000000BRA1KABDR002101
012021032502A1LG34      010ALIGN TECHNODRN          R$  000000007100000000000725000000000071000000000007170300000000725000000000000000000000000000000003000000000000000003000000000000215110000000000000009999123100000010000000000000BRA1LGBDR007100
012021032502A1LK34      010ALASKA AIR GDRN          R$  000000003674100000000367410000000036686000000003671800000000367000000000036741000000000000000004000000000000000008000000000000293750000000000000009999123100000010000000000000BRA1LKBDR009101
012021032502A1LN34      010ALNYLAM PHARDRN          R$  000000000373600000000038200000000003736000000000380300000000038200000000003410000000000000000002000000000000000005000000000000019016000000000000009999123100000010000000000000BRA1LNBDR003100
012021032502A1MB34      010AMERISOURCEBDRN          R$  000000003332200000000333220000000033322000000003332200000000333220000000000000000000000000000001000000000000000014000000000000466508000000000000009999123100000010000000000000BRA1MBBDR006105
012021032502A1MD34      010ADVANCED MICDRN          R$  000000004300000000000434330000000042443000000004284900000000434330000000041888000000004400000026000000000000000792000000000033937054000000000000009999123100000010000000000000BRA1MDBDR002100
012021032502A1MT34      010APPLIED MATEDRN          R$  000000006705100000000680000000000066000000000006700100000000680000000000066000000000000000000006000000000000000206000000000013802306000000000000009999123100000010000000000000BRA1MTBDR008105
012021032502A1MX34      010AMERICAMOVILDRN          R$  000000000384400000000038580000000003844000000000385100000000038580000000003858000000000404800002000000000000000002000000000000007702000000000000009999123100000010000000000000BRA1MXBDR000101
012021032502A1NS34      010ANSYS INC   DRN          R$  000000004575000000000457500000000045750000000004575000000000457500000000000000000000000000000001000000000000000005000000000000228750000000000000009999123100000010000000000000BRA1NSBDR008100
012021032502A1NT34      010ANTHEM INC  DRN          R$  000000004143000000000417300000000041400000000004159500000000417300000000040000000000000000000183000000000000000200000000000008319180000000000000009999123100000010000000000000BRA1NTBDR006105
012021032502A1PA34      010APA CORP    DRN          R$  000000001014000000000102900000000010140000000001026700000000102890000000009395000000001330000008000000000000001963000000000020154170000000000000009999123100000010000000000000BRA1PABDR001105
012021032502A1RE34      010ALEXANDRIA RDRN          R$  000000002373600000000237360000000023600000000002373400000000236000000000000000000000000000000002000000000000000121000000000002871920000000000000009999123100000010000000000000BRA1REBDR009104
012021032502A1SN34      010ASCENDIS PHADRN          R$  000000000481000000000049260000000004810000000000486800000000049260000000004355000000000630000002000000000000000040000000000000194720000000000000009999123100000010000000000000BRA1SNBDR008100
012021032502A1TH34      010AUTOHOME INCDRN          R$  000000000537500000000053750000000005375000000000537500000000053750000000005345000000000000000001000000000000000001000000000000005375000000000000009999123100000010000000000000BRA1THBDR008101
012021032502A1TM34      010ATMOS ENERGYDRN          R$  000000002750000000000275000000000027500000000002750000000000275000000000000000000000002800000001000000000000000001000000000000027500000000000000009999123100000010000000000000BRA1TMBDR008105
012021032502A1UA34      010ANGLOGOLD ASDRN          R$  000000000280600000000028140000000002778000000000280500000000028000000000002778000000000307000014000000000000000583000000000001635400000000000000009999123100000010000000000000BRA1UABDR001101
012021032502A1UT34      010AUTODESK INCDRN          R$  000000003657000000000372900000000036570000000003708800000000372900000000035118000000003756000006000000000000000026000000000000964290000000000000009999123100000010000000000000BRA1UTBDR001100
012021032502A1VB34      010AVALONBAY CODRN          R$  000000002629500000000262950000000026295000000002629500000000262950000000019906000000002800000001000000000000000050000000000001314750000000000000009999123100000010000000000000BRA1VBBDR007104
012021032502A1YX34      010ALTERYX INC DRN          R$  000000000233600000000023360000000002336000000000233600000000023360000000002318000000000298800001000000000000000004000000000000009344000000000000009999123100000010000000000000BRA1YXBDR005100
012021032502A1ZN34      010ASTRAZENECA DRN          R$  000000000459500000000047000000000004595000000000465900000000047000000000004689000000000470200144000000000000019866000000000092560891000000000000009999123100000010000000000000BRA1ZNBDR003101
012021032502AALL34      010AMERICAN AIRDRN          R$  000000001203700000000128750000000011986000000001266000000000128750000000011900000000001294600067000000000000002983000000000037765896000000000000009999123100000010000000000000BRAALLBDR003115
012021032502AALR3       010ALLIAR      ON      NM   R$  000000000087300000000008920000000000858000000000087900000000008840000000000882000000000088402458000000000000945300000000000831693500000000000000009999123100000010000000000000BRAALRACNOR6102
012021032502AAPL34      010APPLE       DRN          R$  000000000675000000000068810000000006711000000000678300000000068580000000006857000000000685801356000000000000165202000000001120580463000000000000009999123100000010000000000000BRAAPLBDR004137
012021032502ABBV34      010ABBVIE      DRN          R$  000000005849900000000590000000000057701000000005804100000000590000000000056999000000006200000031000000000000000579000000000033605746000000000000009999123100000010000000000000BRABBVBDR001120
012021032502ABCB4       010ABC BRASIL  PN      N2   R$  000000000146100000000014620000000001420000000000144200000000014470000000001447000000000144906910000000000001120200000000001615740400000000000000009999123100000010000000000000BRABCBACNPR4135
012021032502ABEV3       010AMBEV S/A   ON           R$  000000000147400000000015120000000001471000000000149600000000014990000000001499000000000150025765000000000021553400000000032244159100000000000000009999123100000010000000000000BRABEVACNOR1124
012021032502ABTT34      010ABBOTT      DRN          R$  000000001667200000000168910000000016659000000001667000000000168910000000016046000000001750000071000000000000001270000000000021171334000000000000009999123100000010000000000000BRABTTBDR007137
012021032502ABUD34      010AB INBEV    DRN          R$  000000000583000000000058750000000005760000000000578600000000058750000000005000000000000650000076000000000000004976000000000028795780000000000000009999123100000010000000000000BRABUDBDR009103
012021032502ADBE34      010ADOBE INC   DRN          R$  000000000507300000000051600000000005040000000000509800000000051220000000005020000000000516000156000000000000074268000000000378663290000000000000009999123100000010000000000000BRADBEBDR003101
012021032502AERI3       010AERIS       ON      NM   R$  000000000090200000000009350000000000893000000000091800000000009200000000000920000000000092407334000000000002449900000000002250688300000000000000009999123100000010000000000000BRAERIACNOR4100
012021032502AFLT3       010AFLUENTE T  ON           R$  000000000090700000000009070000000000907000000000090700000000009070000000000906000000000093900002000000000000000300000000000000272100000000000000009999123100000010000000000000BRAFLTACNOR1116
012021032502AGRO3       010BRASILAGRO  ON      NM   R$  000000000223500000000022370000000002124000000000218100000000021800000000002180000000000219002730000000000000612900000000001337001000000000000000009999123100000010000000000000BRAGROACNOR7110
012021032502AIGB34      010AIG GROUP   DRN          R$  000000002595000000000259500000000025950000000002595000000000259500000000000000000000000000000001000000000000000001000000000000025950000000000000009999123100000010000000000000BRAIGBBDR007118
012021032502AIRB34      010AIRBNB      DRN          R$  000000000500100000000050500000000004838000000000493200000000050170000000004970000000000503500302000000000000038461000000000189713027000000000000009999123100000010000000000000BRAIRBBDR004100
012021032502ALPA3       010ALPARGATAS  ON      N1   R$  000000000310000000000031500000000003041000000000309700000000031500000000003100000000000315000004000000000000000400000000000001239100000000000000009999123100000010000000000000BRALPAACNOR0229
012021032502ALPA4       010ALPARGATAS  PN      N1   R$  000000000346800000000036480000000003407000000000356600000000036250000000003625000000000362606746000000000001437700000000005127999400000000000000009999123100000010000000000000BRALPAACNPR7229
012021032502ALPK3       010ESTAPAR     ON      NM   R$  000000000078500000000007930000000000770000000000078300000000007930000000000785000000000079400029000000000000009000000000000007050700000000000000009999123100000010000000000000BRALPKACNOR9100
012021032502ALSO3       010ALIANSCSONAEON      NM   R$  000000000263400000000027130000000002567000000000266000000000026820000000002682000000000268604507000000000000932100000000002479502800000000000000009999123100000010000000000000BRALSOACNOR5100
012021032502ALUP3       010ALUPAR      ON      N2   R$  000000000084100000000008640000000000826000000000085000000000008640000000000846000000000086400051000000000000007000000000000005956600000000000000009999123100000010000000000000BRALUPACNOR8111
012021032502ALUP4       010ALUPAR      PN      N2   R$  000000000080900000000008320000000000795000000000081400000000008270000000000823000000000082700069000000000000012400000000000010099100000000000000009999123100000010000000000000BRALUPACNPR5111
012021032502ALUP11      010ALUPAR      UNT     N2   R$  000000000246300000000025060000000002426000000000248700000000024990000000002497000000000249903800000000000000629800000000001566452300000000000000009999123100000010000000000000BRALUPCDAM15111
012021032502AMAR3       010LOJAS MARISAON      NM   R$  000000000052500000000005520000000000518000000000053700000000005450000000000545000000000054606311000000000004674800000000002514321200000000000000009999123100000010000000000000BRAMARACNOR4112
012021032502AMBP3       010AMBIPAR     ON      NM   R$  000000000242400000000025040000000002384000000000244400000000024500000000002437000000000247001164000000000000216100000000000528250700000000000000009999123100000010000000000000BRAMBPACNOR6100
012021032502AMGN34      010AMGEN       DRN          R$  000000000499500000000050080000000004945000000000498700000000050000000000004700000000000508100366000000000000002406000000000011999164000000000000009999123100000010000000000000BRAMGNBDR004138
012021032502AMZO34      010AMAZON      DRN          R$  000000001111000000000112000000000010933000000001102100000000110590000000011040000000001105901114000000000000090706000000000999709928000000000000009999123100000010000000000000BRAMZOBDR002102
012021032502ANIM3       010ANIMA       ON      NM   R$  000000000088500000000009340000000000866000000000091400000000009320000000000932000000000093305200000000000001957500000000001789214700000000000000009999123100000010000000000000BRANIMACNOR6107
012021032502APER3       010ALPER S.A.  ON      NM   R$  000000000546100000000056380000000005150000000000531200000000052640000000005260000000000528400518000000000000079000000000000419658100000000000000009999123100000010000000000000BRAPERACNOR9103
012021032502APTV34      010APTIV PLC   DRN          R$  000000004047000000000404700000000040380000000004045500000000403800000000000000000000000000000002000000000000000012000000000000485460000000000000009999123100000010000000000000BRAPTVBDR003102
012021032502ARMT34      010ARCELOR     DRN          R$  000000000739000000000074000000000007060000000000727900000000074000000000007300000000000740000044000000000000002010000000000014631449000000000000009999123100000010000000000000BRARMTBDR008117
012021032502ARZZ3       010AREZZO CO   ON      NM   R$  000000000688000000000070520000000006720000000000692900000000069830000000006981000000000698303824000000000000703600000000004875653900000000000000009999123100000010000000000000BRARZZACNOR3138
012021032502ASAI3       010ASSAI       ON      NM   R$  000000000680000000000072000000000006761000000000707600000000071870000000007170000000000718705424000000000001320400000000009344364700000000000000009999123100000010000000000000BRASAIACNOR0100
012021032502ASML34      010ASML HOLD   DRN          R$  000000032489900000003248990000000324899000000032489900000003248990000000000000000000000000000002000000000000000018000000000005848182000000000000009999123100000010000000000000BRASMLBDR003103
012021032502ATOM3       010ATOMPAR     ON           R$  000000000037000000000003780000000000365000000000037200000000003780000000000376000000000037800078000000000000020400000000000007600100000000000000009999123100000010000000000000BRATOMACNOR1103
012021032502ATTB34      010ATT INC     DRN          R$  000000000568100000000057020000000005615000000000567900000000056910000000005635000000000569100293000000000000017255000000000097999082000000000000009999123100000010000000000000BRATTBBDR007135
012021032502ATVI34      010ACTIVISION  DRN          R$  000000005140000000000516990000000050400000000005132600000000516530000000051317000000005165300059000000000000000790000000000040548057000000000000009999123100000010000000000000BRATVIBDR008101
012021032502AURA33      010AURA 360    DR3          R$  000000000651200000000067970000000006475000000000658500000000067000000000006699000000000670012371000000000000322597000000002124456351000000000000009999123100000010000000000000BRAURABDR001103
012021032502AVGO34      010BROADCOM INCDRN ED       R$  000000000734500000000074800000000007280000000000741300000000074730000000007469000000000787600076000000000000002980000000000022092906000000000000009999123100000010000000000000BRAVGOBDR003109
012021032502AVLL3       010ALPHAVILLE  ON      NM   R$  000000000230000000000023450000000002202000000000226500000000022490000000002211000000000225000126000000000000014700000000000033304800000000000000009999123100000010000000000000BRAVLLACNOR5101
012021032502AXPB34      010AMERICAN EXPDRN          R$  000000000775000000000080690000000007750000000000792500000000080690000000007987000000000820000079000000000000000197000000000001561310000000000000009999123100000010000000000000BRAXPBBDR007136
012021032502AZEV3       010AZEVEDO     ON           R$  000000000053900000000006020000000000538000000000056300000000006020000000000602000000000060500161000000000000061000000000000034347400000000000000009999123100000010000000000000BRAZEVACNOR0118
012021032502AZEV4       010AZEVEDO     PN           R$  000000000034100000000003600000000000338000000000034600000000003500000000000346000000000035100155000000000000100000000000000034694800000000000000009999123100000010000000000000BRAZEVACNPR7118
012021032502AZUL4       010AZUL        PN      N2   R$  000000000367200000000037430000000003580000000000366000000000037210000000003721000000000372317574000000000007238400000000026496853200000000000000009999123100000010000000000000BRAZULACNPR4100
012021032502B1AM34      010BROOKFIELD ADRN          R$  000000000630600000000064460000000006306000000000642500000000064460000000006000000000000000000004000000000000000019000000000000122086000000000000009999123100000010000000000000BRB1AMBDR007103
012021032502B1AX34      010BAXTER INTERDRN          R$  000000002319000000000231900000000023190000000002319000000000231900000000023340000000000000000001000000000000000001000000000000023190000000000000009999123100000010000000000000BRB1AXBDR004105
012021032502B1CS34      010BARCLAYS PLCDRN          R$  000000000555500000000056330000000005555000000000562000000000056330000000000000000000000579900003000000000000000120000000000000674490000000000000009999123100000010000000000000BRB1CSBDR000101
012021032502B1DX34      010BECTON DICKIDRN          R$  000000002630000000000263000000000026300000000002630000000000263000000000000000000000000000000001000000000000000004000000000000105200000000000000009999123100000010000000000000BRB1DXBDR008105
012021032502B1IL34      010BILIBILI INCDRN          R$  000000001074900000000108600000000010200000000001066700000000108600000000010805000000001086000018000000000000003429000000000036580480000000000000009999123100000010000000000000BRB1ILBDR002100
012021032502B1NT34      010BIONTECH SE DRN          R$  000000000663500000000068700000000006620000000000670600000000068700000000006771000000000687000077000000000000005327000000000035723648000000000000009999123100000010000000000000BRB1NTBDR005100
012021032502B1PP34      010BP PLC      DRN          R$  000000000342600000000034840000000003398000000000345900000000034660000000003434000000000400000013000000000000001366000000000004725844000000000000009999123100000010000000000000BRB1PPBDR008102
012021032502B1SA34      010BANCO SANTANDRN          R$  000000000701400000000070360000000006990000000000701600000000069900000000006800000000000701500003000000000000000013000000000000091216000000000000009999123100000010000000000000BRB1SABDR004101
012021032502B1SX34      010BOSTON SCIENDRN          R$  000000002104600000000213600000000021046000000002105700000000213400000000021046000000000000000016000000000000000421000000000008865340000000000000009999123100000010000000000000BRB1SXBDR006100
012021032502B1TI34      010BRITISH AMERDRN ED       R$  000000000428400000000044550000000004268000000000432700000000044550000000004338000000000453400015000000000000000723000000000003128560000000000000009999123100000010000000000000BRB1TIBDR005102
012021032502B3SA3       010B3          ON  ED  NM   R$  000000000525000000000054040000000005193000000000534900000000053780000000005376000000000537835530000000000011434400000000061166651700000000000000009999123100000010000000000000BRB3SAACNOR6114
012021032502BAAX39      010MSCI ASIA JPDRN          R$  000000000511800000000051520000000005099000000000514800000000051520000000005130000000000539100011000000000000003302000000000017000274000000000000009999123100000010000000000000BRBAAXBDR009101
012021032502BABA34      010ALIBABAGR   DRN          R$  000000000454200000000046330000000004504000000000453900000000045300000000004530000000000453601013000000000000120509000000000547049892000000000000009999123100000010000000000000BRBABABDR005101
012021032502BACW39      010MSCI ACWI   DRN          R$  000000000527000000000053340000000005225000000000530900000000053340000000005324000000000536500055000000000000021896000000000116258399000000000000009999123100000010000000000000BRBACWBDR007101
012021032502BAER39      010US AEROSPACEDRN ED       R$  000000000280000000000028000000000002800000000000280000000000028000000000002789000000000341000001000000000000000001000000000000002800000000000000009999123100000010000000000000BRBAERBDR003103
012021032502BALM3       010BAUMER      ON           R$  000000000167000000000018260000000001640000000000172200000000016400000000001512000000000169900040000000000000006300000000000010854800000000000000009999123100000010000000000000BRBALMACNOR5050
012021032502BALM4       010BAUMER      PN           R$  000000000125300000000016400000000001253000000000150400000000013510000000001330000000000148200032000000000000005400000000000008123100000000000000009999123100000010000000000000BRBALMACNPR2051
012021032502BAUH4       010EXCELSIOR   PN           R$  000000000920100000000095000000000009201000000000941400000000095000000000008300000000000950000006000000000000000700000000000006590100000000000000009999123100000010000000000000BRBAUHACNPR3115
012021032502BAZA3       010AMAZONIA    ON           R$  000000000406000000000040600000000004059000000000405900000000040600000000004000000000000406500003000000000000000500000000000002029900000000000000009999123100000010000000000000BRBAZAACNOR0174
012021032502BBAS3       010BRASIL      ON      NM   R$  000000000292000000000029840000000002901000000000295300000000029560000000002956000000000295834336000000000017762400000000052466599900000000000000009999123100000010000000000000BRBBASACNOR3297
012021032502BBDC3       010BRADESCO    ON      N1   R$  000000000225600000000023130000000002243000000000229000000000023070000000002306000000000230714621000000000006300700000000014430358100000000000000009999123100000010000000000000BRBBDCACNOR1723
012021032502BBDC4       010BRADESCO    PN      N1   R$  000000000260000000000026660000000002581000000000262600000000026620000000002654000000000266258864000000000054904300000000144209469200000000000000009999123100000010000000000000BRBBDCACNPR8723
012021032502BBRK3       010BR BROKERS  ON      NM   R$  000000000017500000000001830000000000172000000000017700000000001810000000000181000000000018200368000000000000241600000000000042921300000000000000009999123100000010000000000000BRBBRKACNOR4114
012021032502BBSE3       010BBSEGURIDADEON      NM   R$  000000000238200000000024110000000002364000000000238900000000023850000000002385000000000238616589000000000004296300000000010264543700000000000000009999123100000010000000000000BRBBSEACNOR5118
012021032502BBYY34      010BEST BUY    DRN ED       R$  000000006485600000000653500000000064856000000006486500000000653500000000064141000000006850000003000000000000000102000000000006616300000000000000009999123100000010000000000000BRBBYYBDR005116
012021032502BCHI39      010MSCI CHINA  DRN          R$  000000000561500000000056450000000005573000000000561300000000056330000000005601000000000570000044000000000000009362000000000052555765000000000000009999123100000010000000000000BRBCHIBDR001101
012021032502BCSA34      010SANTANDER   DRN          R$  000000000188300000000019170000000001866000000000190900000000019170000000001903000000000191700157000000000000014301000000000027308993000000000000009999123100000010000000000000BRBCSABDR005102
012021032502BDVY39      010SELECT DIVIDDRN ED       R$  000000000642100000000064210000000006421000000000642100000000064210000000006000000000000000000001000000000000000300000000000001926300000000000000009999123100000010000000000000BRBDVYBDR007102
012021032502BEEF3       010MINERVA     ON      NM   R$  000000000100100000000010010000000000966000000000098000000000009800000000000980000000000098115466000000000008946200000000008773593900000000000000009999123100000010000000000000BRBEEFACNOR6110
012021032502BEEM39      010MSCI EMGMARKDRN          R$  000000000520000000000052000000000004858000000000488900000000049130000000004858000000000520000010000000000000002598000000000012702981000000000000009999123100000010000000000000BRBEEMBDR006101
012021032502BEES3       010BANESTES    ON           R$  000000000049500000000004950000000000486000000000049100000000004910000000000491000000000049200325000000000000067000000000000032925000000000000000009999123100000010000000000000BRBEESACNOR9345
012021032502BEES4       010BANESTES    PN           R$  000000000057600000000005810000000000576000000000057900000000005810000000000580000000000058500010000000000000001000000000000000579700000000000000009999123100000010000000000000BRBEESACNPR6270
012021032502BEFA39      010MSCI EAFE   DRN          R$  000000000532500000000053690000000005299000000000535400000000053690000000005300000000000555000010000000000000002042000000000010934147000000000000009999123100000010000000000000BRBEFABDR008101
012021032502BEGD39      010TRTMSCI EAFEDRN          R$  000000000529900000000053140000000005299000000000530000000000053140000000005300000000000000000002000000000000000056000000000000296819000000000000009999123100000010000000000000BRBEGDBDR000101
012021032502BEGE39      010INC ESG AWARDRN          R$  000000000591500000000059150000000005915000000000591500000000059150000000005892000000000000000001000000000000000001000000000000005915000000000000009999123100000010000000000000BRBEGEBDR008101
012021032502BEGU39      010TRUSTMSCI USDRN ED       R$  000000000499900000000050680000000004999000000000504100000000050680000000005040000000000000000241000000000000200054000000001008569946000000000000009999123100000010000000000000BRBEGUBDR004102
012021032502BERK34      010BERKSHIRE   DRN          R$  000000000707200000000071300000000006976000000000704000000000071110000000007080000000000711100392000000000000040669000000000286336796000000000000009999123100000010000000000000BRBERKBDR002101
012021032502BEWG39      010MSCI GERMANYDRN          R$  000000000614500000000062070000000006145000000000619100000000062070000000005999000000000000000003000000000000000280000000000001733620000000000000009999123100000010000000000000BRBEWGBDR000101
012021032502BEWJ39      010MSCI JAPAN  DRN          R$  000000000485000000000049100000000004834000000000488400000000049100000000004872000000000506600009000000000000000521000000000002544708000000000000009999123100000010000000000000BRBEWJBDR004101
012021032502BEWT39      010MSCI TAIWAN DRN          R$  000000000543500000000054780000000005435000000000546000000000054780000000005100000000000000000006000000000000000517000000000002823010000000000000009999123100000010000000000000BRBEWTBDR003101
012021032502BEWU39      010MSCI UK     DRN          R$  000000000579300000000058600000000005785000000000580200000000058600000000005851000000000000000102000000000000134990000000000783272260000000000000009999123100000010000000000000BRBEWUBDR001101
012021032502BEWW39      010MSCI MEXICO DRN          R$  000000000604900000000061300000000006025000000000605900000000061300000000000000000000000000000018000000000000025991000000000157502075000000000000009999123100000010000000000000BRBEWWBDR007102
012021032502BEWY39      010MSCISOUTHKORDRN          R$  000000000613300000000061450000000006133000000000614300000000061450000000004750000000000000000002000000000000001600000000000009829600000000000000009999123100000010000000000000BRBEWYBDR003101
012021032502BEZU39      010MSCIEUROZONEDRN          R$  000000000650000000000065000000000006491000000000649900000000064910000000005604000000000000000003000000000000007917000000000051457647000000000000009999123100000010000000000000BRBEZUBDR004101
012021032502BGIP4       010BANESE      PN           R$  000000000223000000000022640000000002230000000000226200000000022640000000002230000000000226300002000000000000002900000000000006562200000000000000009999123100000010000000000000BRBGIPACNPR8200
012021032502BHPG34      010BHP GROUP   DRN          R$  000000003800000000000381550000000038000000000003807700000000381550000000000000000000000000000002000000000000000020000000000000761550000000000000009999123100000010000000000000BRBHPGBDR007103
012021032502BIAU39      010GOLD TRUST  DRN          R$  000000000468000000000047040000000004645000000000467200000000046610000000004665000000000467000029000000000000011758000000000054938189000000000000009999123100000010000000000000BRBIAUBDR008100
012021032502BIBB39      010NASDAQ BIOTCDRN ED       R$  000000000549000000000056130000000005490000000000556900000000056130000000004748000000000000000017000000000000013570000000000075575973000000000000009999123100000010000000000000BRBIBBBDR006102
012021032502BIDI3       010BANCO INTER ON  EJ  N2   R$  000000000535000000000054100000000005125000000000524900000000051320000000005131000000000513201185000000000000180500000000000947507800000000000000009999123100000010000000000000BRBIDIACNOR3108
012021032502BIDI4       010BANCO INTER PN  EJ  N2   R$  000000000537800000000054050000000005120000000000523400000000051470000000005143000000000514708954000000000002178300000000011403013200000000000000009999123100000010000000000000BRBIDIACNPR0112
012021032502BIDI11      010BANCO INTER UNT EJ  N2   R$  000000001617900000000162000000000015381000000001573100000000155000000000015471000000001550007437000000000001292800000000020338288600000000000000009999123100000010000000000000BRBIDICDAXX3107
012021032502BIDU34      010BAIDU INC   DRN          R$  000000013329800000001332980000000114001000000012149800000001140010000000114000000000011400100165000000000000003563000000000432898861000000000000009999123100000010000000000000BRBIDUBDR002100
012021032502BIEF39      010COREMSCIEAFEDRN          R$  000000000504000000000050920000000005034000000000505900000000050920000000005034000000000000000006000000000000000436000000000002206088000000000000009999123100000010000000000000BRBIEFBDR001101
012021032502BIEM39      010COREMSCI EMKDRN          R$  000000000591500000000059330000000005859000000000591300000000059260000000005920000000000614900016000000000000001085000000000006415695000000000000009999123100000010000000000000BRBIEMBDR007101
012021032502BIEU39      010COREMSCI EURDRN          R$  000000000488200000000050400000000004878000000000499700000000050400000000005045000000000512700093000000000000101934000000000509382332000000000000009999123100000010000000000000BRBIEUBDR000101
012021032502BIGF39      010GLOBAL INFRADRN          R$  000000000600500000000062880000000005850000000000622700000000062880000000006290000000000000000007000000000000000615000000000003829915000000000000009999123100000010000000000000BRBIGFBDR006101
012021032502BIIB34      010BIOGEN      DRN          R$  000000002522000000000259000000000025220000000002560900000000258000000000019500000000002650000013000000000000000390000000000009987880000000000000009999123100000010000000000000BRBIIBBDR001101
012021032502BIJH39      010CORE MIDCAP DRN ED       R$  000000000726500000000072650000000007265000000000726500000000072650000000007150000000000000000001000000000000000378000000000002746170000000000000009999123100000010000000000000BRBIJHBDR006102
012021032502BIJR39      010CORESMALLCAPDRN ED       R$  000000000730400000000075800000000007271000000000734500000000075800000000007350000000000763000006000000000000000215000000000001579295000000000000009999123100000010000000000000BRBIJRBDR005102
012021032502BILF39      010LATIN AMER40DRN          R$  000000000500600000000050720000000004990000000000502400000000050720000000000000000000000000000046000000000000051525000000000258871300000000000000009999123100000010000000000000BRBILFBDR006101
012021032502BIOM3       010BIOMM       ON      MA   R$  000000000158700000000016240000000001551000000000158700000000016020000000001601000000000161900062000000000000011500000000000018257100000000000000009999123100000010000000000000BRBIOMACNOR2108
012021032502BITO39      010CORE SP TOTADRN ED       R$  000000000505600000000050730000000005056000000000506400000000050730000000004870000000000000000002000000000000000002000000000000010129000000000000009999123100000010000000000000BRBITOBDR001102
012021032502BIVB39      010CORE SP 500 DRN ED       R$  000000000553000000000055600000000005442000000000551400000000055400000000005480000000000565000022000000000000148128000000000816778582000000000000009999123100000010000000000000BRBIVBBDR004102
012021032502BIWM39      010RUSSELL 2000DRN ED       R$  000000000597900000000061740000000005920000000000609800000000061740000000006080000000000000000275000000000000001462000000000008916462000000000000009999123100000010000000000000BRBIWMBDR009102
012021032502BIXJ39      010GLOBALHEALTHDRN          R$  000000000532200000000053220000000005322000000000532200000000053220000000005300000000000000000001000000000000000196000000000001043112000000000000009999123100000010000000000000BRBIXJBDR003101
012021032502BIXN39      010GLOBAL TECH DRN          R$  000000000566500000000056700000000005595000000000562400000000056600000000005370000000000000000006000000000000000358000000000002013425000000000000009999123100000010000000000000BRBIXNBDR005101
012021032502BIYF39      010US FINANCIALDRN ED       R$  000000000279800000000028050000000002798000000000280100000000028050000000002600000000000290000002000000000000001404000000000003932620000000000000009999123100000010000000000000BRBIYFBDR009103
012021032502BIYW39      010US TECHNOLOGDRN ED       R$  000000000136400000000013830000000001364000000000137600000000013830000000001371000000000145000007000000000000006513000000000008963467000000000000009999123100000010000000000000BRBIYWBDR004103
012021032502BKBR3       010BK BRASIL   ON      NM   R$  000000000092500000000009630000000000900000000000094000000000009570000000000955000000000095706072000000000001751100000000001647161400000000000000009999123100000010000000000000BRBKBRACNOR4103
012021032502BKNG34      010BOOKING     DRN          R$  000000000713900000000073900000000007065000000000729600000000073760000000007320000000000737800171000000000000030734000000000224251245000000000000009999123100000010000000000000BRBKNGBDR006101
012021032502BLAK34      010BLACKROCK   DRN          R$  000000006845000000000688500000000067452000000006750500000000684500000000068250000000006950000018000000000000000333000000000022479299000000000000009999123100000010000000000000BRBLAKBDR003120
012021032502BMEB4       010MERC BRASIL PN      N1   R$  000000000176600000000017660000000001710000000000175300000000017140000000001717000000000176400016000000000000013800000000000024204700000000000000009999123100000010000000000000BRBMEBACNPR5202
012021032502BMGB4       010BANCO BMG   PN      N1   R$  000000000050000000000005210000000000490000000000050400000000005210000000000514000000000052103608000000000001458400000000000735900400000000000000009999123100000010000000000000BRBMGBACNPR0102
012021032502BMIN3       010MERC INVEST ON           R$  000000000231000000000024000000000002310000000000235500000000024000000000002231000000000239000002000000000000000200000000000000471000000000000000009999123100000010000000000000BRBMINACNOR4168
012021032502BMIN4       010MERC INVEST PN           R$  000000000212200000000021890000000002119000000000218400000000021890000000002119000000000222000004000000000000007500000000000016383000000000000000009999123100000010000000000000BRBMINACNPR1172
012021032502BMKS3       010BIC MONARK  ON           R$  000000002559000000000255940000000025590000000002559200000000255940000000023800000000002528700002000000000000000004000000000000102368000000000000009999123100000010000000000000BRBMKSACNOR9162
012021032502BMOB3       010BEMOBI TECH ON      NM   R$  000000000197000000000020440000000001950000000000197900000000019860000000001985000000000198604203000000000002237000000000004428390000000000000000009999123100000010000000000000BRBMOBACNOR7100
012021032502BMYB34      010BRISTOLMYERSDRN          R$  000000003512400000000355800000000035124000000003520700000000355800000000032000000000003600000027000000000000000126000000000004436100000000000000009999123100000010000000000000BRBMYBBDR000129
012021032502BNDA39      010MSCI INDIA  DRN          R$  000000000584500000000058920000000005800000000000585100000000058920000000005750000000000603400016000000000000000583000000000003411602000000000000009999123100000010000000000000BRBNDABDR004101
012021032502BOAC34      010BANK AMERICADRN          R$  000000000522500000000053580000000005179000000000528800000000053510000000005280000000000535100433000000000000029465000000000155812735000000000000009999123100000010000000000000BRBOACBDR004143
012021032502BOAS3       010BOA VISTA   ON      NM   R$  000000000118900000000012510000000001130000000000120000000000012440000000001244000000000124603527000000000000845800000000001015137700000000000000009999123100000010000000000000BRBOASACNOR6100
012021032502BOBR4       010BOMBRIL     PN           R$  000000000023700000000002430000000000236000000000024000000000002430000000000243000000000024400121000000000000062000000000000014896900000000000000009999123100000010000000000000BRBOBRACNPR3128
012021032502BOEI34      010BOEING      DRN          R$  000000013349900000001403000000000132000000000013885100000001402000000000110150000000015800000037000000000000000316000000000043877035000000000000009999123100000010000000000000BRBOEIBDR003132
012021032502BONY34      010BNY MELLON  DRN          R$  000000002542000000000263800000000025420000000002572900000000263800000000025780000000002771100021000000000000000337000000000008670742000000000000009999123100000010000000000000BRBONYBDR001122
012021032502BOXP34      010BOSTON PROP DRN          R$  000000000585500000000059200000000005855000000000586200000000059100000000005865000000000000000016000000000000000715000000000004191965000000000000009999123100000010000000000000BRBOXPBDR008122
012021032502BPAC3       010BTGP BANCO  ON      N2   R$  000000000450000000000045000000000004347000000000440500000000044490000000004400000000000445000059000000000000006600000000000029079300000000000000009999123100000010000000000000BRBPACACNOR7123
012021032502BPAC5       010BTGP BANCO  PNA     N2   R$  000000000240000000000024010000000002300000000000238900000000024000000000002320000000000241000095000000000000012800000000000030583300000000000000009999123100000010000000000000BRBPACACNPA0123
012021032502BPAC11      010BTGP BANCO  UNT     N2   R$  000000000916100000000093460000000008958000000000918400000000092650000000009264000000000926914989000000000003052000000000028029765400000000000000009999123100000010000000000000BRBPACUNT006108
012021032502BPAN4       010BANCO PAN   PN      N1   R$  000000000105800000000010830000000001042000000000106700000000010760000000001076000000000107706148000000000002961300000000003160414200000000000000009999123100000010000000000000BRBPANACNPR1110
012021032502BRAP3       010BRADESPAR   ON      N1   R$  000000000545600000000054560000000005328000000000536400000000053610000000005361000000000540800048000000000000009800000000000052574500000000000000009999123100000010000000000000BRBRAPACNOR5137
012021032502BRAP4       010BRADESPAR   PN      N1   R$  000000000616700000000062230000000006078000000000616800000000061850000000006175000000000618511768000000000001952300000000012043619800000000000000009999123100000010000000000000BRBRAPACNPR2137
012021032502BRDT3       010PETROBRAS BRON      NM   R$  000000000210100000000022440000000002081000000000220000000000022270000000002227000000000222826986000000000010886200000000023952331600000000000000009999123100000010000000000000BRBRDTACNOR1121
012021032502BRFS3       010BRF SA      ON      NM   R$  000000000240000000000024400000000002368000000000241400000000024280000000002428000000000243014748000000000005235300000000012638464500000000000000009999123100000010000000000000BRBRFSACNOR8119
012021032502BRGE3       010ALFA CONSORCON           R$  000000000090000000000009480000000000900000000000092400000000009480000000000906000000000094800002000000000000000200000000000000184800000000000000009999123100000010000000000000BRBRGEACNOR6202
012021032502BRGE5       010ALFA CONSORCPNA          R$  000000000166700000000016670000000001667000000000166700000000016670000000001250000000000166000001000000000000000100000000000000166700000000000000009999123100000010000000000000BRBRGEACNPA9212
012021032502BRGE8       010ALFA CONSORCPND          R$  000000000080500000000008500000000000805000000000082500000000008500000000000820000000000087000003000000000000000300000000000000247700000000000000009999123100000010000000000000BRBRGEACNPD3215
012021032502BRGE12      010ALFA CONSORCPNF          R$  000000000060600000000006100000000000606000000000060900000000006100000000000612000000000061700002000000000000000900000000000000548600000000000000009999123100000010000000000000BRBRGEACNPF8096
012021032502BRIV3       010ALFA INVEST ON           R$  000000000092600000000009260000000000926000000000092600000000009260000000000928000000000097900001000000000000000100000000000000092600000000000000009999123100000010000000000000BRBRIVACNOR6206
012021032502BRIV4       010ALFA INVEST PN           R$  000000000083100000000008690000000000831000000000085000000000008680000000000860000000000086800007000000000000001400000000000001190400000000000000009999123100000010000000000000BRBRIVACNPR3212
012021032502BRKM3       010BRASKEM     ON      N1   R$  000000000342200000000034300000000003345000000000339700000000034290000000003403000000000342900037000000000000006000000000000020387800000000000000009999123100000010000000000000BRBRKMACNOR1117
012021032502BRKM5       010BRASKEM     PNA     N1   R$  000000000371000000000038100000000003634000000000371700000000037770000000003777000000000377913433000000000002910000000000010818864300000000000000009999123100000010000000000000BRBRKMACNPA4117
012021032502BRKM6       010BRASKEM     PNB     N1   R$  000000000202900000000020590000000002020000000000203000000000020200000000002001000000000220000009000000000000001800000000000003654500000000000000009999123100000010000000000000BRBRKMACNPB2113
012021032502BRML3       010BR MALLS PARON      NM   R$  000000000097100000000009950000000000948000000000097600000000009820000000000981000000000098228310000000000023272200000000022715989200000000000000009999123100000010000000000000BRBRMLACNOR9115
012021032502BRPR3       010BR PROPERT  ON      NM   R$  000000000085600000000008890000000000843000000000087300000000008820000000000882000000000088407001000000000001896500000000001656058700000000000000009999123100000010000000000000BRBRPRACNOR9119
012021032502BRSR3       010BANRISUL    ON      N1   R$  000000000134600000000014000000000001330000000000138200000000013860000000001381000000000138600057000000000000026000000000000035942000000000000000009999123100000010000000000000BRBRSRACNOR3172
012021032502BRSR5       010BANRISUL    PNA     N1   R$  000000000169500000000016950000000001651000000000169400000000016510000000001651000000000182000004000000000000004400000000000007453600000000000000009999123100000010000000000000BRBRSRACNPA6176
012021032502BRSR6       010BANRISUL    PNB     N1   R$  000000000118100000000012420000000001170000000000121100000000012280000000001228000000000123215844000000000007091900000000008593030500000000000000009999123100000010000000000000BRBRSRACNPB4175
012021032502BSEV3       010BIOSEV      ON      NM   R$  000000000086900000000008690000000000835000000000085600000000008590000000000855000000000085900135000000000000110200000000000094436500000000000000009999123100000010000000000000BRBSEVACNOR3102
012021032502BSLI3       010BRB BANCO   ON           R$  000000000491200000000049120000000004911000000000491100000000049110000000004911000000000497900005000000000000001200000000000005893400000000000000009999123100000010000000000000BRBSLIACNOR5181
012021032502BSLI4       010BRB BANCO   PN           R$  000000000375000000000037500000000003750000000000375000000000037500000000003100000000000371000001000000000000000400000000000001500000000000000000009999123100000010000000000000BRBSLIACNPR2181
012021032502BSLV39      010SILVER TRUSTDRN          R$  000000000430000000000044170000000004300000000000434300000000043920000000004100000000000441700024000000000000004319000000000018760223000000000000009999123100000010000000000000BRBSLVBDR002100
012021032502BTOW3       010B2W DIGITAL ON      NM   R$  000000000604800000000061070000000005924000000000603500000000060800000000006079000000000608020933000000000004921600000000029703115400000000000000009999123100000010000000000000BRBTOWACNOR8111
012021032502BTTL3       010BATTISTELLA ON           R$  000000000091000000000009100000000000907000000000090900000000009070000000000911000000000092400003000000000000000300000000000000272700000000000000009999123100000010000000000000BRBTTLACNOR0108
012021032502BUSM39      010MSCI US MVOLDRN ED       R$  000000000484700000000048510000000004825000000000485000000000048510000000004780000000000000000004000000000000000300000000000001455180000000000000009999123100000010000000000000BRBUSMBDR002102
012021032502C1BS34      010VIACOMCBS   DRN          R$  000000004000000000000403810000000036700000000003746500000000378000000000037000000000003780000129000000000000003253000000000121874111000000000000009999123100000010000000000000BRC1BSBDR001106
012021032502C1CI34      010CROWN CASTLEDRN          R$  000000002348200000000234820000000023480000000002348100000000234800000000022850000000000000000002000000000000000005000000000000117406000000000000009999123100000010000000000000BRC1CIBDR000105
012021032502C1CL34      010CARNIVAL CORDRN          R$  000000001380100000000146610000000013679000000001437500000000146610000000013800000000001466100038000000000000004094000000000058853171000000000000009999123100000010000000000000BRC1CLBDR004101
012021032502C1HI34      010CHINA PETROLDRN          R$  000000000476600000000048640000000004766000000000481000000000048220000000004761000000000000000007000000000000000408000000000001962526000000000000009999123100000010000000000000BRC1HIBDR009100
012021032502C1IC34      010CIGNA CORP  DRN          R$  000000003360000000000336000000000033600000000003360000000000336000000000000000000000000000000001000000000000000002000000000000067200000000000000009999123100000010000000000000BRC1ICBDR000102
012021032502C1MA34      010COMERICA INCDRN          R$  000000001958000000000195800000000019580000000001958000000000195800000000000000000000000000000003000000000000000013000000000000254540000000000000009999123100000010000000000000BRC1MABDR006105
012021032502C1MG34      010CHIPOTLE MEXDRN          R$  000000003987000000000398700000000039870000000003987000000000398700000000039250000000000000000001000000000000000001000000000000039870000000000000009999123100000010000000000000BRC1MGBDR003100
012021032502C1NP34      010CENTERPOINT DRN          R$  000000001246000000000124600000000012430000000001245000000000124300000000009900000000000000000002000000000000000003000000000000037350000000000000009999123100000010000000000000BRC1NPBDR002105
012021032502C1NS34      010CELANESE CORDRN          R$  000000004182000000000418200000000041820000000004182000000000418200000000000000000000000000000001000000000000000002000000000000083640000000000000009999123100000010000000000000BRC1NSBDR006105
012021032502C1OG34      010CABOT OIL   DRN          R$  000000001060300000000106030000000010603000000001060300000000106030000000000000000000000000000002000000000000000100000000000001060300000000000000009999123100000010000000000000BRC1OGBDR009105
012021032502C1OU34      010COUPA SOFTWADRN          R$  000000000460000000000046000000000004600000000000460000000000046000000000004500000000000516800001000000000000000001000000000000004600000000000000009999123100000010000000000000BRC1OUBDR000100
012021032502C1SU34      010CREDIT SUISSDRN          R$  000000000371000000000037300000000003675000000000371900000000037300000000003640000000000375800013000000000000000548000000000002038120000000000000009999123100000010000000000000BRC1SUBDR001101
012021032502C1TV34      010CORTEVA INC DRN          R$  000000000649600000000066400000000006496000000000658400000000066370000000000000000000000665000006000000000000000152000000000001000883000000000000009999123100000010000000000000BRC1TVBDR007102
012021032502CAJI34      010CANON INC   DRN          R$  000000001245000000000127900000000012450000000001278400000000127900000000012640000000000000000005000000000000000431000000000005510120000000000000009999123100000010000000000000BRCAJIBDR009103
012021032502CAMB3       010CAMBUCI     ON           R$  000000000044700000000004550000000000446000000000045100000000004470000000000447000000000044900072000000000000039000000000000017625500000000000000009999123100000010000000000000BRCAMBACNOR4119
012021032502CAML3       010CAMIL       ON  EJ  NM   R$  000000000102700000000010340000000001007000000000102200000000010310000000001029000000000103107547000000000001783400000000001823716600000000000000009999123100000010000000000000BRCAMLACNOR3114
012021032502CAPH34      010CAPRI HOLDI DRN          R$  000000002777600000000281090000000027776000000002778400000000281090000000019400000000003020000002000000000000000041000000000001139149000000000000009999123100000010000000000000BRCAPHBDR008100
012021032502CARD3       010CSU CARDSYSTON      NM   R$  000000000165200000000017100000000001600000000000164500000000017100000000001702000000000171000769000000000000154600000000000254343400000000000000009999123100000010000000000000BRCARDACNOR9121
012021032502CASH3       010MELIUZ      ON      NM   R$  000000000227600000000023200000000002167000000000224900000000022400000000002240000000000224204938000000000001274500000000002866651400000000000000009999123100000010000000000000BRCASHACNOR8100
012021032502CATP34      010CATERPILLAR DRN          R$  000000000800000000000080000000000007673000000000779700000000079560000000007868000000000800000054000000000000008818000000000068755032000000000000009999123100000010000000000000BRCATPBDR003139
012021032502CCPR3       010CYRE COM-CCPON      NM   R$  000000000111400000000011500000000001091000000000112200000000011480000000001118000000000114801270000000000000272100000000000305427900000000000000009999123100000010000000000000BRCCPRACNOR9115
012021032502CCRO3       010CCR SA      ON      NM   R$  000000000123000000000012300000000001192000000000120500000000012040000000001203000000000120426261000000000012613700000000015209661400000000000000009999123100000010000000000000BRCCROACNOR2138
012021032502CEAB3       010CEA MODAS   ON      NM   R$  000000000113100000000011520000000001089000000000111800000000011450000000001141000000000114505946000000000001904300000000002129276100000000000000009999123100000010000000000000BRCEABACNOR1101
012021032502CEBR3       010CEB         ON           R$  000000001449000000000150890000000014488000000001488400000000150890000000014950000000001508900023000000000000004600000000000068468400000000000000009999123100000010000000000000BRCEBRACNOR5118
012021032502CEDO3       010CEDRO       ON      N1   R$  000000000102300000000010790000000001023000000000104400000000010790000000001027000000000107600010000000000000001300000000000001357200000000000000009999123100000010000000000000BRCEDOACNOR8096
012021032502CEDO4       010CEDRO       PN      N1   R$  000000000052800000000005400000000000524000000000053300000000005400000000000534000000000054000011000000000000002700000000000001439600000000000000009999123100000010000000000000BRCEDOACNPR5128
012021032502CEEB3       010COELBA      ON           R$  000000000410000000000041400000000004100000000000412000000000041400000000004008000000000414000002000000000000000200000000000000824000000000000000009999123100000010000000000000BRCEEBACNOR3180
012021032502CEED3       010CEEE-D      ON      N1   R$  000000000499800000000049990000000004804000000000493300000000049990000000004815000000000529700003000000000000000300000000000001480100000000000000009999123100000010000000000000BRCEEDACNOR9103
012021032502CEGR3       010CEG         ON           R$  000000000612600000000061260000000006126000000000612600000000061260000000005500000000000632900001000000000000000100000000000000612600000000000000009999123100000010000000000000BRCEGRACNOR4138
012021032502CESP3       010CESP        ON      N1   R$  000000000322900000000032310000000003191000000000321700000000032190000000003200000000000321900029000000000000007500000000000024128200000000000000009999123100000010000000000000BRCESPACNOR3170
012021032502CESP5       010CESP        PNA     N1   R$  000000000383400000000038340000000003816000000000382500000000038170000000003816000000000420000003000000000000000400000000000001530100000000000000009999123100000010000000000000BRCESPACNPA6117
012021032502CESP6       010CESP        PNB     N1   R$  000000000274000000000027950000000002712000000000276800000000027810000000002778000000000278106078000000000002782200000000007702407500000000000000009999123100000010000000000000BRCESPACNPB4129
012021032502CGAS5       010COMGAS      PNA          R$  000000001527800000000155990000000015050000000001529400000000155990000000015300000000001560000008000000000000006700000000000102471700000000000000009999123100000010000000000000BRCGASACNPA3150
012021032502CGRA3       010GRAZZIOTIN  ON           R$  000000000310000000000031000000000003100000000000310000000000031000000000003100000000000315300001000000000000000100000000000000310000000000000000009999123100000010000000000000BRCGRAACNOR2072
012021032502CGRA4       010GRAZZIOTIN  PN           R$  000000000286800000000028800000000002820000000000285300000000028380000000002837000000000290000077000000000000010400000000000029676600000000000000009999123100000010000000000000BRCGRAACNPR9072
012021032502CHCM34      010CHARTER COMMDRN          R$  000000000618200000000061820000000005955000000000601600000000060400000000005960000000000625500099000000000000012684000000000076315928000000000000009999123100000010000000000000BRCHCMBDR001101
012021032502CHVX34      010CHEVRON     DRN          R$  000000000592000000000059640000000005776000000000588100000000059610000000005945000000000596100260000000000000028911000000000170025855000000000000009999123100000010000000000000BRCHVXBDR008141
012021032502CIEL3       010CIELO       ON      NM   R$  000000000036000000000003650000000000353000000000035900000000003630000000000362000000000036311399000000000021880000000000007869800600000000000000009999123100000010000000000000BRCIELACNOR3144
012021032502CLSC4       010CELESC      PN      N2   R$  000000000571200000000059000000000005712000000000579100000000058880000000005711000000000588900025000000000000019700000000000114084700000000000000009999123100000010000000000000BRCLSCACNPR3116
012021032502CLXC34      010CLOROX CO   DRN          R$  000000002680100000000268010000000026801000000002680100000000268010000000000000000000002740000001000000000000000004000000000000107204000000000000009999123100000010000000000000BRCLXCBDR000106
012021032502CMCS34      010COMCAST     DRN          R$  000000000639000000000064070000000006284000000000633500000000064050000000006181000000000640500098000000000000021789000000000138035701000000000000009999123100000010000000000000BRCMCSBDR008138
012021032502CMIG3       010CEMIG       ON      N1   R$  000000000148200000000015230000000001464000000000150300000000015140000000001511000000000151401845000000000000354300000000000532727200000000000000009999123100000010000000000000BRCMIGACNOR6226
012021032502CMIG4       010CEMIG       PN      N1   R$  000000000120300000000012500000000001193000000000123200000000012440000000001243000000000124429275000000000010873900000000013401216500000000000000009999123100000010000000000000BRCMIGACNPR3227
012021032502CMIN3       010CSNMINERACAOON      N2   R$  000000000085000000000008550000000000830000000000084200000000008300000000000830000000000083305384000000000004809400000000004050054200000000000000009999123100000010000000000000BRCMINACNOR2100
012021032502CNTO3       010CENTAURO    ON      NM   R$  000000000267000000000027540000000002596000000000270300000000027090000000002709000000000271009083000000000002016400000000005451470100000000000000009999123100000010000000000000BRCNTOACNOR5100
012021032502COCA34      010COCA COLA   DRN          R$  000000000485400000000049250000000004814000000000488000000000049220000000004922000000000492502351000000000000031109000000000151833716000000000000009999123100000010000000000000BRCOCABDR002139
012021032502COCE5       010COELCE      PNA          R$  000000000535300000000054180000000005300000000000536200000000053850000000005385000000000540500108000000000000018800000000000100816100000000000000009999123100000010000000000000BRCOCEACNPA3140
012021032502COGN3       010COGNA ON    ON      NM   R$  000000000038900000000004020000000000381000000000039300000000003990000000000399000000000040027715000000000040711800000000016026253700000000000000009999123100000010000000000000BRCOGNACNOR2101
012021032502COLG34      010COLGATE     DRN          R$  000000000627000000000063300000000006265000000000629000000000063300000000006219000000000680000009000000000000000079000000000000496955000000000000009999123100000010000000000000BRCOLGBDR000140
012021032502COPH34      010COPHILLIPS  DRN          R$  000000000740800000000076000000000007300000000000749800000000076000000000007375000000000827200042000000000000000712000000000005339035000000000000009999123100000010000000000000BRCOPHBDR009137
012021032502COTY34      010COTY INC    DRN          R$  000000000230600000000024520000000002298000000000235700000000024520000000002425000000000249000361000000000000007401000000000017451157000000000000009999123100000010000000000000BRCOTYBDR006116
012021032502COWC34      010COSTCO      DRN          R$  000000000477300000000049270000000004773000000000487900000000048680000000004820000000000486800150000000000000037713000000000184030553000000000000009999123100000010000000000000BRCOWCBDR006123
012021032502CPFE3       010CPFL ENERGIAON      NM   R$  000000000298500000000030950000000002970000000000304900000000030770000000003077000000000307820536000000000004399200000000013416801000000000000000009999123100000010000000000000BRCPFEACNOR0130
012021032502CPLE3       010COPEL       ON      N1   R$  000000000066900000000006760000000000661000000000066700000000006690000000000667000000000066904094000000000002639800000000001761154700000000000000009999123100000010000000000000BRCPLEACNOR8141
012021032502CPLE6       010COPEL       PNB     N1   R$  000000000068700000000006950000000000676000000000068500000000006870000000000687000000000068836701000000000018254100000000012514441400000000000000009999123100000010000000000000BRCPLEACNPB9138
012021032502CRFB3       010CARREFOUR BRON      NM   R$  000000000217000000000022350000000002156000000000220700000000022140000000002207000000000221427923000000000008553000000000018880341200000000000000009999123100000010000000000000BRCRFBACNOR2107
012021032502CRHP34      010CRH PLC     DRN ED       R$  000000002560000000000256000000000025600000000002560000000000256000000000024840000000000000000001000000000000000003000000000000076800000000000000009999123100000010000000000000BRCRHPBDR002103
012021032502CRIP34      010CTRIPCOM    DRN          R$  000000002132000000000217000000000021320000000002166700000000216600000000000000000000002218000006000000000000000039000000000000845020000000000000009999123100000010000000000000BRCRIPBDR000100
012021032502CRIV3       010ALFA FINANC ON           R$  000000000051200000000005120000000000510000000000051000000000005100000000000514000000000053100003000000000000000500000000000000255400000000000000009999123100000010000000000000BRCRIVACNOR4194
012021032502CRIV4       010ALFA FINANC PN           R$  000000000063900000000006390000000000639000000000063900000000006390000000000623000000000063800001000000000000000100000000000000063900000000000000009999123100000010000000000000BRCRIVACNPR1205
012021032502CRPG5       010CRISTAL     PNA          R$  000000000579400000000058000000000005695000000000576500000000057880000000005700000000000578800079000000000000013800000000000079557100000000000000009999123100000010000000000000BRCRPGACNPA3109
012021032502CRPG6       010CRISTAL     PNB          R$  000000000575000000000057500000000005700000000000570300000000057000000000005651000000000574900006000000000000001300000000000007415000000000000000009999123100000010000000000000BRCRPGACNPB1109
012021032502CSAN3       010COSAN       ON      NM   R$  000000000901200000000093000000000008874000000000909200000000092100000000009206000000000921013026000000000002520100000000022912870200000000000000009999123100000010000000000000BRCSANACNOR6120
012021032502CSCO34      010CISCO       DRN          R$  000000000570900000000058000000000005686000000000571600000000057520000000005690000000000600000308000000000000008549000000000048867552000000000000009999123100000010000000000000BRCSCOBDR004141
012021032502CSED3       010CRUZEIRO EDUON      NM   R$  000000000119800000000011980000000001163000000000118000000000011720000000001172000000000118001587000000000000270500000000000319445400000000000000009999123100000010000000000000BRCSEDACNOR9100
012021032502CSMG3       010COPASA      ON  EJ  NM   R$  000000000147500000000015050000000001446000000000148200000000014820000000001482000000000148311012000000000002321700000000003441315200000000000000009999123100000010000000000000BRCSMGACNOR5161
012021032502CSNA3       010SID NACIONALON           R$  000000000336200000000034170000000003285000000000335400000000033470000000003347000000000334839270000000000017808000000000059744328500000000000000009999123100000010000000000000BRCSNAACNOR6252
012021032502CTGP34      010CITIGROUP   DRN          R$  000000000660000000000067920000000006574000000000671000000000067920000000006685000000000679200076000000000000010782000000000072353740000000000000009999123100000010000000000000BRCTGPBDR000141
012021032502CTKA3       010KARSTEN     ON           R$  000000000253200000000025320000000002532000000000253200000000025320000000002210000000000264000001000000000000000100000000000000253200000000000000009999123100000010000000000000BRCTKAACNOR0043
012021032502CTKA4       010KARSTEN     PN           R$  000000000190500000000019180000000001805000000000185700000000018890000000001850000000000188900012000000000000001200000000000002228500000000000000009999123100000010000000000000BRCTKAACNPR7043
012021032502CTNM3       010COTEMINAS   ON           R$  000000000119400000000012000000000001194000000000119700000000012000000000001087000000000123800002000000000000000200000000000000239400000000000000009999123100000010000000000000BRCTNMACNOR9130
012021032502CTNM4       010COTEMINAS   PN           R$  000000000052800000000005500000000000527000000000053600000000005300000000000530000000000053600037000000000000020300000000000010891300000000000000009999123100000010000000000000BRCTNMACNPR6129
012021032502CTSA3       010SANTANENSE  ON           R$  000000000027400000000002740000000000255000000000026000000000002610000000000258000000000026200098000000000000042400000000000011046300000000000000009999123100000010000000000000BRCTSAACNOR3060
012021032502CTSA4       010SANTANENSE  PN           R$  000000000019100000000001940000000000188000000000019000000000001940000000000193000000000019400030000000000000012300000000000002338700000000000000009999123100000010000000000000BRCTSAACNPR0060
012021032502CURY3       010CURY S/A    ON      NM   R$  000000000089000000000009780000000000874000000000092200000000008980000000000896000000000089806916000000000002487500000000002295284200000000000000009999123100000010000000000000BRCURYACNOR3100
012021032502CVCB3       010CVC BRASIL  ON      NM   R$  000000000187500000000019240000000001833000000000189200000000019190000000001912000000000191912626000000000005572000000000010547287000000000000000009999123100000010000000000000BRCVCBACNOR1113
012021032502CVSH34      010CVS HEALTH  DRN          R$  000000002060800000000209200000000020608000000002064500000000209200000000019200000000002262900029000000000000000367000000000007576960000000000000009999123100000010000000000000BRCVSHBDR008119
012021032502CYRE3       010CYRELA REALTON      NM   R$  000000000233500000000024440000000002290000000000236700000000024190000000002419000000000242029627000000000008489700000000020099934900000000000000009999123100000010000000000000BRCYREACNOR7135
012021032502D1EX34      010DEXCOM INC  DRN          R$  000000000400500000000040050000000003905000000000393100000000039300000000003600000000000583800003000000000000000018000000000000070765000000000000009999123100000010000000000000BRD1EXBDR004100
012021032502D1LR34      010DIGITAL REALDRN          R$  000000001953000000000195300000000019530000000001953000000000195300000000018900000000002141300003000000000000000100000000000001953000000000000000009999123100000010000000000000BRD1LRBDR001105
012021032502D1OC34      010DOCUSIGN INCDRN          R$  000000000555000000000057200000000005480000000000567000000000056890000000005580000000000568900041000000000000003249000000000018423791000000000000009999123100000010000000000000BRD1OCBDR007100
012021032502DASA3       010DASA        ON           R$  000000001299900000000144000000000012999000000001348700000000143300000000014100000000001439500030000000000000003800000000000051253000000000000000009999123100000010000000000000BRDASAACNOR1120
012021032502DBAG34      010DEUTSCHE AK DRN          R$  000000000688500000000070100000000006880000000000699100000000070100000000006930000000000705300004000000000000000047000000000000328590000000000000009999123100000010000000000000BRDBAGBDR008100
012021032502DCVY34      010DISCOVERY INDRN A        R$  000000003400000000000346500000000033365000000003351200000000333950000000015000000000003381800007000000000000000105000000000003518800000000000000009999123100000010000000000000BRDCVYBDR005100
012021032502DCVY35      010DISCOVERY INDRN C        R$  000000003018000000000301800000000028500000000002921100000000289500000000028500000000003100000014000000000000000714000000000020856850000000000000009999123100000010000000000000BRDCVYBDR013100
012021032502DEAI34      010DELTA       DRN          R$  000000002570000000000266000000000025700000000002575900000000266000000000020000000000002800000007000000000000000215000000000005538280000000000000009999123100000010000000000000BRDEAIBDR008116
012021032502DEEC34      010DEERE CO    DRN          R$  000000010199700000001028300000000101997000000010238700000001028300000000102008000000011000000005000000000000000048000000000004914597000000000000009999123100000010000000000000BRDEECBDR003107
012021032502DGCO34      010DOLLAR GENERDRN          R$  000000005555000000000560000000000055550000000005580000000000560000000000000000000000005940000006000000000000000010000000000000558000000000000000009999123100000010000000000000BRDGCOBDR007107
012021032502DHER34      010DANAHER CORPDRN ED       R$  000000003080000000000310000000000030800000000003080200000000310000000000029300000000000000000004000000000000000357000000000010996400000000000000009999123100000010000000000000BRDHERBDR004124
012021032502DIRR3       010DIRECIONAL  ON      NM   R$  000000000120400000000012570000000001186000000000123300000000012510000000001250000000000125103995000000000000958100000000001181637900000000000000009999123100000010000000000000BRDIRRACNOR0113
012021032502DISB34      010WALT DISNEY DRN          R$  000000000697100000000070940000000006817000000000695500000000070700000000007070000000000707101089000000000000078178000000000543743107000000000000009999123100000010000000000000BRDISBBDR006115
012021032502DMMO3       010DOMMO       ON           R$  000000000008700000000000890000000000086000000000008700000000000870000000000086000000000008701360000000000005153700000000000450139600000000000000009999123100000010000000000000BRDMMOACNOR0103
012021032502DMVF3       010D1000VFARMA ON      NM   R$  000000000091500000000009190000000000889000000000089900000000008970000000000897000000000090601569000000000000708200000000000637032900000000000000009999123100000010000000000000BRDMVFACNOR9100
012021032502DOHL3       010DOHLER      ON           R$  000000000280000000000028000000000002800000000000280000000000028000000000002550000000000280000001000000000000000100000000000000280000000000000000009999123100000010000000000000BRDOHLACNOR2059
012021032502DOHL4       010DOHLER      PN           R$  000000000051300000000005380000000000513000000000052800000000005380000000000525000000000054000023000000000000014100000000000007455500000000000000009999123100000010000000000000BRDOHLACNPR9062
012021032502DTCY3       010DTCOM-DIRECTON           R$  000000000099400000000009940000000000994000000000099400000000009940000000000953000000000099400002000000000000000200000000000000198800000000000000009999123100000010000000000000BRDTCYACNOR5109
012021032502DTEX3       010DURATEX     ON      NM   R$  000000000186100000000019190000000001835000000000188800000000019110000000001910000000000191108890000000000002382600000000004500100200000000000000009999123100000010000000000000BRDTEXACNOR3130
012021032502DUKB34      010DUKE ENERGY DRN          R$  000000005380000000000538000000000053700000000005376600000000537000000000047000000000000000000002000000000000000003000000000000161300000000000000009999123100000010000000000000BRDUKBBDR008118
012021032502E1CL34      010ECOLAB INC  DRN          R$  000000002920900000000292090000000029209000000002920900000000292090000000000000000000000000000001000000000000001323000000000038643507000000000000009999123100000010000000000000BRE1CLBDR002105
012021032502E1DU34      010NEW ORIENTALDRN          R$  000000000059400000000006060000000000594000000000060000000000006060000000000507000000000000000002000000000000000400000000000000240000000000000000009999123100000010000000000000BRE1DUBDR001101
012021032502E1MR34      010EMERSON ELECDRN          R$  000000004904100000000492000000000049041000000004912000000000492000000000020997000000000000000002000000000000000002000000000000098241000000000000009999123100000010000000000000BRE1MRBDR008105
012021032502E1NI34      010ENEL AMERICADRN          R$  000000000466200000000047460000000004662000000000471500000000047300000000004582000000000475000010000000000000000136000000000000641264000000000000009999123100000010000000000000BRE1NIBDR005101
012021032502E1OG34      010EOG RESOURCEDRN          R$  000000002002000000000203950000000019800000000002011100000000203950000000019700000000002200000010000000000000000033000000000000663692000000000000009999123100000010000000000000BRE1OGBDR007105
012021032502E1QN34      010EQUINOR ASA DRN          R$  000000000539500000000054400000000005395000000000541000000000054400000000004810000000000000000002000000000000000003000000000000016230000000000000009999123100000010000000000000BRE1QNBDR008102
012021032502E1QR34      010EQUITY RESIDDRN          R$  000000002025000000000202500000000020250000000002025000000000202500000000015000000000000000000001000000000000000131000000000002652750000000000000009999123100000010000000000000BRE1QRBDR009103
012021032502E1SS34      010ESSEX PROPERDRN          R$  000000001565000000000156500000000015650000000001565000000000156500000000000000000000000000000001000000000000000008000000000000125200000000000000009999123100000010000000000000BRE1SSBDR003104
012021032502E1TN34      010EATON CORP PDRN          R$  000000003753000000000386600000000037530000000003836700000000386600000000000000000000000000000008000000000000000092000000000003529769000000000000009999123100000010000000000000BRE1TNBDR002105
012021032502EAIN34      010ELECTR ARTS DRN          R$  000000003699000000000369900000000036330000000003669000000000369000000000036500000000003717000022000000000000000055000000000002017990000000000000009999123100000010000000000000BREAINBDR007102
012021032502EALT3       010ACO ALTONA  ON           R$  000000000155100000000016490000000001551000000000162300000000016100000000001608000000000164800021000000000000002600000000000004222000000000000000009999123100000010000000000000BREALTACNOR4133
012021032502EALT4       010ACO ALTONA  PN           R$  000000000049500000000005170000000000494000000000050400000000005170000000000510000000000051700110000000000000056700000000000028614600000000000000009999123100000010000000000000BREALTACNPR1133
012021032502EBAY34      010EBAY        DRN          R$  000000001618000000000164000000000016180000000001618600000000163500000000015542000000001675000014000000000000000313000000000005066520000000000000009999123100000010000000000000BREBAYBDR009110
012021032502ECOR3       010ECORODOVIAS ON      NM   R$  000000000112600000000011450000000001105000000000112200000000011140000000001114000000000111513207000000000004688200000000005262626500000000000000009999123100000010000000000000BRECORACNOR8116
012021032502EGIE3       010ENGIE BRASILON      NM   R$  000000000401300000000041260000000003995000000000409200000000040990000000004099000000000410008051000000000002591300000000010605494900000000000000009999123100000010000000000000BREGIEACNOR9114
012021032502EKTR3       010ELEKTRO     ON           R$  000000000389800000000038980000000003898000000000389800000000038980000000000000000000000389900001000000000000000500000000000001949000000000000000009999123100000010000000000000BREKTRACNOR0145
012021032502EKTR4       010ELEKTRO     PN           R$  000000000255000000000027000000000002550000000000264600000000026990000000002458000000000269700008000000000000002300000000000006086500000000000000009999123100000010000000000000BREKTRACNPR7145
012021032502ELCI34      010ESTEE LAUDERDRN          R$  000000008009300000000800930000000080093000000008009300000000800930000000000000000000008200000001000000000000000001000000000000080093000000000000009999123100000010000000000000BRELCIBDR007106
012021032502ELET3       010ELETROBRAS  ON      N1   R$  000000000329900000000034280000000003239000000000334200000000033890000000003389000000000339022760000000000009030500000000030188809500000000000000009999123100000010000000000000BRELETACNOR6156
012021032502ELET6       010ELETROBRAS  PNB     N1   R$  000000000336500000000034690000000003317000000000341300000000034350000000003434000000000343511809000000000003061600000000010451619800000000000000009999123100000010000000000000BRELETACNPB7073
012021032502ELMD3       010ELETROMIDIA ON      NM   R$  000000000153000000000015720000000001521000000000155000000000015600000000001560000000000156500412000000000000118600000000000183831300000000000000009999123100000010000000000000BRELMDACNOR3100
012021032502EMAE4       010EMAE        PN           R$  000000000592800000000060640000000005928000000000601400000000060000000000006000000000000606500011000000000000001600000000000009623600000000000000009999123100000010000000000000BREMAEACNPR1116
012021032502EMBR3       010EMBRAER     ON  ATZ NM   R$  000000000131500000000013430000000001269000000000130900000000013190000000001319000000000132035578000000000017606500000000023053504500000000000000009999123100000010000000000000BREMBRACNOR4190
012021032502ENAT3       010ENAUTA PART ON      NM   R$  000000000154800000000015630000000001507000000000153300000000015580000000001557000000000155804824000000000002011400000000003084487000000000000000009999123100000010000000000000BRENATACNOR0101
012021032502ENBR3       010ENERGIAS BR ON      NM   R$  000000000188700000000019540000000001877000000000192700000000019320000000001932000000000193316341000000000004382100000000008447073700000000000000009999123100000010000000000000BRENBRACNOR2130
012021032502ENEV3       010ENEVA       ON      NM   R$  000000000155300000000016520000000001536000000000161700000000016360000000001635000000000163620589000000000006030900000000009757644900000000000000009999123100000010000000000000BRENEVACNOR8105
012021032502ENGI3       010ENERGISA    ON  ED  N2   R$  000000000145500000000015730000000001455000000000151900000000015330000000001538000000000156600258000000000000034700000000000052720100000000000000009999123100000010000000000000BRENGIACNOR0139
012021032502ENGI4       010ENERGISA    PN  ED  N2   R$  000000000068000000000007280000000000674000000000071500000000007210000000000715000000000072100336000000000000095900000000000068594900000000000000009999123100000010000000000000BRENGIACNPR7135
012021032502ENGI11      010ENERGISA    UNT ED  N2   R$  000000000415100000000044740000000004150000000000436500000000044000000000004400000000000440508225000000000004011100000000017508872500000000000000009999123100000010000000000000BRENGICDAM16129
012021032502ENJU3       010ENJOEI      ON      NM   R$  000000000099900000000010630000000000988000000000102300000000010250000000001025000000000102705576000000000001977000000000002023213400000000000000009999123100000010000000000000BRENJUACNOR9100
012021032502ENMT3       010ENERGISA MT ON  ED       R$  000000000415000000000042000000000004150000000000416200000000042000000000003685000000000428000003000000000000000400000000000001665000000000000000009999123100000010000000000000BRENMTACNOR5112
012021032502ENMT4       010ENERGISA MT PN  ED       R$  000000000414000000000041990000000004140000000000416900000000041990000000000000000000000419900002000000000000000200000000000000833900000000000000009999123100000010000000000000BRENMTACNPR2116
012021032502EQIX34      010EQUINIX INC DRN          R$  000000000470200000000047360000000004652000000000470800000000047180000000004430000000000477300088000000000000012736000000000059973213000000000000009999123100000010000000000000BREQIXBDR002109
012021032502EQPA3       010EQTL PARA   ON           R$  000000000039700000000004020000000000390000000000039600000000004020000000000400000000000040200197000000000000082800000000000032857100000000000000009999123100000010000000000000BREQPAACNOR1102
012021032502EQPA7       010EQTL PARA   PNC          R$  000000000055000000000005590000000000550000000000055400000000005590000000000541000000000055900002000000000000000200000000000000110900000000000000009999123100000010000000000000BREQPAACNPC0102
012021032502EQTL3       010EQUATORIAL  ON      NM   R$  000000000211400000000022720000000002074000000000219700000000022480000000002247000000000224827473000000000019887000000000043697322400000000000000009999123100000010000000000000BREQTLACNOR0126
012021032502ESPA3       010ESPACOLASER ON      NM   R$  000000000165000000000017220000000001610000000000165100000000016810000000001675000000000168101549000000000000741700000000001224596600000000000000009999123100000010000000000000BRESPAACNOR7100
012021032502ESTR4       010ESTRELA     PN           R$  000000000262100000000026210000000002621000000000262100000000026210000000002621000000000277000001000000000000000100000000000000262100000000000000009999123100000010000000000000BRESTRACNPR0143
012021032502EUCA3       010EUCATEX     ON      N1   R$  000000000204000000000020400000000002039000000000203900000000020390000000002005000000000203700004000000000000000800000000000001631900000000000000009999123100000010000000000000BREUCAACNOR1152
012021032502EUCA4       010EUCATEX     PN      N1   R$  000000000075900000000007960000000000746000000000077600000000007960000000000796000000000079800370000000000000214500000000000166533700000000000000009999123100000010000000000000BREUCAACNPR8039
012021032502EVEN3       010EVEN        ON      NM   R$  000000000100200000000010480000000000984000000000102100000000010350000000001035000000000104006434000000000001705200000000001742119400000000000000009999123100000010000000000000BREVENACNOR8112
012021032502EXGR34      010EXPEDIA GROUDRN          R$  000000004761000000000476100000000047610000000004761000000000476100000000046000000000000000000001000000000000000004000000000000190440000000000000009999123100000010000000000000BREXGRBDR004103
012021032502EXXO34      010EXXON MOBIL DRN          R$  000000000786200000000080000000000007706000000000790300000000079970000000007993000000000801500162000000000000014784000000000116844402000000000000009999123100000010000000000000BREXXOBDR006142
012021032502EZTC3       010EZTEC       ON      NM   R$  000000000307000000000031990000000003019000000000313200000000031860000000003182000000000318607508000000000001853900000000005806756500000000000000009999123100000010000000000000BREZTCACNOR0114
012021032502F1AN34      010DIAMONDBACK DRN          R$  000000002070000000000207000000000019800000000002035200000000205600000000019700000000002286700012000000000000000020000000000000407040000000000000009999123100000010000000000000BRF1ANBDR001105
012021032502F1NI34      010FIDELITY NATDRN          R$  000000000504200000000050500000000005039000000000504100000000050410000000000000000000000000000052000000000000010553000000000053200185000000000000009999123100000010000000000000BRF1NIBDR004106
012021032502F1RA34      010FRANKLIN RESDRN          R$  000000001608800000000160880000000016088000000001608800000000160880000000013000000000000000000001000000000000000010000000000000160880000000000000009999123100000010000000000000BRF1RABDR002104
012021032502F1RI34      010FEDERAL REALDRN          R$  000000001446000000000145800000000014460000000001453400000000145800000000012800000000000000000005000000000000000096000000000001395270000000000000009999123100000010000000000000BRF1RIBDR005105
012021032502F1SL34      010FASTLY INC  DRN          R$  000000000361500000000037080000000003615000000000370200000000037080000000003500000000000520000002000000000000000032000000000000118470000000000000009999123100000010000000000000BRF1SLBDR007100
012021032502F1TN34      010FORTINET INCDRN          R$  000000004782000000000478200000000047730000000004776000000000477300000000000000000000000000000002000000000000000003000000000000143280000000000000009999123100000010000000000000BRF1TNBDR001100
012021032502FBOK34      010FACEBOOK    DRN          R$  000000000568400000000058110000000005609000000000567200000000056500000000005650000000000567000634000000000000085783000000000486596796000000000000009999123100000010000000000000BRFBOKBDR006101
012021032502FCXO34      010FREEPORT    DRN          R$  000000001800000000000180000000000016716000000001724400000000175890000000017100000000001849900058000000000000004794000000000082667995000000000000009999123100000010000000000000BRFCXOBDR007132
012021032502FDMO34      010FORD MOTORS DRN          R$  000000000677400000000070000000000006656000000000687600000000069810000000006650000000000720000050000000000000004322000000000029718142000000000000009999123100000010000000000000BRFDMOBDR008133
012021032502FDXB34      010FEDEX CORP  DRN          R$  000000015052900000001549500000000150450000000015109600000001549500000000150700000000016302700008000000000000000111000000000016771729000000000000009999123100000010000000000000BRFDXBBDR002130
012021032502FESA3       010FERBASA     ON      N1   R$  000000000337900000000033790000000003338000000000337200000000033380000000003304000000000342000002000000000000000600000000000002023300000000000000009999123100000010000000000000BRFESAACNOR8173
012021032502FESA4       010FERBASA     PN      N1   R$  000000000303400000000031290000000002967000000000306100000000030900000000003089000000000311201413000000000000306100000000000937015500000000000000009999123100000010000000000000BRFESAACNPR5069
012021032502FLRY3       010FLEURY      ON      NM   R$  000000000248000000000025420000000002443000000000251200000000025110000000002511000000000251212386000000000001776900000000004463710900000000000000009999123100000010000000000000BRFLRYACNOR5129
012021032502FMXB34      010FEMSA       DRN          R$  000000004268000000000426800000000042680000000004268000000000426800000000000000000000000000000002000000000000000103000000000004396040000000000000009999123100000010000000000000BRFMXBBDR003106
012021032502FOXC34      010FOX CORP    DRN          R$  000000002288000000000228800000000022880000000002288000000000228800000000000000000000000000000001000000000000000038000000000000869440000000000000009999123100000010000000000000BRFOXCBDR007103
012021032502FRAS3       010FRAS-LE     ON      N1   R$  000000000119000000000011980000000001175000000000118400000000011800000000001180000000000118700434000000000000181900000000000215460000000000000000009999123100000010000000000000BRFRASACNOR0150
012021032502FRIO3       010METALFRIO   ON      NM   R$  000000000630000000000063000000000006300000000000630000000000063000000000006300000000000690000001000000000000000100000000000000630000000000000000009999123100000010000000000000BRFRIOACNOR2110
012021032502FSLR34      010FIRST SOLAR DRN          R$  000000002196100000000225400000000021304000000002151700000000213900000000021373000000002291800011000000000000000097000000000002087205000000000000009999123100000010000000000000BRFSLRBDR001100
012021032502G1AR34      010GARTNER INC DRN          R$  000000002583900000000258390000000025839000000002583900000000258390000000030000000000000000000001000000000000000001000000000000025839000000000000009999123100000010000000000000BRG1ARBDR001100
012021032502G1FI34      010GOLD FIELDS DRN          R$  000000000255400000000025540000000002554000000000255400000000025540000000002200000000000000000001000000000000000050000000000000127700000000000000009999123100000010000000000000BRG1FIBDR009101
012021032502G1LP34      010GALAPAGOS NVDRN          R$  000000000213500000000021620000000002130000000000214200000000021620000000002000000000000277700003000000000000000003000000000000006427000000000000009999123100000010000000000000BRG1LPBDR002100
012021032502G1LW34      010CORNING INC DRN          R$  000000002300000000000230000000000023000000000002300000000000230000000000000000000000000000000001000000000000000073000000000001679000000000000000009999123100000010000000000000BRG1LWBDR008105
012021032502G1SK34      010GLAXOSMITHKLDRN          R$  000000000405900000000040590000000004059000000000405900000000040590000000003931000000000420000001000000000000000001000000000000004059000000000000009999123100000010000000000000BRG1SKBDR008102
012021032502G1WW34      010WW GRAINGER DRN          R$  000000000564100000000056410000000005641000000000564100000000056410000000000000000000000933300001000000000000010516000000000059320756000000000000009999123100000010000000000000BRG1WWBDR005106
012021032502GEOO34      010GE          DRN          R$  000000000697500000000073150000000006950000000000711500000000073150000000006950000000000735000160000000000000005798000000000041255460000000000000009999123100000010000000000000BRGEOOBDR000143
012021032502GEPA4       010GER PARANAP PN           R$  000000000355000000000036090000000003550000000000357900000000036090000000003570000000000362000004000000000000000400000000000001431900000000000000009999123100000010000000000000BRGEPAACNPR9154
012021032502GFSA3       010GAFISA      ON      NM   R$  000000000047100000000004810000000000463000000000047300000000004800000000000479000000000048103719000000000005784000000000002736564100000000000000009999123100000010000000000000BRGFSAACNOR3119
012021032502GGBR3       010GERDAU      ON      N1   R$  000000000220000000000022260000000002140000000000218900000000022150000000002215000000000221600415000000000000097900000000000214392000000000000000009999123100000010000000000000BRGGBRACNOR1176
012021032502GGBR4       010GERDAU      PN      N1   R$  000000000266300000000027400000000002633000000000270000000000027170000000002717000000000272022220000000000009853400000000026604709800000000000000009999123100000010000000000000BRGGBRACNPR8176
012021032502GILD34      010GILEAD      DRN          R$  000000001832000000000183450000000018030000000001808200000000181300000000017109000000001900000027000000000000000501000000000009059475000000000000009999123100000010000000000000BRGILDBDR000120
012021032502GMAT3       010GRUPO MATEUSON      NM   R$  000000000076100000000008000000000000742000000000077300000000007910000000000790000000000079116944000000000010543700000000008152532300000000000000009999123100000010000000000000BRGMATACNOR7100
012021032502GMCO34      010GENERAL MOT DRN          R$  000000000770000000000080450000000007700000000000781900000000080440000000007945000000000805400145000000000000018219000000000142465624000000000000009999123100000010000000000000BRGMCOBDR008116
012021032502GNDI3       010INTERMEDICA ON      NM   R$  000000000821800000000087520000000008184000000000856900000000087100000000008707000000000871023718000000000007309300000000062638922500000000000000009999123100000010000000000000BRGNDIACNOR2102
012021032502GOAU3       010GERDAU MET  ON      N1   R$  000000000103500000000010470000000001023000000000104000000000010440000000001037000000000104500126000000000000023200000000000024133100000000000000009999123100000010000000000000BRGOAUACNOR1253
012021032502GOAU4       010GERDAU MET  PN      N1   R$  000000000119600000000012290000000001182000000000121300000000012200000000001218000000000122015156000000000013119700000000015919312900000000000000009999123100000010000000000000BRGOAUACNPR8254
012021032502GOGL34      010ALPHABET    DRN A        R$  000000000763100000000077520000000007520000000000762700000000077520000000007750000000000775200919000000000000055696000000000424832572000000000000009999123100000010000000000000BRGOGLBDR001101
012021032502GOGL35      010ALPHABET    DRN C        R$  000000000772000000000077760000000007586000000000763600000000077760000000007743000000000777600117000000000000017827000000000136133680000000000000009999123100000010000000000000BRGOGLBDR019101
012021032502GOLL4       010GOL         PN      N2   R$  000000000211500000000021200000000001995000000000206300000000021010000000002100000000000210125606000000000012538000000000025877614700000000000000009999123100000010000000000000BRGOLLACNPR4125
012021032502GPCP3       010GPC PART    ON           R$  000000000210800000000021870000000002000000000000215000000000021780000000002160000000000217900794000000000000404900000000000870541400000000000000009999123100000010000000000000BRGPCPACNOR4111
012021032502GPIV33      010GP INVEST   DR3          R$  000000000050800000000005080000000000478000000000049500000000005000000000000500000000000050302815000000000000290962000000000144142356000000000000009999123100000010000000000000BRGPIVBDR003104
012021032502GPRO34      010GOPRO       DRN          R$  000000000621400000000066660000000006214000000000653800000000066660000000004000000000000698200018000000000000000418000000000002733144000000000000009999123100000010000000000000BRGPROBDR009100
012021032502GPSI34      010GAP         DRN          R$  000000001526900000000161100000000015060000000001559300000000161100000000014900000000001696900006000000000000000500000000000007796634000000000000009999123100000010000000000000BRGPSIBDR009113
012021032502GRND3       010GRENDENE    ON      NM   R$  000000000078900000000007890000000000766000000000077900000000007790000000000779000000000078005961000000000001935100000000001508770700000000000000009999123100000010000000000000BRGRNDACNOR3159
012021032502GSGI34      010GOLDMANSACHSDRN          R$  000000001863800000000187110000000018290000000001839200000000186810000000018660000000001925700046000000000000002274000000000041823927000000000000009999123100000010000000000000BRGSGIBDR008142
012021032502GUAR3       010GUARARAPES  ON           R$  000000000138800000000014580000000001342000000000141300000000014430000000001442000000000144303936000000000000842200000000001190747200000000000000009999123100000010000000000000BRGUARACNOR4166
012021032502H1AS34      010HASBRO INC  DRN          R$  000000002738000000000273800000000027380000000002738000000000273800000000000000000000000000000001000000000000000003000000000000082140000000000000009999123100000010000000000000BRH1ASBDR008105
012021032502H1CA34      010HCA HEALTHCADRN ED       R$  000000005292600000000532000000000052926000000005301700000000532000000000000000000000005345000002000000000000000015000000000000795260000000000000009999123100000010000000000000BRH1CABDR002102
012021032502H1DB34      010HDFC BANK LTDRN          R$  000000000874500000000087450000000008745000000000874500000000087450000000000000000000000000000001000000000000000002000000000000017490000000000000009999123100000010000000000000BRH1DBBDR008100
012021032502H1FC34      010HOLLYFRONTIEDRN          R$  000000002039800000000203980000000020398000000002039800000000203980000000000000000000000000000001000000000000000001000000000000020398000000000000009999123100000010000000000000BRH1FCBDR001105
012021032502H1IG34      010HARTFORD FINDRN          R$  000000003837000000000383700000000038370000000003837000000000383700000000000000000000000000000001000000000000000037000000000001419690000000000000009999123100000010000000000000BRH1IGBDR006105
012021032502H1OG34      010HARLEY-DAVIDDRN          R$  000000001980000000000200500000000019800000000002002600000000200500000000000000000000002255500003000000000000000056000000000001121480000000000000009999123100000010000000000000BRH1OGBDR004105
012021032502H1PE34      010HEWLETT PACKDRN          R$  000000000872000000000087200000000008720000000000872000000000087200000000008115000000000000000002000000000000000005000000000000043600000000000000009999123100000010000000000000BRH1PEBDR006105
012021032502H1SB34      010HSBC HOLDINGDRN          R$  000000000412400000000041240000000004124000000000412400000000041240000000004080000000000432400001000000000000000010000000000000041240000000000000009999123100000010000000000000BRH1SBBDR006101
012021032502H1ZN34      010HORIZON THERDRN          R$  000000000470700000000047070000000004707000000000470700000000047070000000000000000000000550000001000000000000000010000000000000047070000000000000009999123100000010000000000000BRH1ZNBDR006100
012021032502HAGA3       010HAGA S/A    ON           R$  000000000030700000000003120000000000301000000000030600000000003020000000000302000000000030700017000000000000004600000000000001411400000000000000009999123100000010000000000000BRHAGAACNOR7103
012021032502HAGA4       010HAGA S/A    PN           R$  000000000020100000000002100000000000196000000000020400000000002100000000000203000000000021000203000000000000135900000000000027847400000000000000009999123100000010000000000000BRHAGAACNPR4103
012021032502HALI34      010HALLIBURTON DRN          R$  000000001160000000000119110000000011600000000001160200000000119110000000011000000000000000000010000000000000000811000000000009409803000000000000009999123100000010000000000000BRHALIBDR004137
012021032502HAPV3       010HAPVIDA     ON      NM   R$  000000000146900000000015530000000001453000000000153100000000015450000000001544000000000154641445000000000035473000000000054310759500000000000000009999123100000010000000000000BRHAPVACNOR4108
012021032502HBOR3       010HELBOR      ON      NM   R$  000000000084300000000008780000000000812000000000085400000000008730000000000873000000000087403933000000000001287100000000001100333500000000000000009999123100000010000000000000BRHBORACNOR3114
012021032502HBRE3       010HBR REALTY  ON      NM   R$  000000000166000000000016740000000001640000000000166000000000016650000000001615000000000166500193000000000000124500000000000206684200000000000000009999123100000010000000000000BRHBREACNOR4100
012021032502HBSA3       010HIDROVIAS   ON      NM   R$  000000000057000000000006000000000000558000000000058500000000005930000000000592000000000059306878000000000003412300000000001996552800000000000000009999123100000010000000000000BRHBSAACNOR0100
012021032502HETA4       010HERCULES    PN           R$  000000000088900000000009420000000000887000000000090900000000009420000000000916000000000094900015000000000000002000000000000001818700000000000000009999123100000010000000000000BRHETAACNPR9136
012021032502HGTX3       010CIA HERING  ON      NM   R$  000000000155200000000016300000000001520000000000159800000000016170000000001613000000000161710619000000000003423800000000005471302300000000000000009999123100000010000000000000BRHGTXACNOR9152
012021032502HOME34      010HOME DEPOT  DRN          R$  000000000592500000000060390000000005915000000000597300000000060290000000006000000000000607200388000000000000055692000000000332659229000000000000009999123100000010000000000000BRHOMEBDR002137
012021032502HOND34      010HONDA MO    DRN          R$  000000001682700000000168270000000016820000000001682100000000168200000000000000000000000000000002000000000000000004000000000000067287000000000000009999123100000010000000000000BRHONDBDR002105
012021032502HYPE3       010HYPERA      ON      NM   R$  000000000312400000000032660000000003123000000000321900000000032430000000003242000000000324314062000000000003473400000000011183316800000000000000009999123100000010000000000000BRHYPEACNOR0124
012021032502I1AC34      010IAC INTERACTDRN          R$  000000000620000000000062000000000006140000000000619900000000061400000000006081000000000000000002000000000000000101000000000000626140000000000000009999123100000010000000000000BRI1ACBDR001100
012021032502I1BN34      010ICICI BANK LDRN          R$  000000000889200000000088920000000008892000000000889200000000088920000000008000000000000000000001000000000000000990000000000008803080000000000000009999123100000010000000000000BRI1BNBDR006100
012021032502I1LM34      010ILLUMINA INCDRN          R$  000000004485000000000448500000000044790000000004482500000000448200000000038888000000000000000006000000000000000006000000000000268950000000000000009999123100000010000000000000BRI1LMBDR007100
012021032502I1NF34      010IHS MARKIT LDRN          R$  000000000680000000000068000000000006800000000000680000000000068000000000005500000000000000000001000000000000000005000000000000034000000000000000009999123100000010000000000000BRI1NFBDR007106
012021032502I1QY34      010IQIYI INC   DRN          R$  000000000620000000000062000000000006188000000000619100000000061880000000005118000000000000000002000000000000000004000000000000024764000000000000009999123100000010000000000000BRI1QYBDR001100
012021032502I1RM34      010IRON MOUNTAIDRN          R$  000000002050000000000207000000000020500000000002068100000000207000000000019300000000000000000002000000000000000011000000000000227500000000000000009999123100000010000000000000BRI1RMBDR004105
012021032502I1SR34      010INTUITIVE SUDRN          R$  000000003940000000000394000000000039400000000003940000000000394000000000038710000000000000000001000000000000000002000000000000078800000000000000009999123100000010000000000000BRI1SRBDR001100
012021032502I1TW34      010ILLINOIS TOODRN          R$  000000003093200000000309400000000030900000000003093000000000309000000000025000000000000000000006000000000000000330000000000010207060000000000000009999123100000010000000000000BRI1TWBDR009104
012021032502I1VZ34      010INVESCO LTD DRN          R$  000000001314700000000131470000000013147000000001314700000000131470000000013370000000000000000002000000000000000140000000000001840580000000000000009999123100000010000000000000BRI1VZBDR008105
012021032502IBMB34      010IBM         DRN          R$  000000007364000000000756690000000073640000000007502600000000755300000000071040000000007550000202000000000000000585000000000043890264000000000000009999123100000010000000000000BRIBMBBDR003137
